:020000040800F2
:100000000050002079160008A1150008A715000867
:10001000AD150008B3150008B91500080000000070
:10002000000000000000000000000000BF150008F4
:10003000CB15000800000000D7150008E3150008E4
:10004000C1160008C1160008C1160008C116000834
:10005000C1160008C1160008C1160008C116000824
:10006000C1160008C1160008C1160008C116000814
:10007000C1160008C1160008C1160008C116000804
:10008000C1160008C1160008C1160008C1160008F4
:10009000C1160008C1160008C1160008C1160008E4
:1000A000C1160008C1160008C1160008C1160008D4
:1000B000C1160008C1160008C1160008C1160008C4
:1000C000C1160008C1160008C1160008C1160008B4
:1000D000C1160008C1160008C1160008C1160008A4
:1000E000EF150008C1160008C11600080000000046
:1000F0000000000000000000000000000000000000
:0C01000000000000000000005FF808F1A3
:10010C0010B5054C237833B9044B13B10448AFF345
:10011C0000800123237010BD0801002000000000A6
:10012C00EC3A000808B5034B1BB103490348AFF385
:10013C00008008BD000000000C010020EC3A000813
:10014C0080B584B000AFF860B9607A60074AFB688C
:10015C001360074ABB681360064A7B68136000F0A3
:10016C002FFC00BF1037BD4680BD00BF040000202F
:10017C002C0100203001002080B500AF3E4B1B68E5
:10018C000A2B6ED801A252F823F000BF6F020008B0
:10019C00D7010008FD0100082302000849020008ED
:1001AC006F0200086F0200086F0200086F0200085F
:1001BC006F020008C5010008304B1B68304A1268FA
:1001CC0019460120FFF7BCFF54E0002000F082FB31
:1001DC00012000F09BFB2B4B1B68002B43D12A4BBF
:1001EC001B682A4A126819460220FFF7A9FF3AE059
:1001FC00002000F06FFB012000F07AFB214B1B6804
:10020C00002B32D11E4B1B681C4A12681946032066
:10021C00FFF796FF29E0002000F078FB012000F0AA
:10022C0059FB194B1B68002B21D1184B1B68154A25
:10023C00126819460420FFF783FF18E0002000F035
:10024C0057FB012000F046FB0F4B1B68002B10D115
:10025C000A4B1B680A4A126819460120FFF770FF07
:10026C0007E000BF06E000BF04E000BF02E000BFF3
:10027C0000E000BF00BF80BD04000020080000208B
:10028C0010000020300100202C0100200C00002068
:10029C0080B500AF1D4B1B68012B0ED11C4B1B688E
:1002AC001A461C491C4803F097F803469AB24FF4BF
:1002BC00FA731949194802F0CBFD144B1B68022B39
:1002CC000ED1174B1B681A461649134803F084F8D5
:1002DC0003469AB24FF4FA730F49104802F0B8FD76
:1002EC000A4B1B68032B0ED10F4B1B681A460F4988
:1002FC00094803F071F803469AB24FF4FA730649B1
:10030C00064802F0A5FD00BF80BD00BF28010020FB
:10031C0008000020043B0008A80100206001002018
:10032C000C000020183B0008100000202C3B00089B
:10033C0080B500AFA34B1B680A2B00F2398101A2D8
:10034C0052F823F07D030008990300080705000804
:10035C0051040008BD050008BD050008BD050008D6
:10036C00BD050008BD050008BD0500087D0300089B
:10037C00944B01221A6000F023FBFFF789FF924B8C
:10038C005B680121184600F0EBFF18E100F0CCFA95
:10039C00022000F03BFC0346002B11D08B4B1B685A
:1003AC005A1C8B4B83FB02135911D317CB1A6421A4
:1003BC0001FB03F3D31A854A1360FFF769FFF9E0D9
:1003CC00022000F047FC0346002B12D07F4B1B6829
:1003DC0003F163027E4B83FB02135911D317CB1A23
:1003EC00642101FB03F3D31A784A1360FFF750FF23
:1003FC00E0E0012000F00AFC0346002B07D0714B13
:10040C0003221A6000F0DCFAFFF742FFD2E0002072
:10041C0000F0FCFB0346002B00F0CC806D4B1B68FE
:10042C006A4A13606C4B1B686C4A13606C4B1B68FC
:10043C006C4A1360FFF72CFF624B03221A6000F02A
:10044C00BFFAB7E000F0A2FA022000F0DFFB03468F
:10045C00002B11D0634B1B685A1C5D4B83FB0213A2
:10046C005911D317CB1A642101FB03F3D31A5D4A3C
:10047C001360FFF70DFF9FE0022000F0EBFB03463B
:10048C00002B12D0574B1B6803F16302504B83FBBC
:10049C0002135911D317CB1A642101FB03F3D31A9E
:1004AC00504A1360FFF7F4FE86E0012000F0AEFB2B
:1004BC000346002B07D0434B02221A6000F080FA4F
:1004CC00FFF7E6FE78E0002000F0A0FB0346002BCF
:1004DC0072D0404B1B683D4A13603F4B1B683F4A30
:1004EC0013603F4B1B683F4A1360FFF7D1FE354B3F
:1004FC0003221A6000F064FA5EE000F02DFA02208C
:10050C0000F084FB0346002B11D0344B1B685A1CA3
:10051C002F4B83FB02135911D317CB1A642101FB08
:10052C0003F3D31A2D4A1360FFF7B2FE46E0022004
:10053C0000F090FB0346002B12D0284B1B6803F1F4
:10054C006302234B83FB02135911D317CB1A64217B
:10055C0001FB03F3D31A214A1360FFF799FE2DE038
:10056C00012000F053FB0346002B07D0154B012252
:10057C001A6000F025FAFFF78BFE1FE0002000F058
:10058C0045FB0346002B19D0124B1B680F4A136016
:10059C00114B1B68114A1360114B1B68114A1360F5
:1005AC00FFF776FE074B03221A6000F009FA05E00C
:1005BC0000BF04E000BF02E000BF00E000BF00BFCE
:1005CC0080BD00BF2801002088000020080000200A
:1005DC001F85EB5114000020180000200C00002097
:1005EC001C0000201000002080B500AF002000F09F
:1005FC0031FB0346002B2CD0304B1B68022B18D040
:10060C002E4B02221A602E492E4802F0E5FE0346BC
:10061C009AB24FF4FA732B492B4802F019FC2B4B6E
:10062C000A221A602A4B00221A602A4B00221A60F6
:10063C0041E0224B0A221A602749224802F0CCFEE4
:10064C0003469AB24FF4FA731E491F4802F000FC9D
:10065C0031E0012000F0FEFA0346002B2BD0174BA3
:10066C001B68032B18D0154B03221A601B49154825
:10067C0002F0B2FE03469AB24FF4FA7311491248D3
:10068C0002F0E6FB134B0A221A60114B00221A608F
:10069C000E4B00221A600EE0084B0A221A600E491B
:1006AC00084802F099FE03469AB24FF4FA730549D2
:1006BC00054802F0CDFB00BF80BD00BF000000204C
:1006CC00403B0008A801002060010020240100200C
:1006DC0004000020280100205C3B0008743B00084B
:1006EC0080B500AF254B1B680A2B06D00A2B41DCCA
:1006FC00012B39D0032B3AD03CE0214B1A68214B0B
:10070C001B681A44204B1B689A4218D01B4B0422BE
:10071C001A601E491E4802F05FFE03469AB24FF45F
:10072C00FA731B491B4802F093FB1B4B00221A6007
:10073C001A4B00221A601A4B00221A6011E00F4B60
:10074C0001221A60144B0A221A60144B00221A6000
:10075C00134B00221A60134B1B680021184600F043
:10076C00FFFD00F0ABF806E0FFF706FD03E0FFF736
:10077C00DFFD00E000BF00BF80BD00BF0000002017
:10078C000C0000201000002008000020903B000806
:10079C00A80100206001002004000020240100209A
:1007AC00280100208800002080B500AF1B4B1B687F
:1007BC00012B31D11A4B1B68012B2DD1194B1B6806
:1007CC00013B184A1360184B1B68013B164A136017
:1007DC00144B1B681A461549154802F0FDFD0346DB
:1007EC009AB24FF4FA731249124802F031FB0E4BD5
:1007FC001B681A4610490E4802F0EEFD03469AB2E9
:10080C004FF4FA730A490B4802F022FB0B4B1B689E
:10081C000021184600F0A4FD00BF80BD440100205B
:10082C00000000202C01002030010020A03B00081B
:10083C00A801002060010020B43B000888000020C3
:10084C0080B582B000AF3B600346FB710B46BB71B9
:10085C0013467B713B68002B12D1FB791A4602219F
:10086C00154801F034FABB791A461021124801F0F0
:10087C002EFA7B791A4640210F4801F028FA16E02F
:10088C003B68012B13D1FB791A4680210A4801F0F1
:10089C001EFABB791A464FF48071074801F017FA1B
:1008AC007B791A464FF40071034801F010FA00BF2F
:1008BC000837BD4680BD00BF0008014080B500AFC1
:1008CC00012240F2D231024801F001FA00BF80BD92
:1008DC000008014080B582B000AF78607B680122CF
:1008EC0001210020FFF7ACFF00BF0837BD4680BDDB
:1008FC0080B582B000AF78607B68012200210120B6
:10090C00FFF79EFF00BF0837BD4680BD80B582B0A3
:10091C0000AF78607B68002201210120FFF790FF77
:10092C0000BF0837BD4680BD80B500AF074B5B6884
:10093C00012B09D18221064801F0E1F9054B5B68D6
:10094C000121184600F00CFD00BF80BD44010020C1
:10095C00000801408800002080B500AF084B5B68A0
:10096C00012B0AD14FF48871064801F0C8F9064BE7
:10097C005B680121184600F0F3FC00BF80BD00BF8E
:10098C0044010020000801408800002080B500AF21
:10099C00084B5B68012B0AD14FF41071064801F02B
:1009AC00AEF9064B5B680121184600F0D9FC00BF7C
:1009BC0080BD00BF440100200008014088000020D9
:1009CC0080B500AFFFF77AFF00BF80BD80B582B065
:1009DC0000AF00237B6009E189497A681346DB008C
:1009EC009B1A9B000B440433196885487A6813469C
:1009FC00DB009B1A9B000344196081497A681346FB
:100A0C00DB009B1A9B000B44083319687C487A68FE
:100A1C001346DB009B1A9B00034404331960794A8C
:100A2C007B6852F8232078497B6831F813301946DB
:100A3C00104601F035F90346184671497A68134699
:100A4C00DB009B1A9B000B44083318606C497A68D6
:100A5C001346DB009B1A9B000B44196868487A68A4
:100A6C001346DB009B1A9B00034404331B6899421A
:100A7C0040F0B98062497A681346DB009B1A9B00F0
:100A8C000B44043319685E487A681346DB009B1AE2
:100A9C009B00034408331B68994240F0A4805849DA
:100AAC007A681346DB009B1A9B000B440C331968C5
:100ABC0053487A681346DB009B1A9B0003440833A7
:100ACC001B68994252D04E497A681346DB009B1A38
:100ADC009B000B440833196849487A681346DB00BD
:100AEC009B1A9B0003440C33196045497A681346E2
:100AFC00DB009B1A9B000B4408331B68002B14D1A2
:100B0C003F497A681346DB009B1A9B000B44103359
:100B1C0001221A603A497A681346DB009B1A9B0043
:100B2C000B44183364221A605DE035497A68134629
:100B3C00DB009B1A9B000B4408331B68012B52D122
:100B4C002F497A681346DB009B1A9B000B44103329
:100B5C001B68012B47D12A497A681346DB009B1A84
:100B6C009B000B44103302221A603CE024497A6843
:100B7C001346DB009B1A9B000B4408331B68002BAD
:100B8C0031D11F497A681346DB009B1A9B000B443A
:100B9C0018331B68591E1A487A681346DB009B1AD7
:100BAC009B0003441833196015497A681346DB001F
:100BBC009B1A9B000B4418331B68002B13D1104954
:100BCC007A681346DB009B1A9B000B4414330122FA
:100BDC001A600B497A681346DB009B1A9B000B4486
:100BEC00103300221A607B6801337B607B68022B18
:100BFC007FF7F2AE00BF00BF0837BD4680BD00BF17
:100C0C0020000020740000208000002080B483B0FD
:100C1C0000AF78600E497A681346DB009B1A9B0084
:100C2C000B4410331B68022B0BD109497A6813460D
:100C3C00DB009B1A9B000B44103300221A6001232B
:100C4C0000E0002318460C37BD4680BC704700BF3F
:100C5C002000002080B483B000AF78600E497A6821
:100C6C001346DB009B1A9B000B4414331B68012BAF
:100C7C000BD109497A681346DB009B1A9B000B4485
:100C8C00143300221A60012300E0002318460C37AD
:100C9C00BD4680BC704700BF2000002080B500AF6F
:100CAC0000F00AFD00F03EF800F022F900F0F6F832
:100CBC0000F07AF800F0A6F8134801F0FDFD134B94
:100CCC001B680021184600F04BFB00F0C1F9012213
:100CDC0000210F4800F0D6F9012200210D4800F048
:100CEC00D1F9012200210C4800F0CCF9012200219D
:100CFC000A4800F0C7F901220021094800F0C2F9A6
:100D0C0000F000FBFCE700BF300200208800002050
:100D1C00ED060008B5070008F5050008AD1300083E
:100D2C00D909000880B590B000AF07F1180328224C
:100D3C000021184602F092FA3B1D00221A605A60FC
:100D4C009A60DA601A610223BB610123BB62102333
:100D5C00FB6202237B630023BB634FF46013FB63D2
:100D6C0007F11803184601F049F90346002B01D08E
:100D7C0000F03EF90F237B600223BB600023FB6075
:100D8C004FF480633B6100237B613B1D02211846BD
:100D9C0001F0B4FB0346002B01D000F029F900BF91
:100DAC004037BD4680BD000080B500AF124B134AE2
:100DBC001A60114B124A5A600F4B00229A600E4B6C
:100DCC000022DA600C4B4FF480421A610A4B00226D
:100DDC005A61094B00229A61074B0022DA61064BDB
:100DEC0000221A62044800F0C5FF0346002B01D014
:100DFC0000F0FEF800BF80BDDC0100200054004074
:100E0C00A086010080B586B000AF07F10803002270
:100E1C001A605A609A60DA603B4600221A605A6087
:100E2C001D4B4FF080421A601B4B41F63F725A60CB
:100E3C00194B00229A60184B0922DA60164B0022DB
:100E4C001A61154B00229A61134801F0E5FC034628
:100E5C00002B01D000F0CCF84FF48053BB6007F1AD
:100E6C00080319460C4801F079FD0346002B01D00C
:100E7C0000F0BEF800233B6000237B603B46194624
:100E8C00054801F037FF0346002B01D000F0B0F805
:100E9C0000BF1837BD4680BD3002002080B500AFC2
:100EAC00114B124A1A60104B4FF416525A600E4BEB
:100EBC0000229A600C4B0022DA600B4B00221A6164
:100ECC00094B0C225A61084B00229A61064B0022F6
:100EDC00DA61054801F06CFF0346002B01D000F0ED
:100EEC0087F800BF80BD00BF6001002000440040B7
:100EFC0080B588B000AF07F1100300221A605A6069
:100F0C009A60DA60354B9B69344A43F01003936165
:100F1C00324B9B6903F01003FB60FB682F4B9B6902
:100F2C002E4A43F0200393612C4B9B6903F0200362
:100F3C00BB60BB68294B9B69284A43F0040393614F
:100F4C00264B9B6903F004037B607B68234B9B69F6
:100F5C00224A43F008039361204B9B6903F008037A
:100F6C003B603B68002240F2F2311D4800F0AFFEBE
:100F7C004FF400533B611B4B7B610023BB6107F1BA
:100F8C0010031946184800F007FD40F2F2333B619C
:100F9C0001237B610023BB610223FB6107F110037A
:100FAC0019460F4800F0F8FC4FF4E0633B61002356
:100FBC007B610123BB6107F1100319460B4800F05C
:100FCC00EBFC00220021282000F0AFFC282000F0D0
:100FDC00C8FC00BF2037BD4680BD00BF00100240DA
:100FEC00000801400000111000100140000C0140ED
:100FFC0080B400AF72B600BFFEE780B586B000AF1C
:10100C00F860B9607A603B60102002F01FF903466B
:10101C007B617B69BA681A607B697A685A607B6904
:10102C003A689A60FB68002B03D0FB681B68002BA6
:10103C0003D17B697A69DA6004E0FB681B68DA68C3
:10104C007B69DA607B6918461837BD4680BD0000A5
:10105C0080B500AF0C2002F0F9F803461A46084B95
:10106C001A60074B1B6800221A60054B1B68002294
:10107C005A60034B1B6800229A6000BF80BD00BF02
:10108C007802002090B58BB000AFF860B9607A6040
:10109C006E4B1B681B68002B0FD16C4B1C687B685C
:1010AC00BA68F9680020FFF7A8FF03462360674B76
:1010BC001B685A6801325A60C4E0644B1B681B6899
:1010CC007B6100237B620023BB6100233B62B1E0A8
:1010DC007B69DB685B687A6A13447B627A6ABB68FB
:1010EC009A4265D97B69DB685A687B6AD31ABA68FD
:1010FC001344BB617B69DB68796ABA688A1A5A60E7
:10110C00524B1B689B68002B0FD17C6907F11400B4
:10111C007B68BA69F968FFF770FF0346E3604B4BD5
:10112C001B685A6801325A608CE0484B1B681B687C
:10113C00FA681A60454B1B681B68BA695A60434BC6
:10114C001B681B687A689A607B69DB68FB6102E04C
:10115C00FB69DB68FB61FB69DA683C4B1B681B684D
:10116C009A42F5D1394B1B681A687B699A4204D1B3
:10117C00364B1B68FA691A6014E0344B1B681B6809
:10118C00DA68FB69DA607A69304B1B681B68D268D5
:10119C00DA602E4B1A687B691268DA602B4B1B687D
:1011AC00FA691A60294B1B689A68013A9A6049E0FF
:1011BC007B69DB681B68002B13D17B69DB68FA68E1
:1011CC001A607B69DB68B9687A6A8A1A5A607B692B
:1011DC00DB687A689A601D4B1B689A68013A9A60C2
:1011EC0030E07B69DA68194B1B681B689A421BD18B
:1011FC00164B1B681846BA687B6AD21A134B1B68CD
:10120C001C687B68F968FFF7F8FE0346E3600F4B38
:10121C001B681A680D4B1B68D2681A600B4B1B6855
:10122C005A6801325A600DE07B69DB687B613B6A6E
:10123C0001333B62054B1B685B683A6A9A42FFF6C6
:10124C0047AFFFE700BF2C37BD4690BD78020020AA
:10125C0080B485B000AF78607B681B68DB68FB608E
:10126C00274B1B681B68FA689A4208D0FB68DB683E
:10127C005968FB685A68FB68DB680A445A60FB686B
:10128C0000221A60FB6800225A60FB6800229A60F8
:10129C007B681A681A4B1B681B689A4207D1184B5B
:1012AC001B681A68164B1B68D2681A601EE0FB6834
:1012BC00DB681B68002B19D0114B1B681B68FA6884
:1012CC009A4213D07B681B68FA68D268DA600C4BC0
:1012DC001B681B68DA68FB68DA60094B1B681B68C3
:1012EC00FA68DA60064B1B68FA681A60044B1B68D4
:1012FC009A6801329A6000BF1437BD4680BC7047B3
:10130C007802002090B585B000AF1BE0134B1B6832
:10131C001B68DB681B689847104B1B681B68DB68F5
:10132C003C460FCB84E80F000C4B1B681846FFF7AC
:10133C008FFFBB68002B05D03B68B968BA681846AC
:10134C00FFF7A0FE054B1B681B68DB685B68002B76
:10135C00DCD000BF00BF1437BD4690BD7802002022
:10136C0080B483B000AF786039607B68094A82FB37
:10137C0003129210DB17D21A07493B6841F823205D
:10138C00064A3B68002142F8231000BF0C37BD46CB
:10139C0080BC7047676666663401002044010020FB
:1013AC0080B483B000AF00237B601CE0124A7B68E2
:1013BC0052F82330002B13DD0F4A7B6852F8233090
:1013CC005A1E0D497B6841F823200B4A7B6852F862
:1013DC002330002B04DC094A7B68012142F82310DE
:1013EC007B6801337B607B68032BDFDD00BF00BFB4
:1013FC000C37BD4680BC70473401002044010020EE
:10140C0080B485B000AF154B9B69144A43F00103BF
:10141C009361124B9B6903F00103BB60BB680F4BDC
:10142C00DB690E4A43F08053D3610C4BDB6903F04C
:10143C0080537B607B680A4B5B68FB60FB6823F026
:10144C00E063FB60FB6843F00073FB60044AFB68DD
:10145C00536000BF1437BD4680BC7047001002407B
:10146C000000014080B588B000AF786007F1100330
:10147C0000221A605A609A60DA607B681B68154A11
:10148C00934223D1144B9B69134A43F00803936195
:10149C00114B9B6903F00803FB60FB68C0233B61A5
:1014AC0012237B610323FB6107F1100319460B48E0
:1014BC0000F072FA084BDB69074A43F40013D3615E
:1014CC00054BDB6903F40013BB60BB6800BF20371E
:1014DC00BD4680BD0054004000100240000C01408D
:1014EC0080B485B000AF78607B681B68B3F1804F27
:1014FC000BD1084BDB69074A43F00103D361054B61
:10150C00DB6903F00103FB60FB6800BF1437BD46C9
:10151C0080BC70470010024080B588B000AF786086
:10152C0007F1100300221A605A609A60DA607B6837
:10153C001B68154A934223D1144BDB69134A43F4BD
:10154C000033D361114BDB6903F40033FB60FB68A0
:10155C000E4B9B690D4A43F0040393610B4B9B6943
:10156C0003F00403BB60BB680C233B6102237B616B
:10157C000223FB6107F110031946054800F00CFA31
:10158C0000BF2037BD4680BD004400400010024023
:10159C000008014080B400AFFEE780B400AFFEE766
:1015AC0080B400AFFEE780B400AFFEE780B400AFBC
:1015BC00FEE780B400AF00BFBD4680BC704780B46E
:1015CC0000AF00BFBD4680BC704780B400AF00BF09
:1015DC00BD4680BC704780B500AF00F0B3F800BFCB
:1015EC0080BD80B500AF4FF4005000F0A1FB00BFF0
:1015FC0080BD000080B586B000AF7860144A154BF2
:10160C00D31A7B617B693B61134B1B68002B02D1A6
:10161C00114B124A1A60104B1A687B6813443A69D2
:10162C009A4207D201F0E8FD03460C221A604FF0F3
:10163C00FF3309E0084B1B68FB60074B1A687B689B
:10164C001344054A1360FB6818461837BD4680BD25
:10165C0000500020000400005401002090020020E3
:10166C0080B400AF00BFBD4680BC7047FFF7F8FFE9
:10167C000B480C490C4A002302E0D458C4500433E4
:10168C00C4188C42F9D3094A094C002301E01360B9
:10169C000432A242FBD301F0B5FDFFF7FFFA70470D
:1016AC000000002008010020303C00080801002048
:1016BC0090020020FEE7000080B500AF084B1B68CD
:1016CC00074A43F010031360032000F023F90020B5
:1016DC0000F008F8FFF794FE0023184680BD00BF09
:1016EC000020024080B582B000AF7860124B1A68BF
:1016FC00124B1B7819464FF47A73B3FBF1F3B2FB20
:10170C00F3F3184600F03BF90346002B01D00123FC
:10171C000EE07B680F2B0AD8002279684FF0FF305F
:10172C0000F003F9064A7B681360002300E00123F4
:10173C0018460837BD4680BD98000020A000002048
:10174C009C00002080B400AF054B1B781A46054B5B
:10175C001B681344034A136000BFBD4680BC70472E
:10176C00A00000207C02002080B400AF024B1B685C
:10177C001846BD4680BC70477C02002080B485B002
:10178C0000AF78607B6803F00703FB600C4BDB68F1
:10179C00BB60BA684FF6FF031340BB60FB681A02CC
:1017AC00BB68134343F0BF6343F40033BB60044A8C
:1017BC00BB68D36000BF1437BD4680BC704700BF08
:1017CC0000ED00E080B400AF044BDB681B0A03F0B3
:1017DC0007031846BD4680BC704700BF00ED00E013
:1017EC0080B483B000AF0346FB7197F90730002B30
:1017FC000BDBFB7903F01F02064997F907305B09F5
:10180C00012000FA02F241F8232000BF0C37BD463C
:10181C0080BC704700E100E080B483B000AF0346A9
:10182C003960FB7197F90730002B0ADB3B68DAB2A1
:10183C000C4997F907301201D2B20B4483F80023FC
:10184C000AE03B68DAB20849FB7903F00F03043B6A
:10185C001201D2B20B441A7600BF0C37BD4680BCC5
:10186C00704700BF00E100E000ED00E080B489B0FB
:10187C0000AFF860B9607A60FB6803F00703FB61A6
:10188C00FB69C3F10703042B28BF0423BB61FB696D
:10189C000433062B02D9FB69033B00E000237B6178
:1018AC004FF0FF32BB6902FA03F3DA43BB681A400C
:1018BC007B699A404FF0FF317B6901FA03F3D943FE
:1018CC007B680B40134318462437BD4680BC7047D9
:1018DC0080B582B000AF78607B68013BB3F1807F4C
:1018EC0001D301230FE00A4A7B68013B53600F21AF
:1018FC004FF0FF30FFF790FF054B00229A60044B2E
:10190C0007221A60002318460837BD4680BD00BF69
:10191C0010E000E080B582B000AF78607868FFF727
:10192C002DFF00BF0837BD4680BD80B586B000AF27
:10193C000346B9607A60FB7300237B61FFF742FFBB
:10194C0078617A68B9687869FFF790FF024697F971
:10195C000F3011461846FFF75FFF00BF1837BD4622
:10196C0080BD80B582B000AF0346FB7197F907309C
:10197C001846FFF735FF00BF0837BD4680BD80B560
:10198C0082B000AF78607868FFF7A2FF0346184674
:10199C000837BD4680BD000080B48BB000AF7860C6
:1019AC00396000237B6200233B6269E101227B6A80
:1019BC0002FA03F3FB613B681B68FA691340BB61D5
:1019CC00BA69FB699A4240F058813B685B689A4A55
:1019DC0093425ED0984A934275D8984A934258D015
:1019EC00964A93426FD8964A934252D0944A934265
:1019FC0069D8944A93424CD0924A934263D8924A03
:101A0C00934246D0904A93425DD8122B2AD8122B7F
:101A1C0059D801A252F823F09F1A0008791A00082D
:101A2C008B1A0008CD1A0008D31A0008D31A000824
:101A3C00D31A0008D31A0008D31A0008D31A0008C6
:101A4C00D31A0008D31A0008D31A0008D31A0008B6
:101A5C00D31A0008D31A0008D31A0008811A0008F8
:101A6C00951A0008794A934213D02CE03B68DB6846
:101A7C003B6229E03B68DB6804333B6224E03B6853
:101A8C00DB6808333B621FE03B68DB680C333B626E
:101A9C001AE03B689B68002B02D104233B6213E0E5
:101AAC003B689B68012B05D108233B627B68FA6974
:101ABC001A6109E008233B627B68FA695A6103E00A
:101ACC0000233B6200E000BFBB69FF2B01D87B68A1
:101ADC0001E07B6804337B61BB69FF2B02D87B6A16
:101AEC009B0002E07B6A083B9B003B617B691A68A8
:101AFC000F213B6901FA03F3DB431A40396A3B6956
:101B0C0001FA03F31A437B691A603B685B6803F0C4
:101B1C008053002B00F0B1804D4B9B694C4A43F035
:101B2C00010393614A4B9B6903F00103BB60BB68E3
:101B3C00484A7B6A9B08023352F82330FB607B6A6D
:101B4C0003F003039B000F2202FA03F3DB43FA6852
:101B5C001340FB607B68404A934213D07B683F4A3A
:101B6C0093420DD07B683E4A934207D07B683D4A36
:101B7C00934201D1032306E0042304E0022302E094
:101B8C00012300E000237A6A02F0030292009340E2
:101B9C00FA681343FB602F497B6A9B080233FA688F
:101BAC0041F823203B685B6803F48013002B06D0BC
:101BBC002D4B9A682C49BB6913438B6006E02A4B6A
:101BCC009A68BB69DB43284913408B603B685B68B0
:101BDC0003F40013002B06D0234BDA682249BB69AF
:101BEC001343CB6006E0204BDA68BB69DB431E492C
:101BFC001340CB603B685B6803F40033002B06D0CA
:101C0C00194B5A681849BB6913434B6006E0164BD5
:101C1C005A68BB69DB43144913404B603B685B68F3
:101C2C0003F48033002B21D00F4B1A680E49BB698B
:101C3C0013430B6021E000BF000032100000311094
:101C4C0000002210000021100000121000001110E2
:101C5C00001002400000014000080140000C01404F
:101C6C000010014000140140000401400B4B1A68A5
:101C7C00BB69DB43094913400B607B6A01337B6210
:101C8C003B681A687B6A22FA03F3002B7FF48EAE52
:101C9C0000BF00BF2C37BD4680BC7047000401401C
:101CAC0080B485B000AF78600B467B807B689A6807
:101CBC007B881340002B02D00123FB7301E000232F
:101CCC00FB73FB7B18461437BD4680BC704780B451
:101CDC0083B000AF78600B467B8013467B707B78BB
:101CEC00002B03D07A887B681A6103E07B881A0486
:101CFC007B681A6100BF0C37BD4680BC704780B44E
:101D0C0085B000AF78600B467B807B68DB68FB603E
:101D1C007A88FB6813401A04FB68D9437B880B4014
:101D2C001A437B681A6100BF1437BD4680BC7047EC
:101D3C0080B582B000AF0346FB80084B5A69FB8824
:101D4C001340002B06D0054AFB885361FB881846CC
:101D5C0000F006F800BF0837BD4680BD0004014006
:101D6C0080B483B000AF0346FB8000BF0C37BD4688
:101D7C0080BC704780B584B000AF78607B68002B66
:101D8C0001D101232BE17B6893F83D30DBB2002BB2
:101D9C0006D17B68002283F83C207868FFF762FB51
:101DAC007B68242283F83D207B681B681A687B685B
:101DBC001B6822F001021A607B681B681A687B683A
:101DCC001B6842F400421A607B681B681A687B68C7
:101DDC001B6822F400421A6000F0D8FCF8607B68A3
:101DEC005B68814A934207D8FB68804A934294BF50
:101DFC0001230023DBB206E0FB687D4A934294BFCB
:101E0C0001230023DBB2002B01D00123E7E0FB68A8
:101E1C00784AA2FB03239B0CBB607B681B685B6846
:101E2C0023F03F017B681B68BA680A435A607B68E1
:101E3C001B681B6A23F03F017B685B686A4A93420C
:101E4C0002D8BB68013309E0BB684FF4967202FB01
:101E5C0003F3694AA2FB03239B0901337A681268D6
:101E6C000B4313627B681B68DB6923F44F4222F03F
:101E7C00FF027B685B685C498B4219D8FB68591E72
:101E8C007B685B685B00B1FBF3F3591C40F6FC7399
:101E9C000B40002B0AD0FB68591E7B685B685B000B
:101EAC00B1FBF3F30133C3F30B0351E004234FE015
:101EBC007B689B68002B11D1FB68581E7B685968A6
:101ECC000B465B000B44B0FBF3F30133C3F30B0382
:101EDC00002B0CBF01230023DBB212E0FB68581E61
:101EEC007B6859680B469B000B4499000B44B0FB74
:101EFC00F3F30133C3F30B03002B0CBF01230023BB
:101F0C00DBB2002B01D0012322E07B689B68002B05
:101F1C000ED1FB68581E7B6859680B465B000B445E
:101F2C00B0FBF3F30133C3F30B0343F400430FE0B3
:101F3C00FB68581E7B6859680B469B000B44990044
:101F4C000B44B0FBF3F30133C3F30B0343F44043F3
:101F5C00796809681343CB617B681B681B6823F0A5
:101F6C00C0017B68DA697B681B6A1A437B681B6853
:101F7C000A431A607B681B689B6823F4034323F0B5
:101F8C00FF037A6811697A68D26811437A6812681B
:101F9C000B4393607B681B68DB6823F0FF017B6855
:101FAC005A697B689B691A437B681B680A43DA6031
:101FBC007B681B681A687B681B6842F001021A6018
:101FCC007B6800221A647B68202283F83D207B68A2
:101FDC0000221A637B68002283F83E2000231846F7
:101FEC001037BD4680BD00BFA08601007F841E0057
:101FFC00FF083D0083DE1B43D34D621080B586B0D5
:10200C0000AF78607B68002B01D101236CE27B6808
:10201C001B6803F00103002B00F08780924B5B6878
:10202C0003F00C03042B0CD08F4B5B6803F00C03F8
:10203C00082B12D18C4B5B6803F48033B3F5803FD3
:10204C000BD1894B1B6803F40033002B6CD07B68DD
:10205C005B68002B68D1012346E27B685B68B3F5B3
:10206C00803F06D1804B1B687F4A43F4803313605A
:10207C002EE07B685B68002B0CD17B4B1B687A4A8B
:10208C0023F480331360784B1B68774A23F4802346
:10209C0013601DE07B685B68B3F5A02F0CD1724B0D
:1020AC001B68714A43F4802313606F4B1B686E4AA4
:1020BC0043F4803313600BE06B4B1B686A4A23F4C8
:1020CC0080331360684B1B68674A23F480231360CA
:1020DC007B685B68002B13D0FFF746FB386108E088
:1020EC00FFF742FB02463B69D31A642B01D9032349
:1020FC00FAE15D4B1B6803F40033002BF0D014E0C5
:10210C00FFF732FB386108E0FFF72EFB02463B6914
:10211C00D31A642B01D90323E6E1534B1B6803F458
:10212C000033002BF0D100E000BF7B681B6803F08C
:10213C000203002B63D04C4B5B6803F00C03002BA9
:10214C000BD0494B5B6803F00C03082B1CD1464B9E
:10215C005B6803F48033002B16D1434B1B6803F0F0
:10216C000203002B05D07B681B69012B01D00123D6
:10217C00BAE13D4B1B6823F0F8027B685B69DB001E
:10218C00394913430B603AE07B681B69002B20D064
:10219C00364B01221A60FFF7E7FA386108E0FFF7C7
:1021AC00E3FA02463B69D31A022B01D903239BE1C4
:1021BC002D4B1B6803F00203002BF0D02A4B1B683D
:1021CC0023F0F8027B685B69DB00274913430B6043
:1021DC0015E0264B00221A60FFF7C6FA386108E0BA
:1021EC00FFF7C2FA02463B69D31A022B01D903232B
:1021FC007AE11D4B1B6803F00203002BF0D17B68C6
:10220C001B6803F00803002B3AD07B689B69002BFA
:10221C0019D0174B01221A60FFF7A6FA386108E0B3
:10222C00FFF7A2FA02463B69D31A022B01D903230A
:10223C005AE10D4B5B6A03F00203002BF0D0012036
:10224C0000F0CCFA1CE00A4B00221A60FFF78CFA63
:10225C0038610FE0FFF788FA02463B69D31A022B6C
:10226C0008D9032340E100BF0010024000004242A5
:10227C00800442429E4B5B6A03F00203002BE9D1BF
:10228C007B681B6803F00403002B00F0A68000237E
:10229C00FB75974BDB6903F08053002B0DD1944BEE
:1022AC00DB69934A43F08053D361914BDB6903F0B4
:1022BC008053BB60BB680123FB758E4B1B6803F41A
:1022CC008073002B18D18B4B1B688A4A43F48073A4
:1022DC001360FFF749FA386108E0FFF745FA024648
:1022EC003B69D31A642B01D90323FDE0814B1B6896
:1022FC0003F48073002BF0D07B68DB68012B06D1D4
:10230C007B4B1B6A7A4A43F0010313622DE07B6816
:10231C00DB68002B0CD1764B1B6A754A23F001034A
:10232C001362734B1B6A724A23F0040313621CE0A2
:10233C007B68DB68052B0CD16D4B1B6A6C4A43F038
:10234C00040313626A4B1B6A694A43F0010313626C
:10235C000BE0674B1B6A664A23F001031362644B64
:10236C001B6A634A23F0040313627B68DB68002B4F
:10237C0015D0FFF7F9F938610AE0FFF7F5F90246D5
:10238C003B69D31A41F28832934201D90323ABE063
:10239C00574B1B6A03F00203002BEED014E0FFF73F
:1023AC00E3F938610AE0FFF7DFF902463B69D31A1B
:1023BC0041F28832934201D9032395E04C4B1B6ABE
:1023CC0003F00203002BEED1FB7D012B05D1484B12
:1023DC00DB69474A23F08053D3617B68DB69002BB0
:1023EC0000F08180424B5B6803F00C03082B61D03A
:1023FC007B68DB69022B46D13F4B00221A60FFF74A
:10240C00B3F9386108E0FFF7AFF902463B69D31A1C
:10241C00022B01D9032367E0354B1B6803F00073D3
:10242C00002BF0D17B681B6AB3F5803F08D1304B91
:10243C005B6823F400327B689B682D4913434B6027
:10244C002B4B5B6823F474127B68196A7B685B6A9C
:10245C000B43274913434B60274B01221A60FFF7AC
:10246C0083F9386108E0FFF77FF902463B69D31A1C
:10247C00022B01D9032337E01D4B1B6803F00073BB
:10248C00002BF0D02FE01C4B00221A60FFF76CF9E8
:10249C00386108E0FFF768F902463B69D31A022B52
:1024AC0001D9032320E0124B1B6803F00073002BAF
:1024BC00F0D118E07B68DB69012B01D1012313E01B
:1024CC000B4B5B68FB60FB6803F480327B681B6A18
:1024DC009A4206D1FB6803F470127B685B6A9A42DD
:1024EC0001D0012300E0002318461837BD4680BDFB
:1024FC0000100240007000406000424280B584B081
:10250C0000AF786039607B68002B01D10123D0E0EB
:10251C006A4B1B6803F007033A689A4210D9674B61
:10252C001B6823F0070265493B6813430B60634B40
:10253C001B6803F007033A689A4201D00123B8E004
:10254C007B681B6803F00203002B20D07B681B68A0
:10255C0003F00403002B05D0594B5B68584A43F435
:10256C00E06353607B681B6803F00803002B05D005
:10257C00534B5B68524A43F460535360504B5B6857
:10258C0023F0F0027B689B684D4913434B607B68DA
:10259C001B6803F00103002B40D07B685B68012BA8
:1025AC0007D1474B1B6803F40033002B15D10123D3
:1025BC007FE07B685B68022B07D1414B1B6803F003
:1025CC000073002B09D1012373E03D4B1B6803F012
:1025DC000203002B01D101236BE0394B5B6823F024
:1025EC0003027B685B68364913434B60FFF7BCF80A
:1025FC00F8600AE0FFF7B8F80246FB68D31A41F21C
:10260C008832934201D9032353E02D4B5B6803F0CE
:10261C000C027B685B689B009A42EBD1274B1B68D2
:10262C0003F007033A689A4210D2244B1B6823F03C
:10263C00070222493B6813430B60204B1B6803F0D5
:10264C0007033A689A4201D0012332E07B681B6889
:10265C0003F00403002B08D0194B5B6823F4E062F1
:10266C007B68DB68164913434B607B681B6803F07F
:10267C000803002B09D0124B5B6823F460527B6873
:10268C001B69DB000E4913434B6000F021F8024636
:10269C000B4B5B681B0903F00F030A49CB5C22FA56
:1026AC0003F3094A1360094B1B681846FFF71AF825
:1026BC00002318461037BD4680BD00BF00200240E5
:1026CC0000100240C83B0008980000209C0000202D
:1026DC0080B487B000AF0023FB600023BB600023F5
:1026EC007B6100237B6000233B611E4B5B68FB60BE
:1026FC00FB6803F00C03042B02D0082B03D027E05B
:10270C00194B3B6127E0FB689B0C03F00F03174A46
:10271C00D35C7B60FB6803F48033002B10D0114B2F
:10272C005B685B0C03F00103114AD35CBB607B68F4
:10273C000D4A02FB03F2BB68B2FBF3F37B6104E0CE
:10274C007B680C4A02FB03F37B617B693B6102E013
:10275C00054B3B6100BF3B6918461C37BD4680BC2E
:10276C00704700BF0010024000127A00E03B0008E6
:10277C00F03B000800093D0080B400AF024B1B6821
:10278C001846BD4680BC70479800002080B500AF4D
:10279C00FFF7F2FF0246054B5B681B0A03F00703C9
:1027AC000349CB5C22FA03F3184680BD00100240AB
:1027BC00D83B000880B500AFFFF7DEFF0246054BA3
:1027CC005B68DB0A03F007030349CB5C22FA03F3D3
:1027DC00184680BD00100240D83B000880B485B07C
:1027EC0000AF78600A4B1B680A4AA2FB03235B0A02
:1027FC007A6802FB03F3FB6000BFFB685A1EFA60A9
:10280C00002BF9D100BF00BF1437BD4680BC704708
:10281C0098000020D34D621080B582B000AF786074
:10282C007B68002B01D1012341E07B6893F83D309C
:10283C00DBB2002B06D17B68002283F83C20786841
:10284C00FEF74EFE7B68022283F83D207B681A68F7
:10285C007B6804331946104600F048F97B68012266
:10286C0083F846207B68012283F83E207B68012296
:10287C0083F83F207B68012283F840207B6801228B
:10288C0083F841207B68012283F842207B68012277
:10289C0083F843207B68012283F844207B68012263
:1028AC0083F845207B68012283F83D2000231846DD
:1028BC000837BD4680BD000080B485B000AF78609D
:1028CC007B6893F83D30DBB2012B01D001233AE059
:1028DC007B68022283F83D207B681B68DA687B6882
:1028EC001B6842F00102DA607B681B68184A93424D
:1028FC000ED07B681B68B3F1804F09D07B681B68D6
:10290C00144A934204D07B681B68134A934211D13A
:10291C007B681B689B6803F00703FB60FB68062B56
:10292C0010D07B681B681A687B681B6842F0010238
:10293C001A6007E07B681B681A687B681B6842F0AA
:10294C0001021A60002318461437BD4680BC70473C
:10295C00002C0140000400400008004080B584B009
:10296C0000AF786039600023FB737B6893F83C30D0
:10297C00012B01D10223B4E07B68012283F83C20B7
:10298C007B68022283F83D207B681B689B68BB60D8
:10299C00BB6823F07703BB60BB6823F47F43BB6049
:1029AC007B681B68BA689A603B681B68B3F5005F6C
:1029BC003ED0B3F5005F00F28780B3F5805F00F086
:1029CC008680B3F5805F7FD8702B1AD0702B7BD8A4
:1029DC00602B50D0602B77D8502B3CD0502B73D819
:1029EC00402B58D0402B6FD8302B64D0302B6BD869
:1029FC00202B60D0202B67D8002B5CD0102B5AD00A
:102A0C0062E07B6818683B6899683B685A683B6869
:102A1C00DB6800F050F97B681B689B68BB60BB6887
:102A2C0043F07703BB607B681B68BA689A604FE021
:102A3C007B6818683B6899683B685A683B68DB6838
:102A4C0000F039F97B681B689A687B681B6842F454
:102A5C0080429A603CE07B6818683B6859683B6828
:102A6C00DB681A4600F0B0F87B681B6850211846EA
:102A7C0000F007F92CE07B6818683B6859683B68E4
:102A8C00DB681A4600F0CEF87B681B68602118469C
:102A9C0000F0F7F81CE07B6818683B6859683B68E5
:102AAC00DB681A4600F090F87B681B6840211846DA
:102ABC0000F0E7F80CE07B681A683B681B68194665
:102ACC00104600F0DEF803E00123FB7300E000BFCA
:102ADC007B68012283F83D207B68002283F83C2030
:102AEC00FB7B18461037BD4680BD000080B485B016
:102AFC0000AF786039607B681B68FB607B682F4A8D
:102B0C0093420BD07B68B3F1804F07D07B682C4A83
:102B1C00934203D07B682B4A934208D1FB6823F085
:102B2C007003FB603B685B68FA681343FB607B686F
:102B3C00224A93420BD07B68B3F1804F07D07B685D
:102B4C001F4A934203D07B681E4A934208D1FB680C
:102B5C0023F44073FB603B68DB68FA681343FB604B
:102B6C00FB6823F080023B685B691343FB607B6866
:102B7C00FA681A603B689A687B68DA623B681A6884
:102B8C007B689A627B680D4A934203D13B681A6951
:102B9C007B681A637B6801225A617B681B6903F0AE
:102BAC000103002B05D07B681B6923F001027B68B5
:102BBC001A6100BF1437BD4680BC7047002C014021
:102BCC00000400400008004080B487B000AFF860FB
:102BDC00B9607A60FB681B6A7B61FB681B6A23F037
:102BEC000102FB681A62FB689B693B613B6923F03D
:102BFC00F0033B617B681B013A6913433B617B69C2
:102C0C0023F00A037B617A69BB6813437B61FB6821
:102C1C003A699A61FB687A691A6200BF1C37BD4633
:102C2C0080BC704780B487B000AFF860B9607A6040
:102C3C00FB681B6A7B61FB681B6A23F01002FB6854
:102C4C001A62FB689B693B613B6923F470433B61EF
:102C5C007B681B033A6913433B617B6923F0A00338
:102C6C007B61BB681B017A6913437B61FB683A6922
:102C7C009A61FB687A691A6200BF1C37BD4680BC3A
:102C8C00704780B485B000AF786039607B689B6812
:102C9C00FB60FB6823F07003FB603A68FB6813432E
:102CAC0043F00703FB607B68FA689A6000BF143737
:102CBC00BD4680BC704780B487B000AFF860B96087
:102CCC007A603B60FB689B687B617B6923F47F4384
:102CDC007B613B681A027B681A43BB6813437A69B1
:102CEC0013437B61FB687A699A6000BF1C37BD4651
:102CFC0080BC704780B485B000AF786039607B6869
:102D0C0093F83C30012B01D1022346E07B68012271
:102D1C0083F83C207B68022283F83D207B681B688B
:102D2C005B68FB607B681B689B68BB60FB6823F07F
:102D3C007003FB603B681B68FA681343FB607B689D
:102D4C001B68FA685A607B681B68164A93420ED05F
:102D5C007B681B68B3F1804F09D07B681B68124AF3
:102D6C00934204D07B681B68104A93420CD1BB6819
:102D7C0023F08003BB603B685B68BA681343BB609D
:102D8C007B681B68BA689A607B68012283F83D20D7
:102D9C007B68002283F83C20002318461437BD467C
:102DAC0080BC7047002C014000040040000800402B
:102DBC0080B582B000AF78607B68002B01D1012315
:102DCC0042E07B6893F84130DBB2002B06D17B6884
:102DDC00002283F840207868FEF79EFB7B68242253
:102DEC0083F841207B681B68DA687B681B6822F4D7
:102DFC000052DA60786800F071F97B681B681A6918
:102E0C007B681B6822F490421A617B681B685A69C4
:102E1C007B681B6822F02A025A617B681B68DA689F
:102E2C007B681B6842F40052DA607B6800225A64AB
:102E3C007B68202283F841207B68202283F8422083
:102E4C007B6800225A63002318460837BD4680BDB4
:102E5C0080B58AB002AFF860B9603B601346FB8066
:102E6C0000237B61FB6893F84130DBB2202B75D1DA
:102E7C00BB68002B02D0FB88002B01D101236EE034
:102E8C00FB6800225A64FB68212283F84120FEF77C
:102E9C006BFC7861FB68FA889A84FB68FA88DA84A0
:102EAC00FB689B68B3F5805F08D1FB681B69002B3E
:102EBC0004D10023FB61BB68BB6103E0BB68FB6111
:102ECC000023BB612EE03B6800937B6900228021CC
:102EDC00F86800F048F80346002B05D0FB68202268
:102EEC0083F8412003233AE0FB69002B0BD1BB692B
:102EFC001B881A46FB681B68C2F308025A60BB6940
:102F0C000233BB6107E0FB691A78FB681B685A60E7
:102F1C00FB690133FB61FB68DB8C9BB2013B9AB212
:102F2C00FB68DA84FB68DB8C9BB2002BCBD13B6853
:102F3C0000937B6900224021F86800F014F80346E6
:102F4C00002B05D0FB68202283F84120032306E0E8
:102F5C00FB68202283F84120002300E0022318465E
:102F6C002037BD4680BD80B586B000AFF860B96033
:102F7C003B601346FB713BE03B6AB3F1FF3F37D03C
:102F8C00FEF7F2FB02463B68D31A3A6A9A4202D326
:102F9C003B6A002B01D103233AE0FB681B68DB681A
:102FAC0003F00403002B23D0BB68802B20D0BB681C
:102FBC00402B1DD0FB681B681B6803F00803082B13
:102FCC0016D100237B61FB681B681B687B61FB6867
:102FDC001B685B687B617B69F86800F01DF8FB6817
:102FEC0008225A64FB68002283F8402001230FE07A
:102FFC00FB681B681A68BB681340BA689A420CBF1E
:10300C0001230023DBB21A46FB799A42B4D0002389
:10301C0018461837BD4680BD80B495B000AF7860B7
:10302C007B681B680C337B637B6B53E8003F3B6313
:10303C003B6B23F49073FB647B681B680C33FA6C5A
:10304C003A64FB63F96B3A6C41E80023BB63BB6BDE
:10305C00002BE5D17B681B6814333B623B6A53E859
:10306C00003FFB61FB6923F00103BB647B681B68B9
:10307C001433BA6CFA62BB62B96AFA6A41E800238B
:10308C007B627B6A002BE5D17B681B6B012B19D112
:10309C007B681B680C33FB60FB6853E8003FBB602C
:1030AC00BB6823F010037B647B681B680C337A6C61
:1030BC00BA617B617969BA6941E800233B613B697C
:1030CC00002BE5D17B68202283F842207B6800220C
:1030DC001A6300BF5437BD4680BC704780B584B0BE
:1030EC0000AF78607B681B681B6923F440517B68D8
:1030FC00DA687B681B680A431A617B689A687B688C
:10310C001B691A437B685B691343BB607B681B6854
:10311C00DB6823F4B05323F00C037A681268B968A7
:10312C000B43D3607B681B685B6923F440717B683D
:10313C009A697B681B680A435A617B681B682C4A36
:10314C00934203D1FFF736FBF86002E0FFF71EFB5A
:10315C00F860FA6813469B0013449A001A447B6883
:10316C005B689B00B2FBF3F3224AA2FB03235B09CF
:10317C001901FA6813469B0013449A001A447B68A1
:10318C005B689B00B2FBF3F21A4BA3FB02035B09D7
:10319C00642000FB03F3D31A1B013233154AA2FB44
:1031AC0003235B0903F0F0031944FA6813469B00F0
:1031BC0013449A001A447B685B689B00B2FBF3F2E1
:1031CC000C4BA3FB02035B09642000FB03F3D31A33
:1031DC001B013233074AA2FB03235B0903F00F02E6
:1031EC007B681B680A449A6000BF1037BD4680BDDF
:1031FC00003801401F85EB51014B1868704700BF28
:10320C00A400002070B500260C4D0D4C641BA410BE
:10321C00A64209D100F064FC00260A4D0A4C641B3E
:10322C00A410A64205D170BD55F8043B9847013651
:10323C00EEE755F8043B98470136F2E7283C0008C6
:10324C00283C0008283C00082C3C0008024B014696
:10325C00186800F057B800BFA400002003460244D1
:10326C00934200D1704703F8011BF9E738B50546C6
:10327C00002943D051F8043C0C1F002BB8BFE418B4
:10328C0000F0CAF81E4A1368104633B96360146024
:10329C002846BDE8384000F0C5B8A3420AD92168D9
:1032AC006218934201BF1A685B685218226063600F
:1032BC000460EDE71A465B680BB1A342FAD91168BA
:1032CC005018A0420BD12068014450188342116061
:1032DC00DED118685B68014411605360D8E702D9ED
:1032EC000C232B60D4E7206821188B4201BF19688E
:1032FC005B680918216063605460C9E738BD00BF82
:10330C0058010020F8B5CD1C25F0030508350C2D0F
:10331C0038BF0C25002D064601DBA94203D90C232E
:10332C0033600020F8BD00F077F821490A68144694
:10333C009CB9204F3B6823B92146304600F03CF83D
:10334C0038602946304600F037F8431C23D10C2353
:10335C003046336000F066F8E3E723685B1B17D454
:10336C000B2B03D923601C44256004E06368A24244
:10337C000CBF0B605360304600F054F804F10B00A6
:10338C00231D20F00700C21ACCD01B1AA350C9E78A
:10339C0022466468CCE7C41C24F00304A042E3D0AA
:1033AC00211A304600F008F80130DDD1CFE700BF1C
:1033BC00580100205C01002038B50023054D04465F
:1033CC0008462B60FEF716F9431C02D12B6803B19B
:1033DC00236038BD800200200EB46FF0004100B5B0
:1033EC009CB01DAB029006900791049108480949C6
:1033FC0053F8042B0591006802A9019300F074F8AE
:10340C000022029B1A701CB05DF804EB03B07047ED
:10341C00A40000200802FFFF014800F0FBBA00BF27
:10342C0088020020014800F0F6BA00BF8802002094
:10343C002DE9F0478E6882469E420C4690461F4608
:10344C0038D88A8912F4906F32D025680969013313
:10345C00A5EB010965694B4405EB450505EBD575F5
:10346C006D109D4238BF1D46530531D52946FFF7D7
:10347C0049FF064650B90C234FF0FF30CAF8003014
:10348C00A38943F04003A381BDE8F0874A46216934
:10349C0000F0D0FAA38923F4906343F08003A38156
:1034AC0026614E4426603E466561A5EB0905A56084
:1034BC00BE4200D93E4632464146206800F0C8FA6A
:1034CC00A36822689B1B32440020A3602260DBE7C8
:1034DC002A4600F0D7FA06460028E1D15046216969
:1034EC00FFF7C4FEC7E700002DE9F04F98468B8923
:1034FC0007461B060D4614469DB00ED50B6963B9E5
:10350C004021FFF7FFFE2860286120B90C233B60A7
:10351C004FF0FF30D1E040236B610023099320234F
:10352C008DF8293030234FF00109CDF80C80DFF8ED
:10353C00A4818DF82A3023469A4613F8012B0AB140
:10354C00252AF9D1BAEB040B0BD05B46224629464F
:10355C003846FFF76DFF013000F0AA80099A5A44F3
:10356C0009929AF80030002B00F0A28000234FF053
:10357C00FF32CDE905230AF1010A049307938DF874
:10358C0053301A935446052214F8011B514800F08D
:10359C0043FA049AD8B9D00644BF20238DF853308F
:1035AC00110744BF2B238DF853309AF800302A2B87
:1035BC0015D0544600204FF00A0C079A214611F8FA
:1035CC00013B303B092B4ED9B0B1079214E0A0EB74
:1035DC00080309FA03F31343A2460493D2E7039BAF
:1035EC00191D1B680391002BBBBF5B4242F002020A
:1035FC0007930793B8BF049223782E2B0CD16378D2
:10360C002A2B35D1039B02341A1D1B680392002B05
:10361C00B8BF4FF0FF330593DFF8C8A00322504624
:10362C00217800F0F9F940B14023A0EB0A0003FA2D
:10363C0000F0049B01340343049314F8011B06228D
:10364C0025488DF8281000F0E7F9002838D0234BD6
:10365C001BBB039B073323F0070308330393099B1E
:10366C003344099367E70C4601200CFB0232A5E7B3
:10367C0000234FF00A0C194601340593204610F82C
:10368C00012B303A092A03D9002BC5D00591C3E789
:10369C00044601230CFB0121F0E703AB00932A46FF
:1036AC0038460F4B04A9AFF30080421C0646D6D116
:1036BC00AB895B063FF52CAF09981DB0BDE8F08FC8
:1036CC0003AB00932A463846054B04A900F07CF85E
:1036DC00EBE700BFF23B0008FC3B000800000000D9
:1036EC003D340008F83B00082DE9F0471646994692
:1036FC008A680B6907469342B8BF1346336091F84A
:10370C0043200C46DDF820800AB101333360236876
:10371C00990642BF336802333360256815F00605FD
:10372C0006D104F1190AE36832689B1AAB4228DC13
:10373C0094F84320131E226818BF012392062DD43F
:10374C004946384604F14302C047013020D0236873
:10375C00E56803F00603042B18BF002532684FF010
:10376C000006A36808BFAD1A226908BF25EAE575F3
:10377C009342C4BF9B1AED181A34B5421AD10020DB
:10378C0008E00123524649463846C047013003D170
:10379C004FF0FF30BDE8F0870135C4E73020E11869
:1037AC0081F843005A1C94F845102244023382F8E5
:1037BC004310C5E70123224649463846C04701302D
:1037CC00E6D00136D9E700002DE9FF470C46277EED
:1037DC009146782F80469A460C9904F1430207D8FB
:1037EC00622F0AD8002F00F0D980582F00F0A48047
:1037FC0004F1420684F842703AE0A7F16303152BFA
:10380C00F6D801A050F823F06D3800088138000874
:10381C00FD370008FD370008FD370008FD370008AC
:10382C0081380008FD370008FD370008FD37000817
:10383C00FD3700088F390008B138000871390008CD
:10384C00FD370008FD370008B1390008FD370008C6
:10385C00B1380008FD370008FD3700087939000839
:10386C000B6804F142061A1D1B680A6084F842308A
:10387C000123A4E0256808682E0600F104030AD58C
:10388C0005680B60002D03DA2D236D4284F843305C
:10389C000A235E4819E015F0400F05680B6018BF4D
:1038AC002DB2EFE70B682568181D0860280601D5B6
:1038BC001D6802E06906FBD51D886F2F0CBF08231D
:1038CC000A235248002184F843106668002EA8BFD2
:1038DC002168A660A4BF21F0040121600DB9002E5F
:1038EC004DD01646B5FBF3F103FB1157C75D06F837
:1038FC00017D2F46BB420D46F4D9082B0BD1236812
:10390C00DF0708D5236961689942DEBF302306F8CA
:10391C00013C06F1FF36921B22614B462146404684
:10392C00CDF800A003AAFFF7DFFE01304CD14FF019
:10393C00FF3004B0BDE8F087344884F845700E6859
:10394C00236856F8045B1F060E6014D5D90744BFD4
:10395C0043F0200323601DB9236823F02003236068
:10396C001023AFE7236843F0200323607823284813
:10397C0084F84530E3E75E0648BFADB2E6E716468D
:10398C00BBE70B6826681D1D60690D6035061B685A
:10399C0001D5186002E07106FBD51880002316468D
:1039AC002361BAE70B681A1D0A601E6800213046B5
:1039BC00626800F031F808B1801B606063682361B5
:1039CC00002384F84330A8E7324649464046236931
:1039DC00D0470130ABD023689B0713D4E068039B1E
:1039EC009842B8BF1846A4E70123324649464046E0
:1039FC00D04701309BD00135E36803995B1AAB4289
:103A0C00F2DCEBE7002504F11906F5E7033C0008AE
:103A1C00143C000870477047034610B5C9B2024405
:103A2C009342184601D1002003E0047801338C4204
:103A3C00F6D110BD0A44914200F1FF3300D170471A
:103A4C0010B511F8014B914203F8014FF9D110BD9B
:103A5C00884210B501EB020402D98442234607D8F0
:103A6C00431EA14208D011F8012B03F8012FF8E7EF
:103A7C00014602448A4200D110BD13F8014D02F8F0
:103A8C00014DF7E7F8B5074614460E4621B9114625
:103A9C00BDE8F840FFF736BC22B9FFF7E7FB254637
:103AAC002846F8BD00F014F8A0420FD22146384643
:103ABC00FFF728FC05460028F2D031462246FFF7D6
:103ACC00B9FF31463846FFF7D1FBE9E73546E7E762
:103ADC0051F8043C181F002BBCBF0B58C018704782
:103AEC00F8B500BFF8BC08BC9E467047F8B500BFDF
:083AFC00F8BC08BC9E467047AF
:103B04002154494D455220524544203A2564230D01
:103B14000A0000002154494D455220414D4245526E
:103B2400203A2564230D0A002154494D455220476B
:103B34005245454E203A2564230D0A002153574926
:103B440054434820544F204D414E55414C204D4F35
:103B54004445230D0A00000021535749544348208B
:103B6400544F204155544F204D4F4445230D0A00D6
:103B74002153574954434820544F2054554E494EDD
:103B840047204D4F4445230D0A0000002154494D60
:103B94004552204552524F52230D0A000A213753F1
:103BA400454720574159313A2564230D0A00000046
:103BB400213753454720574159323A2564230D0A8A
:103BC40000000000000000000000000001020304E7
:103BD40006070809000000000102030402030405AB
:103BE400060708090A0B0C0D0E0F10100102232DF5
:103BF400302B2000686C4C006566674546470030F2
:103C0400313233343536373839414243444546003E
:103C1400303132333435363738396162636465663E
:043C2400000000009C
:043C2800310100085E
:043C2C000D0100087E
:103C30000A0000000A000000050000000200000069
:103C40000300000005000000020000000300000067
:103C50000100000001000000010000000100000060
:103C60000000000000000000000000000000000054
:103C70000000000000000000000000000000000044
:103C80000000000000000000000000000000000034
:103C90000000000000000000000000000000000024
:103CA00000000000000C0140000C0140000C01402D
:103CB0000001000200040000E8030000FA00000018
:103CC000000000000000000000127A001000000058
:103CD00001000000A800002000000000000000001B
:103CE00000000000000000000000000000000000D4
:103CF00000000000000000000000000000000000C4
:103D000000000000000000000000000000000000B3
:103D100000000000000000000000000000000000A3
:103D20000000000000000000000000000000000093
:083D300000000000000000008B
:040000050800167960
:00000001FF
