:020000040800F2
:1000000000500020991B0008AD1A0008B31A000820
:10001000B91A0008BF1A0008C51A0008000000003D
:10002000000000000000000000000000CB1A0008E3
:10003000D71A000800000000E31A0008EF1A0008B1
:10004000E11B0008E11B0008E11B0008E11B0008A0
:10005000E11B0008E11B0008E11B0008E11B000890
:10006000E11B0008E11B0008E11B0008E11B000880
:10007000E11B0008E11B0008E11B0008E11B000870
:10008000E11B0008E11B0008E11B0008E11B000860
:10009000E11B0008E11B0008E11B0008E11B000850
:1000A000E11B0008E11B0008E11B0008E11B000840
:1000B000FD1A0008E11B0008E11B0008E11B000815
:1000C000E11B0008E11B0008E11B0008E11B000820
:1000D000E11B0008E11B0008E11B0008E11B000810
:1000E000111B0008E11B0008E11B000800000000D4
:1000F0000000000000000000000000000000000000
:0C01000000000000000000005FF808F1A3
:10010C0010B5054C237833B9044B13B10448AFF345
:10011C0000800123237010BDCC00002000000000E3
:10012C00B849000808B5034B1BB103490348AFF3AA
:10013C00008008BD00000000D0000020B849000875
:10014C0080B584B000AFF860B9607A60074AFB688C
:10015C001360074ABB681360064A7B68136000F0A3
:10016C0013FE00BF1037BD4680BD00BF4C00002001
:10017C00140100201801002080B5A0B000AFBD4BC9
:10018C001B680A2B00F2718101A252F823F000BF08
:10019C0077040008E30100088B0200083103000813
:1001AC00D7030008770400087704000877040008D8
:1001BC007704000877040008C9010008AE4B1B68DF
:1001CC00AE4A126819460120FFF7BAFF322101200E
:1001DC0001F03AFB67E100F009FD00F055FDA84B7A
:1001EC005B68012B39D1A74B1B68002B30DB00F06F
:1001FC0076FF0A2001F052FDA34B1B6807F170003B
:10020C00A24A102104F01AF80021012000F06EFF20
:10021C0007F17003184600F04DFF9A4B1B6807F16D
:10022C0060009B4A102104F009F80021022000F024
:10023C005DFF07F16003184600F03CFF914B1B6813
:10024C00013B904A1360904B1B68013B8E4A136034
:10025C004FF47A71012001F0F7FA8A4B1B68002BDE
:10026C0080F20581884B1B6801338A4A1268194653
:10027C000220FFF765FF824B01229A60F7E000F045
:10028C00B5FC00F0EFFC7E4B9B68012B39D17D4B0C
:10029C001B68002B35DB00F022FF0A2001F0FEFC6E
:1002AC00794B1B6807F15000784A102103F0C6FF08
:1002BC000021012000F01AFF07F15003184600F04E
:1002CC00F9FE704B1B6807F14000734A102103F0D4
:1002DC00B5FF0021022000F009FF07F1400318468A
:1002EC0000F0E8FE674B1B68013B664A1360664BE7
:1002FC001B68013B644A13604FF47A71022001F0D1
:10030C00A3FA604B1B68002B80F2C8805B4B1B6808
:10031C00594A126819460320FFF712FF584B012265
:10032C00DA60BBE000F080FC00F090FC544BDB6822
:10033C00012B39D1534B1B68002B35DB00F0CFFE62
:10034C000A2001F0ABFC504B1B6807F13000504AFF
:10035C00102103F073FF0021012000F0C7FE07F10C
:10036C003003184600F0A6FE464B1B6807F1200030
:10037C00464A102103F062FF0021022000F0B6FE75
:10038C0007F12003184600F095FE3E4B1B68013B1D
:10039C003C4A13603C4B1B68013B3B4A13604FF4D7
:1003AC007A71032001F050FA374B1B68002B77DA77
:1003BC00384B1968334B1B6801331A460420FFF77E
:1003CC00BFFE2F4B01221A616AE000F01BFC00F00B
:1003DC003DFC2B4B1B69012B37D12A4B1B68002B87
:1003EC0033DB00F07CFE0A2001F058FC264B1B6826
:1003FC0007F11000284A102103F020FF00210120F2
:10040C0000F074FE07F11003184600F053FE1D4B6C
:10041C001B6838461D4A102103F010FF00210220F2
:10042C0000F064FE3B46184600F044FE154B1B687A
:10043C00013B144A1360144B1B68013B124A1360B6
:10044C004FF47A71042001F0FFF90F4B1B68002B5D
:10045C0028DA094B1B68094A126819460120FFF774
:10046C006FFE074B01225A601CE000BF1BE000BF6F
:10047C0019E000BF4C000020500000205800002064
:10048C00440200201801002014010020D04900086B
:10049C00D849000854000020E449000800BF02E0DD
:1004AC0000BF00E000BF00BF8037BD4680BD00BF6D
:1004BC0080B584B000AF786001F0E6FBF8600A4AC2
:1004CC007B6852F82330FA68D31AC82B06D9064930
:1004DC007B68FA6841F82320012300E000231846CA
:1004EC001037BD4680BD00BFE800002080B500AFCE
:1004FC001D4B1B68012B0ED11C4B1B681A461C494B
:10050C001C4803F0CFFE03469AB24FF4FA73194914
:10051C00194803F0CFFB144B1B68022B0ED1174B61
:10052C001B681A461649134803F0BCFE03469AB2E0
:10053C004FF4FA730F49104803F0BCFB0A4B1B68CD
:10054C00032B0ED10F4B1B681A460F49094803F0B9
:10055C00A9FE03469AB24FF4FA730649064803F013
:10056C00A9FB00BF80BD00BF10010020500000207F
:10057C00F0490008700100202801002054000020E0
:10058C00044A000858000020184A000880B584B0BE
:10059C0000AF094B1B683846084A102103F04EFE89
:1005AC000021012000F0A2FD3B46184600F082FD20
:1005BC0000BF1037BD4680BD500000202C4A0008FB
:1005CC0080B584B000AF094B1B683846084A10212F
:1005DC0003F034FE0021012000F088FD3B46184654
:1005EC0000F068FD00BF1037BD4680BD58000020EC
:1005FC00384A000880B584B000AF094B1B683846F8
:10060C00084A102103F01AFE0021012000F06EFDB3
:10061C003B46184600F04EFD00BF1037BD4680BD6E
:10062C0054000020484A000880B500AFCC4B1B6832
:10063C000A2B00F2EC8101A252F823F01B0A0008ED
:10064C008D060008D1080008AF0700081B0A000837
:10065C001B0A00081B0A00081B0A00081B0A0008DA
:10066C001B0A000875060008BD4B01221A6000F039
:10067C008BFBFFF73BFF0521052001F0E5F8CDE1F1
:10068C0000F014FB022000F085FB0346002B1ED06B
:10069C000220FFF70DFF0346002B18D000F01FFDC2
:1006AC000A2001F0FBFAAF4B1B685A1CAE4B83FBC4
:1006BC0002135911D317CB1A642101FB03F3D31A7C
:1006CC00A84A1360FFF712FFFFF760FF68E00220F3
:1006DC0000F07AFB0346002B1FD00220FFF7E8FE48
:1006EC000346002B19D000F0FAFC0A2001F0D6FAD0
:1006FC009C4B1B6803F163029B4B83FB0213591148
:10070C00D317CB1A642101FB03F3D31A954A136058
:10071C00FFF7ECFEFFF73AFF42E0012000F03AFB56
:10072C000346002B13D00120FFF7C2FE0346002B1B
:10073C000DD08B4B03221A6000F026FBFFF7D6FE80
:10074C000521062001F080F8FFF73AFF28E0002091
:10075C0000F020FB0346002B00F05B810020FFF72C
:10076C00A7FE0346002B00F05481804B1B687D4A8A
:10077C0013607F4B1B687F4A13607F4B1B687F4A5B
:10078C001360FFF7B3FE00F0AAFC0A2001F086FA12
:10079C00FFF7FCFE724B01221A6000F0F5FA38E10B
:1007AC0037E100F0C9FA022000F0F4FA0346002BFE
:1007BC001ED00220FFF77CFE0346002B18D000F061
:1007CC008EFC0A2001F06AFA6C4B1B685A1C664BB3
:1007DC0083FB02135911D317CB1A642101FB03F3CA
:1007EC00D31A664A1360FFF781FEFFF7E9FE68E053
:1007FC00022000F0E9FA0346002B1FD00220FFF77D
:10080C0057FE0346002B19D000F069FC0A2001F0BA
:10081C0045FA5A4B1B6803F16302534B83FB0213DB
:10082C005911D317CB1A642101FB03F3D31A534A82
:10083C001360FFF75BFEFFF7C3FE42E0012000F000
:10084C00A9FA0346002B13D00120FFF731FE034613
:10085C00002B0DD0424B02221A6000F095FAFFF7E4
:10086C0045FE0521072000F0EFFFFFF7C3FE28E04F
:10087C00002000F08FFA0346002B00F0CC80002003
:10088C00FFF716FE0346002B00F0C580374B1B68A4
:10089C00344A1360364B1B68364A1360364B1B6860
:1008AC00364A1360FFF722FE00F019FC0A2001F013
:1008BC00F5F9FFF785FE2A4B03221A6000F064FA63
:1008CC00A9E0A8E000F010FA022000F063FA034659
:1008DC00002B1ED00220FFF7EBFD0346002B18D097
:1008EC0000F0FDFB0A2001F0D9F9224B1B685A1CC1
:1008FC001D4B83FB02135911D317CB1A642101FB37
:10090C0003F3D31A1B4A1360FFF7F0FDFFF772FED7
:10091C007CE0022000F058FA0346002B30D0022075
:10092C00FFF7C6FD0346002B2AD000F0D8FB0A20A7
:10093C0001F0B4F90F4B1B6803F163020A4B83FB04
:10094C0002135911D317CB1A642101FB03F3D31AE9
:10095C00084A1360FFF7CAFDFFF74CFE56E000BFD4
:10096C0010010020500000201F85EB5100000020DA
:10097C000400002054000020080000205800002033
:10098C00012000F007FA0346002B18D00120FFF7D6
:10099C008FFD0346002B12D0214B01221A6000F070
:1009AC00F3F9FFF7A3FD0521052000F04DFF00F042
:1009BC0096FB322001F072F9FFF7E8FD26E00020EB
:1009CC0000F0E8F90346002B27D00020FFF770FD5C
:1009DC000346002B21D0134B1B68134A1360134B97
:1009EC001B68134A1360134B1B68134A1360FFF701
:1009FC007DFD00F074FB0A2001F050F9FFF7FAFDC1
:100A0C00074B02221A6000F0BFF906E005E000BFB8
:100A1C0004E000BF02E000BF00E000BF00BF80BDEB
:100A2C0010010020000000205000002004000020D5
:100A3C0054000020080000205800002080B500AFB2
:100A4C00012000F0C1F90346002B37D01C4B1B686A
:100A5C00032B1FD000F043FB0A2001F01FF9FFF716
:100A6C0095FD174B03221A601649174803F01AFC20
:100A7C0003469AB24FF4FA731349144803F01AF967
:100A8C00134B0A221A60134B00221A60124B0022DD
:100A9C001A6013E000F023FB0A2001F0FFF8084B6A
:100AAC000A221A600D49084803F0FCFB03469AB26F
:100ABC004FF4FA730449054803F0FCF800BF80BDFD
:100ACC0048000020584A000870010020280100202E
:100ADC00100100204C0000200C010020744A00087A
:100AEC0080B500AF2B4B1B680A2B06D00A2B4EDCB3
:100AFC00012B46D0032B47D049E0274B1A68274BD4
:100B0C001B681A44264B1B689A422BD0214B04229B
:100B1C001A602449244803F0C5FB03469AB24FF4EB
:100B2C00FA732149214803F0C5F800F0D8FA0A20DD
:100B3C0001F0B4F80021012000F0D8FA1C4800F0B4
:100B4C00B9FA0021022000F0D1FA1A4800F0B2FAEA
:100B5C00194B00221A60194B00221A60184B002204
:100B6C001A600BE00B4B01221A60134B0A221A601D
:100B7C00124B00221A60124B00221A6000F022F86D
:100B8C0006E0FFF7F9FA03E0FFF74EFD00E000BFC7
:100B9C0000BF80BD480000205400002058000020F9
:100BAC00500000208C4A0008700100202801002011
:100BBC009C4A0008AC4A00084C0000200C010020A4
:100BCC001001002080B500AF00224FF4826105486F
:100BDC0001F031FB00224FF44071034801F02BFB74
:100BEC0000BF80BD000C01400008014080B500AF83
:100BFC0001224FF48261024801F01DFB00BF80BD51
:100C0C00000C014080B500AF00221021054801F016
:100C1C0012FB01224FF48061024801F00CFB00BF73
:100C2C0080BD00BF000C014080B500AF00224FF426
:100C3C008061054801F0FFFA01221021024801F001
:100C4C00FAFA00BF80BD00BF000C014080B500AFB8
:100C5C0001224FF44071024801F0EDFA00BF80BD53
:100C6C000008014080B500AF00224FF480710548A8
:100C7C0001F0E1FA01224FF40071024801F0DBFAB5
:100C8C0000BF80BD0008014080B500AF00224FF4CA
:100C9C000071054801F0CFFA01224FF4807102482F
:100CAC0001F0C9FA00BF80BD0008014080B500AF5B
:100CBC000A4B5B69012B0ED14FF44071084801F0CF
:100CCC00D2FA4FF48261074801F0CDFA4FF4FA7171
:100CDC00052000F0B9FD00BF80BD00BF440200201C
:100CEC0000080140000C014080B500AF0F4BDB69E0
:100CFC00012B19D1002210210D4801F09CFA4FF460
:100D0C0080610B4801F0AFFA00224FF48071094862
:100D1C0001F091FA4FF40071064801F0A4FA4FF477
:100D2C00FA71072000F090FD00BF80BD4402002046
:100D3C00000C01400008014080B500AF0F4B9B69CF
:100D4C00012B19D100224FF480610D4801F073FA88
:100D5C0010210B4801F087FA00224FF4007109486A
:100D6C0001F069FA4FF48071064801F07CFA4FF4F7
:100D7C00FA71062000F068FD00BF80BD440200201F
:100D8C00000C01400008014080B500AFFFF71AFFCE
:100D9C0000BF80BD80B483B000AF7860094A7B6827
:100DAC0052F82330012B06D1064A7B68002142F809
:100DBC002310012300E0002318460C37BD4680BCED
:100DCC00704700BF0001002080B483B000AF786092
:100DDC00094A7B6852F82330012B06D1064A7B68FE
:100DEC00002142F82310012300E0002318460C37A1
:100DFC00BD4680BC704700BFF400002080B483B0B7
:100E0C0000AF78607B68022B08D07B68022B08DC73
:100E1C007B68002B04D07B68012B02E000BF00E054
:100E2C0000BF054A7B68012142F8231000BF0C3734
:100E3C00BD4680BC704700BF0001002080B582B069
:100E4C0000AF4C4B1B684C4A13604C4B1B68494A17
:100E5C001360484B5B68484A5360484B5B68454A93
:100E6C005360444B9B68444A9360444B9B68414A93
:100E7C0093604021424801F0C7F903461A463F4BA4
:100E8C001A6080213F4801F0BFF903461A463B4BDC
:100E9C005A6020213A4801F0B7F903461A46374BFD
:100EAC009A6000237B605DE0324A7B6852F8232015
:100EBC0032497B6851F823309A4250D12D4A7B68D5
:100ECC0052F823202C497B6851F823309A4246D1A2
:100EDC00294A7B6852F823202B497B6851F8233030
:100EEC009A4217D0244A7B6852F8232026497B6803
:100EFC0041F82320244A7B6852F82330002B2ED152
:100F0C00224A7B684FF47A7142F823107868FFF715
:100F1C0075FF24E01D4A7B6852F823305A1E1B498A
:100F2C007B6841F82320194A7B6852F82330002B48
:100F3C0015D1164A7B684FF47A7142F82310124A85
:100F4C007B6852F82330002B09D1114A7B680121B0
:100F5C0042F823100F4A7B68002142F823107B686B
:100F6C0001337B607B68022B9EDD00BF00BF08371E
:100F7C00BD4680BD18000020240000200C0000207D
:100F8C00000C014000100140300000203C0000200B
:100F9C00F40000200001002080B586B002AF0346AB
:100FAC00FB71FB7923F00F03FB73FB791B01BB7304
:100FBC00FB7B43F00C03DBB23B72FB7B43F008037F
:100FCC00DBB27B72BB7B43F00C03DBB2BB72BB7B33
:100FDC0043F00803DBB2FB7207F1080264230093B1
:100FEC0004234221034801F0BDFA00BF1037BD466F
:100FFC0080BD00BFA401002080B586B002AF0346BF
:10100C00FB71FB7923F00F03FB73FB791B01BB73A3
:10101C00FB7B43F00D03DBB23B72FB7B43F009031C
:10102C00DBB27B72BB7B43F00D03DBB2BB72BB7BD1
:10103C0043F00903DBB2FB7207F10802642300934F
:10104C0004234221034801F08DFA00BF1037BD463E
:10105C0080BD00BFA401002080B500AF3320FFF796
:10106C009BFF3220FFF798FF322000F017FE28205C
:10107C00FFF792FF322000F011FE0120FFF78CFFEA
:10108C00322000F00BFE0620FFF786FF322000F026
:10109C0005FE0C20FFF780FF322000F0FFFD022040
:1010AC00FFF77AFF322000F0F9FD8020FFF774FF84
:1010BC0000BF80BD80B582B000AF786006E07B6871
:1010CC005A1C7A601B781846FFF796FF7B681B78D2
:1010DC00002BF4D100BF00BF0837BD4680BD80B5E2
:1010EC0000AF0120FFF758FF00BF80BD80B584B072
:1010FC0000AF786039607B68012B08D17B68DAB26D
:10110C003B68DBB21344DBB27F33FB7308E03B6814
:10111C00DBB24033DBB25BB263F07F035BB2FB73D9
:10112C00FB7B1846FFF738FF00BF1037BD4680BD6C
:10113C0080B500AF00F050FD00F038F800F01CF95D
:10114C0000F0F0F800F074F800F0A0F8144802F089
:10115C00BFF9FFF781FFFFF7C2FF322000F09EFDC1
:10116C0000F0EAF9012232210E4800F0FFF90122C9
:10117C0032210D4800F0FAF9FEF7FEFF034601227A
:10118C003221184600F0F2F9FFF74EFA034601221D
:10119C003221184600F0EAF900F028FBFCE700BF0A
:1011AC00F8010020ED0A0008490A000880B590B04B
:1011BC0000AF07F1180328220021184602F080FF27
:1011CC003B1D00221A605A609A60DA601A61022391
:1011DC00BB610123BB621023FB6202237B630023F0
:1011EC00BB634FF46013FB6307F11803184601F05F
:1011FC0011FD0346002B01D000F06FF90F237B602B
:10120C000223BB600023FB604FF480633B6100232F
:10121C007B613B1D0221184601F07CFF0346002B2D
:10122C0001D000F05AF900BF4037BD4680BD000028
:10123C0080B500AF124B134A1A60114B124A5A6018
:10124C000F4B00229A600E4B0022DA600C4B4FF4CD
:10125C0080421A610A4B00225A61094B00229A61A2
:10126C00074B0022DA61064B00221A62044801F097
:10127C0035F80346002B01D000F02FF900BF80BDDC
:10128C00A401002000540040A086010080B586B067
:10129C0000AF07F1080300221A605A609A60DA6006
:1012AC003B4600221A605A601D4B4FF080421A6078
:1012BC001B4B41F63F725A60194B00229A60184B37
:1012CC000922DA60164B00221A61154B00229A6132
:1012DC00134802F0ADF80346002B01D000F0FDF8E6
:1012EC004FF48053BB6007F1080319460C4802F019
:1012FC0031FA0346002B01D000F0EFF800233B60DD
:10130C0000237B603B461946054802F013FC03465C
:10131C00002B01D000F0E1F800BF1837BD4680BDAE
:10132C00F801002080B500AF114B124A1A60104B27
:10133C004FF416525A600E4B00229A600C4B00224E
:10134C00DA600B4B00221A61094B0C225A61084BD4
:10135C0000229A61064B0022DA61054802F05AFC21
:10136C000346002B01D000F0B8F800BF80BD00BFD1
:10137C00280100200044004080B588B000AF07F180
:10138C00100300221A605A609A60DA60454B9B6920
:10139C00444A43F010039361424B9B6903F01003E2
:1013AC00FB60FB683F4B9B693E4A43F02003936113
:1013BC003C4B9B6903F02003BB60BB68394B9B69BA
:1013CC00384A43F004039361364B9B6903F00403E2
:1013DC007B607B68334B9B69324A43F00803936113
:1013EC00304B9B6903F008033B603B68002240F2E2
:1013FC00F2312D4800F01FFF00224FF482612B4880
:10140C0000F019FF4FF400533B61294B7B61002323
:10141C00BB6107F110031946264800F071FD40F23C
:10142C00F2333B6101237B610023BB610223FB612F
:10143C0007F1100319461C4800F062FD4FF482635B
:10144C003B6101237B610023BB610223FB6107F13C
:10145C0010031946154800F053FD80233B6100230F
:10146C007B610123BB6107F110031946114800F0A1
:10147C0047FD60233B6100237B610123BB6107F1C6
:10148C0010031946094800F03BFD002200212820DA
:10149C0000F0FFFC282000F018FD00BF2037BD46EF
:1014AC0080BD00BF0010024000080140000C01404C
:1014BC00000011100010014080B582B000AF7860C0
:1014CC007B681B68B3F1804F01D100F0D5F9FFF7B1
:1014DC00B5FC00BF0837BD4680BD80B400AF72B606
:1014EC0000BFFEE780B586B000AFF860B9607A60E7
:1014FC003B60102002F0DCFD03467B617B69BA681F
:10150C001A607B697A685A607B693A689A60FB68F2
:10151C00002B03D0FB681B68002B03D17B697A6915
:10152C00DA6004E0FB681B68DA687B69DA607B6967
:10153C0018461837BD4680BD80B500AF0C2002F0B0
:10154C00B7FD03461A46084B1A60074B1B6800226E
:10155C001A60054B1B6800225A60034B1B68002263
:10156C009A6000BF80BD00BF4002002090B58BB0D8
:10157C0000AFF860B9607A606E4B1B681B68002B7B
:10158C000FD16C4B1C687B68BA68F9680020FFF7B8
:10159C00A9FF03462360674B1B685A6801325A60E7
:1015AC00C4E0644B1B681B687B6100237B620023D7
:1015BC00BB6100233B62B1E07B69DB685B687A6AE4
:1015CC0013447B627A6ABB689A4265D97B69DB6893
:1015DC005A687B6AD31ABA681344BB617B69DB68AF
:1015EC00796ABA688A1A5A60524B1B689B68002B3E
:1015FC000FD17C6907F114007B68BA69F968FFF7B1
:10160C0071FF0346E3604B4B1B685A6801325A600A
:10161C008CE0484B1B681B68FA681A60454B1B68CA
:10162C001B68BA695A60434B1B681B687A689A60DE
:10163C007B69DB68FB6102E0FB69DB68FB61FB69D2
:10164C00DA683C4B1B681B689A42F5D1394B1B6816
:10165C001A687B699A4204D1364B1B68FA691A6086
:10166C0014E0344B1B681B68DA68FB69DA607A6932
:10167C00304B1B681B68D268DA602E4B1A687B698A
:10168C001268DA602B4B1B68FA691A60294B1B68CD
:10169C009A68013A9A6049E07B69DB681B68002B09
:1016AC0013D17B69DB68FA681A607B69DB68B968FF
:1016BC007A6A8A1A5A607B69DB687A689A601D4B71
:1016CC001B689A68013A9A6030E07B69DA68194BBA
:1016DC001B681B689A421BD1164B1B681846BA68CC
:1016EC007B6AD21A134B1B681C687B68F968FFF77E
:1016FC00F9FE0346E3600F4B1B681A680D4B1B6821
:10170C00D2681A600B4B1B685A6801325A600DE0A4
:10171C007B69DB687B613B6A01333B62054B1B6871
:10172C005B683A6A9A42FFF647AFFFE700BF2C3777
:10173C00BD4690BD4002002080B485B000AF7860FB
:10174C007B681B68DB68FB60274B1B681B68FA68AF
:10175C009A4208D0FB68DB685968FB685A68FB68DA
:10176C00DB680A445A60FB6800221A60FB6800229E
:10177C005A60FB6800229A607B681A681A4B1B68D7
:10178C001B689A4207D1184B1B681A68164B1B68CA
:10179C00D2681A601EE0FB68DB681B68002B19D04E
:1017AC00114B1B681B68FA689A4213D07B681B6844
:1017BC00FA68D268DA600C4B1B681B68DA68FB6845
:1017CC00DA60094B1B681B68FA68DA60064B1B6809
:1017DC00FA681A60044B1B689A6801329A6000BF61
:1017EC001437BD4680BC70474002002090B585B0D0
:1017FC0000AF1BE0134B1B681B68DB681B6898472A
:10180C00104B1B681B68DB683C460FCB84E80F0051
:10181C000C4B1B681846FFF78FFFBB68002B05D0DD
:10182C003B68B968BA681846FFF7A0FE054B1B6801
:10183C001B68DB685B68002BDCD000BF00BF143773
:10184C00BD4690BD4002002080B483B000AF7860EC
:10185C00396007497B683A6841F82320054A7B6860
:10186C00002142F8231000BF0C37BD4680BC7047E6
:10187C006C0200204402002080B483B000AF00232F
:10188C007B601CE0124A7B6852F82330002B08DD89
:10189C000F4A7B6852F823305A1E0D497B6841F879
:1018AC0023200B4A7B6852F82330002B04DC094AB6
:1018BC007B68012142F823107B6801337B607B68D5
:1018CC00092BDFDD00BF00BF0C37BD4680BC704765
:1018DC006C0200204402002080B485B000AF154B90
:1018EC009B69144A43F001039361124B9B6903F00B
:1018FC000103BB60BB680F4BDB690E4A43F080539E
:10190C00D3610C4BDB6903F080537B607B680A4B23
:10191C005B68FB60FB6823F0E063FB60FB6843F0F3
:10192C000073FB60044AFB68536000BF1437BD466C
:10193C0080BC7047001002400000014080B58AB0A6
:10194C0000AF786007F1140300221A605A609A60A5
:10195C00DA607B681B681D4A934232D11C4B9B6931
:10196C001B4A43F008039361194B9B6903F008036E
:10197C003B613B694FF440737B611223BB610323D2
:10198C003B6207F114031946124800F0B9FA124BE6
:10199C005B687B627B6A43F0E0637B627B6A43F04B
:1019AC0002037B620C4A7B6A5360094BDB69084A71
:1019BC0043F40013D361064BDB6903F40013FB60A3
:1019CC00FB6800BF2837BD4680BD00BF00540040F7
:1019DC0000100240000C01400000014080B584B0B2
:1019EC0000AF78607B681B68B3F1804F13D10C4B50
:1019FC00DB690B4A43F00103D361094BDB6903F04C
:101A0C000103FB60FB68002200211C2000F041FA5E
:101A1C001C2000F05AFA00BF1037BD4680BD00BF35
:101A2C000010024080B588B000AF786007F1100359
:101A3C0000221A605A609A60DA607B681B68154A4B
:101A4C00934223D1144BDB69134A43F40033D36123
:101A5C00114BDB6903F40033FB60FB680E4B9B6995
:101A6C000D4A43F0040393610B4B9B6903F0040391
:101A7C00BB60BB680C233B6102237B610223FB61CF
:101A8C0007F110031946054800F03AFA00BF203759
:101A9C00BD4680BD004400400010024000080140DB
:101AAC0080B400AFFEE780B400AFFEE780B400AFB7
:101ABC00FEE780B400AFFEE780B400AFFEE780B471
:101ACC0000AF00BFBD4680BC704780B400AF00BF04
:101ADC00BD4680BC704780B400AF00BFBD4680BC23
:101AEC00704780B500AF00F0BDF800BF80BD0000AE
:101AFC0080B500AF024801F03DFD00BF80BD00BFC6
:101B0C00F801002080B500AF4FF4005000F0C4FB8A
:101B1C0000BF80BD80B586B000AF7860144A154B0D
:101B2C00D31A7B617B693B61134B1B68002B02D181
:101B3C00114B124A1A60104B1A687B6813443A69AD
:101B4C009A4207D202F08AFA03460C221A604FF02E
:101B5C00FF3309E0084B1B68FB60074B1A687B6876
:101B6C001344054A1360FB6818461837BD4680BD00
:101B7C0000500020000400001C010020A8020020DE
:101B8C0080B400AF00BFBD4680BC7047FFF7F8FFC4
:101B9C000B480C490C4A002302E0D458C4500433BF
:101BAC00C4188C42F9D3094A094C002301E0136094
:101BBC000432A242FBD302F057FAFFF7B9FA70478E
:101BCC0000000020CC000020204B0008CC0000209E
:101BDC00A8020020FEE7000080B500AF084B1B6890
:101BEC00074A43F010031360032000F047F900206C
:101BFC0000F008F8FFF770FE0023184680BD00BF08
:101C0C000020024080B582B000AF7860124B1A6899
:101C1C00124B1B7819464FF47A73B3FBF1F3B2FBFA
:101C2C00F3F3184600F05FF90346002B01D00123B3
:101C3C000EE07B680F2B0AD8002279684FF0FF303A
:101C4C0000F027F9064A7B681360002300E00123AB
:101C5C0018460837BD4680BD5C000020640000209B
:101C6C006000002080B400AF054B1B781A46054B72
:101C7C001B681344034A136000BFBD4680BC704709
:101C8C00640000209402002080B400AF024B1B685B
:101C9C001846BD4680BC70479402002080B584B0C5
:101CAC0000AF7860FFF7F0FFB8607B68FB60FB6803
:101CBC00B3F1FF3F05D00A4B1B781A46FB6813445F
:101CCC00FB6000BFFFF7E0FF0246BB68D31AFA685F
:101CDC009A42F7D800BF00BF1037BD4680BD00BF89
:101CEC006400002080B485B000AF78607B6803F09E
:101CFC000703FB600C4BDB68BB60BA684FF6FF0355
:101D0C001340BB60FB681A02BB68134343F0BF630C
:101D1C0043F40033BB60044ABB68D36000BF143784
:101D2C00BD4680BC704700BF00ED00E080B400AF42
:101D3C00044BDB681B0A03F007031846BD4680BC46
:101D4C00704700BF00ED00E080B483B000AF0346E5
:101D5C00FB7197F90730002B0BDBFB7903F01F02AB
:101D6C00064997F907305B09012000FA02F241F8A5
:101D7C00232000BF0C37BD4680BC704700E100E05B
:101D8C0080B483B000AF03463960FB7197F907301C
:101D9C00002B0ADB3B68DAB20C4997F907301201C9
:101DAC00D2B20B4483F800230AE03B68DAB208494C
:101DBC00FB7903F00F03043B1201D2B20B441A76E9
:101DCC0000BF0C37BD4680BC704700BF00E100E08F
:101DDC0000ED00E080B489B000AFF860B9607A60C3
:101DEC00FB6803F00703FB61FB69C3F10703042BDA
:101DFC0028BF0423BB61FB690433062B02D9FB69A2
:101E0C00033B00E000237B614FF0FF32BB6902FA19
:101E1C0003F3DA43BB681A407B699A404FF0FF31F9
:101E2C007B6901FA03F3D9437B680B4013431846D3
:101E3C002437BD4680BC704780B582B000AF786057
:101E4C007B68013BB3F1807F01D301230FE00A4A89
:101E5C007B68013B53600F214FF0FF30FFF790FF81
:101E6C00054B00229A60044B07221A600023184687
:101E7C000837BD4680BD00BF10E000E080B582B0E1
:101E8C0000AF78607868FFF72DFF00BF0837BD46BC
:101E9C0080BD80B586B000AF0346B9607A60FB7335
:101EAC0000237B61FFF742FF78617A68B968786933
:101EBC00FFF790FF024697F90F3011461846FFF7CF
:101ECC005FFF00BF1837BD4680BD80B582B000AF44
:101EDC000346FB7197F907301846FFF735FF00BF33
:101EEC000837BD4680BD80B582B000AF7860786899
:101EFC00FFF7A2FF034618460837BD4680BD000019
:101F0C0080B48BB000AF7860396000237B62002313
:101F1C003B6269E101227B6A02FA03F3FB613B68D5
:101F2C001B68FA691340BB61BA69FB699A4240F0BD
:101F3C0058813B685B689A4A93425ED0984A9342B8
:101F4C0075D8984A934258D0964A93426FD8964A7D
:101F5C00934252D0944A934269D8944A93424CD0BB
:101F6C00924A934263D8924A934246D0904A934203
:101F7C005DD8122B2AD8122B59D801A252F823F073
:101F8C0007200008E11F0008F31F00083520000897
:101F9C003B2000083B2000083B2000083B200008A9
:101FAC003B2000083B2000083B2000083B20000899
:101FBC003B2000083B2000083B2000083B20000889
:101FCC003B200008E91F0008FD1F0008794A9342D6
:101FDC0013D02CE03B68DB683B6229E03B68DB6894
:101FEC0004333B6224E03B68DB6808333B621FE050
:101FFC003B68DB680C333B621AE03B689B68002B48
:10200C0002D104233B6213E03B689B68012B05D192
:10201C0008233B627B68FA691A6109E008233B627A
:10202C007B68FA695A6103E000233B6200E000BF61
:10203C00BB69FF2B01D87B6801E07B6804337B61B3
:10204C00BB69FF2B02D87B6A9B0002E07B6A083BD2
:10205C009B003B617B691A680F213B6901FA03F312
:10206C00DB431A40396A3B6901FA03F31A437B6973
:10207C001A603B685B6803F08053002B00F0B18062
:10208C004D4B9B694C4A43F0010393614A4B9B694E
:10209C0003F00103BB60BB68484A7B6A9B080233B0
:1020AC0052F82330FB607B6A03F003039B000F2282
:1020BC0002FA03F3DB43FA681340FB607B68404A87
:1020CC00934213D07B683F4A93420DD07B683E4AC3
:1020DC00934207D07B683D4A934201D1032306E02B
:1020EC00042304E0022302E0012300E000237A6AC7
:1020FC0002F0030292009340FA681343FB602F49ED
:10210C007B6A9B080233FA6841F823203B685B68C2
:10211C0003F48013002B06D02D4B9A682C49BB6915
:10212C0013438B6006E02A4B9A68BB69DB43284952
:10213C0013408B603B685B6803F40013002B06D0E4
:10214C00234BDA682249BB691343CB6006E0204B72
:10215C00DA68BB69DB431E491340CB603B685B68A4
:10216C0003F40033002B06D0194B5A681849BB698D
:10217C0013434B6006E0164B5A68BB69DB431449AA
:10218C0013404B603B685B6803F48033002B21D019
:10219C000F4B1A680E49BB6913430B6021E000BF5B
:1021AC00000032100000311000002210000021103D
:1021BC00000012100000111000100240000001403D
:1021CC0000080140000C01400010014000140140C7
:1021DC00000401400B4B1A68BB69DB4309491340EF
:1021EC000B607B6A01337B623B681A687B6A22FA5C
:1021FC0003F3002B7FF48EAE00BF00BF2C37BD461F
:10220C0080BC70470004014080B485B000AF78609A
:10221C000B467B807B689A687B881340002B02D02E
:10222C000123FB7301E00023FB73FB7B184614377F
:10223C00BD4680BC704780B483B000AF78600B465D
:10224C007B8013467B707B78002B03D07A887B686D
:10225C001A6103E07B881A047B681A6100BF0C3793
:10226C00BD4680BC704780B485B000AF78600B462B
:10227C007B807B68DB68FB607A88FB6813401A0400
:10228C00FB68D9437B880B401A437B681A6100BFFB
:10229C001437BD4680BC704780B582B000AF034692
:1022AC00FB80084B5A69FB881340002B06D0054A6B
:1022BC00FB885361FB88184600F006F800BF08370E
:1022CC00BD4680BD0004014080B483B000AF03461E
:1022DC00FB8000BF0C37BD4680BC704780B584B016
:1022EC0000AF78607B68002B01D101232BE17B6868
:1022FC0093F83D30DBB2002B06D17B68002283F8CB
:10230C003C207868FFF71AFB7B68242283F83D2079
:10231C007B681B681A687B681B6822F001021A60D4
:10232C007B681B681A687B681B6842F400421A6061
:10233C007B681B681A687B681B6822F400421A6071
:10234C0001F030F8F8607B685B68814A934207D8EB
:10235C00FB68804A934294BF01230023DBB206E062
:10236C00FB687D4A934294BF01230023DBB2002B10
:10237C0001D00123E7E0FB68784AA2FB03239B0C06
:10238C00BB607B681B685B6823F03F017B681B6844
:10239C00BA680A435A607B681B681B6A23F03F01CA
:1023AC007B685B686A4A934202D8BB68013309E0D8
:1023BC00BB684FF4967202FB03F3694AA2FB03233A
:1023CC009B0901337A6812680B4313627B681B68A4
:1023DC00DB6923F44F4222F0FF027B685B685C49A7
:1023EC008B4219D8FB68591E7B685B685B00B1FB9C
:1023FC00F3F3591C40F6FC730B40002B0AD0FB681E
:10240C00591E7B685B685B00B1FBF3F30133C3F3CC
:10241C000B0351E004234FE07B689B68002B11D128
:10242C00FB68581E7B6859680B465B000B44B0FB7D
:10243C00F3F30133C3F30B03002B0CBF0123002375
:10244C00DBB212E0FB68581E7B6859680B469B0098
:10245C000B4499000B44B0FBF3F30133C3F30B03B0
:10246C00002B0CBF01230023DBB2002B01D0012376
:10247C0022E07B689B68002B0ED1FB68581E7B68A2
:10248C0059680B465B000B44B0FBF3F30133C3F309
:10249C000B0343F400430FE0FB68581E7B6859683C
:1024AC000B469B000B4499000B44B0FBF3F3013338
:1024BC00C3F30B0343F44043796809681343CB61BE
:1024CC007B681B681B6823F0C0017B68DA697B683A
:1024DC001B6A1A437B681B680A431A607B681B687B
:1024EC009B6823F4034323F0FF037A6811697A682D
:1024FC00D26811437A6812680B4393607B681B683F
:10250C00DB6823F0FF017B685A697B689B691A437F
:10251C007B681B680A43DA607B681B681A687B68F7
:10252C001B6842F001021A607B6800221A647B6807
:10253C00202283F83D207B6800221A637B680022EE
:10254C0083F83E20002318461037BD4680BD00BFDF
:10255C00A08601007F841E00FF083D0083DE1B4324
:10256C00D34D621080B588B002AFF8607A601A461D
:10257C000B467B8113463B81FFF786FB7861FB683A
:10258C0093F83D30DBB2202B40F0E0807B69009368
:10259C00192301227049F86800F064F90346002BF6
:1025AC0001D00223D3E0FB6893F83C30012B01D11E
:1025BC000223CCE0FB68012283F83C20FB681B68FB
:1025CC001B6803F00103012B07D0FB681B681A681A
:1025DC00FB681B6842F001021A60FB681B681A68F2
:1025EC00FB681B6822F400621A60FB68212283F8E6
:1025FC003D20FB68102283F83E20FB6800221A6401
:10260C00FB687A685A62FB683A895A85FB685B8D6D
:10261C009AB2FB681A85FB68504ADA6279897B6941
:10262C003A6AF86800F09CF80346002B01D00123AD
:10263C008DE000233B61FB681B685B693B61FB68B9
:10264C001B689B693B613B6966E07A69396AF8688B
:10265C0000F022FA0346002B0DD0FB681B6C042BF8
:10266C0007D1FB681B681A68FB681B6842F4007290
:10267C001A6001236BE0FB685B6A1A78FB681B68C5
:10268C001A61FB685B6A5A1CFB685A62FB685B8DBB
:10269C009BB2013B9AB2FB685A85FB681B8D013BD0
:1026AC009AB2FB681A85FB681B685B6903F004032C
:1026BC00042B1BD1FB681B8D002B17D0FB685B6AAE
:1026CC001A78FB681B681A61FB685B6A5A1CFB680A
:1026DC005A62FB685B8D9BB2013B9AB2FB685A85D0
:1026EC00FB681B8D013B9AB2FB681A857A69396AC3
:1026FC00F86800F019FA0346002B0DD0FB681B6C30
:10270C00042B07D1FB681B681A68FB681B6842F432
:10271C0000721A6001231AE0FB681B8D002B94D108
:10272C00FB681B681A68FB681B6842F400721A602D
:10273C00FB68202283F83D20FB68002283F83E20B2
:10274C00FB68002283F83C20002300E0022318469B
:10275C001837BD4680BD00BF020010000000FFFF0F
:10276C0080B588B002AFF8607A603B600B467B8125
:10277C00FB68DB6A7B617B69082B06D07B69012BCC
:10278C0003D07B6913F5803F08D1FB681B681A687E
:10279C00FB681B6842F480721A600BE0FB681B6BD1
:1027AC00122B07D1FB681B681A68FB681B6842F484
:1027BC0080721A603B6800937B6800224FF0011115
:1027CC00F86800F04FF80346002B0DD0FB681B682F
:1027DC001B6803F48073B3F5807F03D1FB684FF45F
:1027EC0000721A64032335E0FB681B69B3F5804F54
:1027FC0008D17B89DBB21A46FB681B6802F0FE022B
:10280C001A611BE07B89DB11DBB203F00603DBB240
:10281C0063F00F03DAB2FB681B681A613B687A68D5
:10282C000E49F86800F098F80346002B01D00123FC
:10283C0010E07B89DAB2FB681B681A613B687A6826
:10284C000749F86800F088F80346002B01D00123F3
:10285C0000E0002318461837BD4680BD0800010073
:10286C000200010080B584B000AFF860B9603B6035
:10287C001346FB7148E03B68B3F1FF3F44D0FFF7D0
:10288C0003FA0246BB69D31A3A689A4202D33B68F0
:10289C00002B39D1BB681B0CDBB2012B0DD1FB68B3
:1028AC001B685B69DA43BB6813409BB2002B0CBFFF
:1028BC0001230023DBB21A460CE0FB681B689B6902
:1028CC00DA43BB6813409BB2002B0CBF01230023DF
:1028DC00DBB21A46FB799A4216D1FB6800221A63C6
:1028EC00FB68202283F83D20FB68002283F83E2001
:1028FC00FB681B6C43F02002FB681A64FB68002227
:10290C0083F83C20012323E0BB681B0CDBB2012BBA
:10291C000DD1FB681B685B69DA43BB6813409BB243
:10292C00002B0CBF01230023DBB21A460CE0FB6822
:10293C001B689B69DA43BB6813409BB2002B0CBF2E
:10294C0001230023DBB21A46FB799A4293D0002371
:10295C0018461037BD4680BD80B584B000AFF86016
:10296C00B9607A603B6071E0FB681B685B6903F4DB
:10297C008063B3F5806F23D1FB681B681A68FB6812
:10298C001B6842F400721A60FB681B686FF480626B
:10299C005A61FB6800221A63FB68202283F83D20F1
:1029AC00FB68002283F83E20FB681B6C43F004029A
:1029BC00FB681A64FB68002283F83C20012367E063
:1029CC007B68B3F1FF3F41D0FFF75EF902463B68ED
:1029DC00D31A7A689A4202D37B68002B36D1BB6833
:1029EC001B0CDBB2012B0CD1FB681B685B69DA4357
:1029FC00BB6813409BB2002B14BF01230023DBB236
:102A0C000BE0FB681B689B69DA43BB6813409BB205
:102A1C00002B14BF01230023DBB2002B16D0FB6864
:102A2C0000221A63FB68202283F83D20FB680022F9
:102A3C0083F83E20FB681B6C43F02002FB681A6491
:102A4C00FB68002283F83C20012321E0BB681B0CAF
:102A5C00DBB2012B0CD1FB681B685B69DA43BB68EA
:102A6C0013409BB2002B14BF01230023DBB20BE0FD
:102A7C00FB681B689B69DA43BB6813409BB2002B55
:102A8C0014BF01230023DBB2002B7FF46DAF0023B6
:102A9C0018461037BD4680BD80B584B000AFF860D5
:102AAC00B9607A6034E0F86800F086F80346002BD1
:102ABC0001D0012334E0BB68B3F1FF3F28D0FFF70E
:102ACC00E3F802467B68D31ABA689A4202D3BB6811
:102ADC00002B1DD1FB681B685B6903F08003802B06
:102AEC0016D0FB6800221A63FB68202283F83D2075
:102AFC00FB68002283F83E20FB681B6C43F020022D
:102B0C00FB681A64FB68002283F83C20012307E071
:102B1C00FB681B685B6903F08003802BC3D1002327
:102B2C0018461037BD4680BD80B584B000AFF86044
:102B3C00B9607A6034E0F86800F03EF80346002B88
:102B4C0001D0012334E0BB68B3F1FF3F28D0FFF77D
:102B5C009BF802467B68D31ABA689A4202D3BB68C8
:102B6C00002B1DD1FB681B685B6903F00403042B6D
:102B7C0016D0FB6800221A63FB68202283F83D20E4
:102B8C00FB68002283F83E20FB681B6C43F020029C
:102B9C00FB681A64FB68002283F83C20012307E0E1
:102BAC00FB681B685B6903F00403042BC3D100238F
:102BBC0018461037BD4680BD80B483B000AF786036
:102BCC007B681B685B6903F48063B3F5806F1BD172
:102BDC007B681B686FF480625A617B6800221A6301
:102BEC007B68202283F83D207B68002283F83E20FE
:102BFC007B681B6C43F004027B681A647B680022C0
:102C0C0083F83C20012300E0002318460C37BD4616
:102C1C0080BC704780B586B000AF78607B68002BB5
:102C2C0001D101236CE27B681B6803F00103002BCC
:102C3C0000F08780924B5B6803F00C03042B0CD0E4
:102C4C008F4B5B6803F00C03082B12D18C4B5B6829
:102C5C0003F48033B3F5803F0BD1894B1B6803F42D
:102C6C000033002B6CD07B685B68002B68D1012390
:102C7C0046E27B685B68B3F5803F06D1804B1B68EE
:102C8C007F4A43F4803313602EE07B685B68002B33
:102C9C000CD17B4B1B687A4A23F480331360784B3E
:102CAC001B68774A23F4802313601DE07B685B6804
:102CBC00B3F5A02F0CD1724B1B68714A43F48023DF
:102CCC0013606F4B1B686E4A43F4803313600BE048
:102CDC006B4B1B686A4A23F480331360684B1B6888
:102CEC00674A23F4802313607B685B68002B13D046
:102CFC00FEF7CAFF386108E0FEF7C6FF02463B69E3
:102D0C00D31A642B01D90323FAE15D4B1B6803F43E
:102D1C000033002BF0D014E0FEF7B6FF386108E06A
:102D2C00FEF7B2FF02463B69D31A642B01D9032389
:102D3C00E6E1534B1B6803F40033002BF0D100E0A9
:102D4C0000BF7B681B6803F00203002B63D04C4B65
:102D5C005B6803F00C03002B0BD0494B5B6803F052
:102D6C000C03082B1CD1464B5B6803F48033002BFF
:102D7C0016D1434B1B6803F00203002B05D07B6874
:102D8C001B69012B01D00123BAE13D4B1B6823F0D9
:102D9C00F8027B685B69DB00394913430B603AE04E
:102DAC007B681B69002B20D0364B01221A60FEF782
:102DBC006BFF386108E0FEF767FF02463B69D31AE8
:102DCC00022B01D903239BE12D4B1B6803F002035B
:102DDC00002BF0D02A4B1B6823F0F8027B685B6950
:102DEC00DB00274913430B6015E0264B00221A60C9
:102DFC00FEF74AFF386108E0FEF746FF02463B69E2
:102E0C00D31A022B01D903237AE11D4B1B6803F063
:102E1C000203002BF0D17B681B6803F00803002B26
:102E2C003AD07B689B69002B19D0174B01221A6092
:102E3C00FEF72AFF386108E0FEF726FF02463B69E1
:102E4C00D31A022B01D903235AE10D4B5B6A03F011
:102E5C000203002BF0D0012000F0CCFA1CE00A4B4E
:102E6C0000221A60FEF710FF38610FE0FEF70CFF2E
:102E7C0002463B69D31A022B08D9032340E100BF59
:102E8C000010024000004242800442429E4B5B6AAA
:102E9C0003F00203002BE9D17B681B6803F00403E9
:102EAC00002B00F0A6800023FB75974BDB6903F029
:102EBC008053002B0DD1944BDB69934A43F0805324
:102ECC00D361914BDB6903F08053BB60BB6801237A
:102EDC00FB758E4B1B6803F48073002B18D18B4B46
:102EEC001B688A4A43F480731360FEF7CDFE386189
:102EFC0008E0FEF7C9FE02463B69D31A642B01D9E0
:102F0C000323FDE0814B1B6803F48073002BF0D08E
:102F1C007B68DB68012B06D17B4B1B6A7A4A43F03A
:102F2C00010313622DE07B68DB68002B0CD1764B20
:102F3C001B6A754A23F001031362734B1B6A724AB6
:102F4C0023F0040313621CE07B68DB68052B0CD1B7
:102F5C006D4B1B6A6C4A43F0040313626A4B1B6A89
:102F6C00694A43F0010313620BE0674B1B6A664A24
:102F7C0023F001031362644B1B6A634A23F00403BE
:102F8C0013627B68DB68002B15D0FEF77DFE386181
:102F9C000AE0FEF779FE02463B69D31A41F2883209
:102FAC00934201D90323ABE0574B1B6A03F0020396
:102FBC00002BEED014E0FEF767FE38610AE0FEF756
:102FCC0063FE02463B69D31A41F28832934201D91F
:102FDC00032395E04C4B1B6A03F00203002BEED14C
:102FEC00FB7D012B05D1484BDB69474A23F080530D
:102FFC00D3617B68DB69002B00F08180424B5B68FE
:10300C0003F00C03082B61D07B68DB69022B46D1E3
:10301C003F4B00221A60FEF737FE386108E0FEF7DE
:10302C0033FE02463B69D31A022B01D9032367E016
:10303C00354B1B6803F00073002BF0D17B681B6AC7
:10304C00B3F5803F08D1304B5B6823F400327B68CA
:10305C009B682D4913434B602B4B5B6823F4741214
:10306C007B68196A7B685B6A0B43274913434B6087
:10307C00274B01221A60FEF707FE386108E0FEF7C5
:10308C0003FE02463B69D31A022B01D9032337E016
:10309C001D4B1B6803F00073002BF0D02FE01C4B72
:1030AC0000221A60FEF7F0FD386108E0FEF7ECFD37
:1030BC0002463B69D31A022B01D9032320E0124BA1
:1030CC001B6803F00073002BF0D118E07B68DB6900
:1030DC00012B01D1012313E00B4B5B68FB60FB68F8
:1030EC0003F480327B681B6A9A4206D1FB6803F4B6
:1030FC0070127B685B6A9A4201D0012300E00023C6
:10310C0018461837BD4680BD0010024000700040C4
:10311C006000424280B584B000AF786039607B6853
:10312C00002B01D10123D0E06A4B1B6803F007038D
:10313C003A689A4210D9674B1B6823F0070265491D
:10314C003B6813430B60634B1B6803F007033A683F
:10315C009A4201D00123B8E07B681B6803F002039C
:10316C00002B20D07B681B6803F00403002B05D0D8
:10317C00594B5B68584A43F4E06353607B681B68A7
:10318C0003F00803002B05D0534B5B68524A43F401
:10319C0060535360504B5B6823F0F0027B689B6874
:1031AC004D4913434B607B681B6803F00103002BF4
:1031BC0040D07B685B68012B07D1474B1B6803F43D
:1031CC000033002B15D101237FE07B685B68022B59
:1031DC0007D1414B1B6803F00073002B09D101236D
:1031EC0073E03D4B1B6803F00203002B01D101235C
:1031FC006BE0394B5B6823F003027B685B683649F4
:10320C0013434B60FEF740FDF8600AE0FEF73CFD0F
:10321C000246FB68D31A41F28832934201D9032348
:10322C0053E02D4B5B6803F00C027B685B689B00E2
:10323C009A42EBD1274B1B6803F007033A689A427A
:10324C0010D2244B1B6823F0070222493B6813431E
:10325C000B60204B1B6803F007033A689A4201D0BD
:10326C00012332E07B681B6803F00403002B08D0B9
:10327C00194B5B6823F4E0627B68DB6816491343E7
:10328C004B607B681B6803F00803002B09D0124BC2
:10329C005B6823F460527B681B69DB000E491343A7
:1032AC004B6000F021F802460B4B5B681B0903F0E6
:1032BC000F030A49CB5C22FA03F3094A1360094B4A
:1032CC001B681846FEF79EFC002318461037BD46B7
:1032DC0080BD00BF0020024000100240B84A000828
:1032EC005C0000206000002080B487B000AF002399
:1032FC00FB600023BB6000237B6100237B60002309
:10330C003B611E4B5B68FB60FB6803F00C03042BFA
:10331C0002D0082B03D027E0194B3B6127E0FB6858
:10332C009B0C03F00F03174AD35C7B60FB6803F420
:10333C008033002B10D0114B5B685B0C03F0010346
:10334C00114AD35CBB607B680D4A02FB03F2BB687D
:10335C00B2FBF3F37B6104E07B680C4A02FB03F3E2
:10336C007B617B693B6102E0054B3B6100BF3B69C4
:10337C0018461C37BD4680BC704700BF0010024089
:10338C0000127A00D04A0008E04A000800093D000B
:10339C0080B400AF024B1B681846BD4680BC70471A
:1033AC005C00002080B500AFFFF7F2FF0246054B32
:1033BC005B681B0A03F007030349CB5C22FA03F397
:1033CC00184680BD00100240C84A000880B500AF06
:1033DC00FFF7DEFF0246054B5B68DB0A03F00703D1
:1033EC000349CB5C22FA03F3184680BD001002405F
:1033FC00C84A000880B485B000AF78600A4B1B68DF
:10340C000A4AA2FB03235B0A7A6802FB03F3FB6004
:10341C0000BFFB685A1EFA60002BF9D100BF00BF39
:10342C001437BD4680BC70475C000020D34D621041
:10343C0080B582B000AF78607B68002B01D101238E
:10344C0041E07B6893F83D30DBB2002B06D17B6802
:10345C00002283F83C207868FEF7C0FA7B680222D1
:10346C0083F83D207B681A687B6804331946104644
:10347C0000F05CFA7B68012283F846207B6801220D
:10348C0083F83E207B68012283F83F207B68012271
:10349C0083F840207B68012283F841207B6801225D
:1034AC0083F842207B68012283F843207B68012249
:1034BC0083F844207B68012283F845207B68012235
:1034CC0083F83D20002318460837BD4680BD000018
:1034DC0080B485B000AF78607B6893F83D30DBB288
:1034EC00012B01D001233AE07B68022283F83D20B6
:1034FC007B681B68DA687B681B6842F00102DA6043
:10350C007B681B68184A93420ED07B681B68B3F12A
:10351C00804F09D07B681B68144A934204D07B68A7
:10352C001B68134A934211D17B681B689B6803F09C
:10353C000703FB60FB68062B10D07B681B681A68BE
:10354C007B681B6842F001021A6007E07B681B680D
:10355C001A687B681B6842F001021A600023184647
:10356C001437BD4680BC7047002C0140000400405D
:10357C000008004080B584B000AF78607B681B68A1
:10358C00DB68FB607B681B681B69BB60BB6803F076
:10359C000203002B20D0FB6803F00203002B1BD08E
:1035AC007B681B686FF002021A617B6801221A7734
:1035BC007B681B689B6903F00303002B03D07868BE
:1035CC0000F098F905E0786800F08BF9786800F065
:1035DC009AF97B6800221A77BB6803F00403002B6E
:1035EC0020D0FB6803F00403002B1BD07B681B6806
:1035FC006FF004021A617B6802221A777B681B68E1
:10360C009B6903F44073002B03D0786800F072F9C7
:10361C0005E0786800F065F9786800F074F97B686B
:10362C0000221A77BB6803F00803002B20D0FB683C
:10363C0003F00803002B1BD07B681B686FF008029B
:10364C001A617B6804221A777B681B68DB6903F0BC
:10365C000303002B03D0786800F04CF905E0786880
:10366C0000F03FF9786800F04EF97B6800221A7779
:10367C00BB6803F01003002B20D0FB6803F0100391
:10368C00002B1BD07B681B686FF010021A617B68E3
:10369C0008221A777B681B68DB6903F44073002BE4
:1036AC0003D0786800F026F905E0786800F019F985
:1036BC00786800F028F97B6800221A77BB6803F061
:1036CC000103002B0CD0FB6803F00103002B07D087
:1036DC007B681B686FF001021A617868FDF7ECFEDD
:1036EC00BB6803F08003002B0CD0FB6803F0800355
:1036FC00002B07D07B681B686FF080021A6178681A
:10370C0000F07FFABB6803F04003002B0CD0FB6881
:10371C0003F04003002B07D07B681B686FF040025E
:10372C001A61786800F0F8F8BB6803F02003002BEE
:10373C000CD0FB6803F02003002B07D07B681B68C0
:10374C006FF020021A61786800F052FA00BF10374F
:10375C00BD4680BD80B584B000AF78603960002371
:10376C00FB737B6893F83C30012B01D10223B4E04E
:10377C007B68012283F83C207B68022283F83D2081
:10378C007B681B689B68BB60BB6823F07703BB60DE
:10379C00BB6823F47F43BB607B681B68BA689A6084
:1037AC003B681B68B3F5005F3ED0B3F5005F00F2D9
:1037BC008780B3F5805F00F08680B3F5805F7FD89B
:1037CC00702B1AD0702B7BD8602B50D0602B77D8F5
:1037DC00502B3CD0502B73D8402B58D0402B6FD84B
:1037EC00302B64D0302B6BD8202B60D0202B67D89B
:1037FC00002B5CD0102B5AD062E07B6818683B68B9
:10380C0099683B685A683B68DB6800F074F97B6820
:10381C001B689B68BB60BB6843F07703BB607B682D
:10382C001B68BA689A604FE07B6818683B689968B7
:10383C003B685A683B68DB6800F05DF97B681B6885
:10384C009A687B681B6842F480429A603CE07B6813
:10385C0018683B6859683B68DB681A4600F0D4F876
:10386C007B681B685021184600F02BF92CE07B6814
:10387C0018683B6859683B68DB681A4600F0F2F838
:10388C007B681B686021184600F01BF91CE07B6804
:10389C0018683B6859683B68DB681A4600F0B4F856
:1038AC007B681B684021184600F00BF90CE07B6824
:1038BC001A683B681B681946104600F002F903E0D1
:1038CC000123FB7300E000BF7B68012283F83D20DD
:1038DC007B68002283F83C20FB7B18461037BD46E2
:1038EC0080BD80B483B000AF786000BF0C37BD469C
:1038FC0080BC704780B483B000AF786000BF0C37D9
:10390C00BD4680BC704780B483B000AF786000BF08
:10391C000C37BD4680BC704780B483B000AF786074
:10392C0000BF0C37BD4680BC7047000080B485B02A
:10393C0000AF786039607B681B68FB607B682F4A3E
:10394C0093420BD07B68B3F1804F07D07B682C4A35
:10395C00934203D07B682B4A934208D1FB6823F037
:10396C007003FB603B685B68FA681343FB607B6821
:10397C00224A93420BD07B68B3F1804F07D07B680F
:10398C001F4A934203D07B681E4A934208D1FB68BE
:10399C0023F44073FB603B68DB68FA681343FB60FD
:1039AC00FB6823F080023B685B691343FB607B6818
:1039BC00FA681A603B689A687B68DA623B681A6836
:1039CC007B689A627B680D4A934203D13B681A6903
:1039DC007B681A637B6801225A617B681B6903F060
:1039EC000103002B05D07B681B6923F001027B6867
:1039FC001A6100BF1437BD4680BC7047002C0140D3
:103A0C00000400400008004080B487B000AFF860AC
:103A1C00B9607A60FB681B6A7B61FB681B6A23F0E8
:103A2C000102FB681A62FB689B693B613B6923F0EE
:103A3C00F0033B617B681B013A6913433B617B6973
:103A4C0023F00A037B617A69BB6813437B61FB68D3
:103A5C003A699A61FB687A691A6200BF1C37BD46E5
:103A6C0080BC704780B487B000AFF860B9607A60F2
:103A7C00FB681B6A7B61FB681B6A23F01002FB6806
:103A8C001A62FB689B693B613B6923F470433B61A1
:103A9C007B681B033A6913433B617B6923F0A003EA
:103AAC007B61BB681B017A6913437B61FB683A69D4
:103ABC009A61FB687A691A6200BF1C37BD4680BCEC
:103ACC00704780B485B000AF786039607B689B68C4
:103ADC00FB60FB6823F07003FB603A68FB681343E0
:103AEC0043F00703FB607B68FA689A6000BF1437E9
:103AFC00BD4680BC704780B487B000AFF860B96039
:103B0C007A603B60FB689B687B617B6923F47F4335
:103B1C007B613B681A027B681A43BB6813437A6962
:103B2C0013437B61FB687A699A6000BF1C37BD4602
:103B3C0080BC704780B485B000AF786039607B681A
:103B4C0093F83C30012B01D1022346E07B68012223
:103B5C0083F83C207B68022283F83D207B681B683D
:103B6C005B68FB607B681B689B68BB60FB6823F031
:103B7C007003FB603B681B68FA681343FB607B684F
:103B8C001B68FA685A607B681B68164A93420ED011
:103B9C007B681B68B3F1804F09D07B681B68124AA5
:103BAC00934204D07B681B68104A93420CD1BB68CB
:103BBC0023F08003BB603B685B68BA681343BB604F
:103BCC007B681B68BA689A607B68012283F83D2089
:103BDC007B68002283F83C20002318461437BD462E
:103BEC0080BC7047002C01400004004000080040DD
:103BFC0080B483B000AF786000BF0C37BD4680BC8A
:103C0C00704780B483B000AF786000BF0C37BD46FE
:103C1C0080BC704780B582B000AF78607B68002BA9
:103C2C0001D1012342E07B6893F84130DBB2002BD9
:103C3C0006D17B68002283F840207868FDF7F2FEFD
:103C4C007B68242283F841207B681B68DA687B68D8
:103C5C001B6822F40052DA60786800F071F97B6816
:103C6C001B681A697B681B6822F490421A617B6896
:103C7C001B685A697B681B6822F02A025A617B68B0
:103C8C001B68DA687B681B6842F40052DA607B6858
:103C9C0000225A647B68202283F841207B68202212
:103CAC0083F842207B6800225A63002318460837A9
:103CBC00BD4680BD80B58AB002AFF860B9603B608C
:103CCC001346FB8000237B61FB6893F84130DBB229
:103CDC00202B75D1BB68002B02D0FB88002B01D1A7
:103CEC0001236EE0FB6800225A64FB68212283F8F2
:103CFC004120FDF7C9FF7861FB68FA889A84FB685C
:103D0C00FA88DA84FB689B68B3F5805F08D1FB689E
:103D1C001B69002B04D10023FB61BB68BB6103E072
:103D2C00BB68FB610023BB612EE03B6800937B69A1
:103D3C0000228021F86800F048F80346002B05D0DB
:103D4C00FB68202283F8412003233AE0FB69002B17
:103D5C000BD1BB691B881A46FB681B68C2F30802AF
:103D6C005A60BB690233BB6107E0FB691A78FB68D8
:103D7C001B685A60FB690133FB61FB68DB8C9BB2EF
:103D8C00013B9AB2FB68DA84FB68DB8C9BB2002B9C
:103D9C00CBD13B6800937B6900224021F86800F08E
:103DAC0014F80346002B05D0FB68202283F8412031
:103DBC00032306E0FB68202283F84120002300E067
:103DCC00022318462037BD4680BD80B586B000AFB3
:103DDC00F860B9603B601346FB713BE03B6AB3F1A2
:103DEC00FF3F37D0FDF750FF02463B68D31A3A6AC3
:103DFC009A4202D33B6A002B01D103233AE0FB68C1
:103E0C001B68DB6803F00403002B23D0BB68802BFA
:103E1C0020D0BB68402B1DD0FB681B681B6803F0CF
:103E2C000803082B16D100237B61FB681B681B68F9
:103E3C007B61FB681B685B687B617B69F86800F0E1
:103E4C001DF8FB6808225A64FB68002283F84020A6
:103E5C0001230FE0FB681B681A68BB681340BA6843
:103E6C009A420CBF01230023DBB21A46FB799A421B
:103E7C00B4D0002318461837BD4680BD80B495B029
:103E8C0000AF78607B681B680C337B637B6B53E8FB
:103E9C00003F3B633B6B23F49073FB647B681B68B4
:103EAC000C33FA6C3A64FB63F96B3A6C41E800230F
:103EBC00BB63BB6B002BE5D17B681B6814333B6287
:103ECC003B6A53E8003FFB61FB6923F00103BB64D1
:103EDC007B681B681433BA6CFA62BB62B96AFA6A03
:103EEC0041E800237B627B6A002BE5D17B681B6B6E
:103EFC00012B19D17B681B680C33FB60FB6853E802
:103F0C00003FBB60BB6823F010037B647B681B68BD
:103F1C000C337A6CBA617B617969BA6941E8002328
:103F2C003B613B69002BE5D17B68202283F8422062
:103F3C007B6800221A6300BF5437BD4680BC7047B3
:103F4C0080B584B000AF78607B681B681B6923F474
:103F5C0040517B68DA687B681B680A431A617B688E
:103F6C009A687B681B691A437B685B691343BB6067
:103F7C007B681B68DB6823F4B05323F00C037A686E
:103F8C001268B9680B43D3607B681B685B6923F4C8
:103F9C0040717B689A697B681B680A435A617B682D
:103FAC001B682C4A934203D1FFF710FAF86002E029
:103FBC00FFF7F8F9F860FA6813469B0013449A006F
:103FCC001A447B685B689B00B2FBF3F3224AA2FBAA
:103FDC0003235B091901FA6813469B0013449A00EA
:103FEC001A447B685B689B00B2FBF3F21A4BA3FB91
:103FFC0002035B09642000FB03F3D31A1B01323369
:10400C00154AA2FB03235B0903F0F0031944FA6879
:10401C0013469B0013449A001A447B685B689B0010
:10402C00B2FBF3F20C4BA3FB02035B09642000FB15
:10403C0003F3D31A1B013233074AA2FB03235B0998
:10404C0003F00F027B681B680A449A6000BF1037AC
:10405C00BD4680BD003801401F85EB51014B1868EF
:10406C00704700BF6800002070B500260C4D0D4C49
:10407C00641BA410A64209D100F098FC00260A4D3E
:10408C000A4C641BA410A64205D170BD55F8043B24
:10409C0098470136EEE755F8043B98470136F2E7AE
:1040AC00184B0008184B0008184B00081C4B000854
:1040BC00024B0146186800F057B800BF680000209A
:1040CC0003460244934200D1704703F8011BF9E701
:1040DC0038B50546002943D051F8043C0C1F002B81
:1040EC00B8BFE41800F0FEF81E4A1368104633B946
:1040FC00636014602846BDE8384000F0F9B8A3426C
:10410C000AD921686218934201BF1A685B68521879
:10411C00226063600460EDE71A465B680BB1A34252
:10412C00FAD911685018A0420BD1206801445018DC
:10413C0083421160DED118685B68014411605360E2
:10414C00D8E702D90C232B60D4E7206821188B42C6
:10415C0001BF19685B680918216063605460C9E786
:10416C0038BD00BF20010020F8B5CD1C25F003059B
:10417C0008350C2D38BF0C25002D064601DBA94255
:10418C0003D90C2333600020F8BD00F0ABF82149B3
:10419C000A6814469CB9204F3B6823B92146304627
:1041AC0000F03CF838602946304600F037F8431CE4
:1041BC0023D10C233046336000F09AF8E3E72368F0
:1041CC005B1B17D40B2B03D923601C44256004E024
:1041DC006368A2420CBF0B605360304600F088F855
:1041EC0004F10B00231D20F00700C21ACCD01B1ABF
:1041FC00A350C9E722466468CCE7C41C24F003042E
:10420C00A042E3D0211A304600F008F80130DDD18D
:10421C00CFE700BF200100202401002038B5002387
:10422C00054D044608462B60FDF774FC431C02D177
:10423C002B6803B1236038BD980200200CB430B554
:10424C00174B0C1E1D689DB008DA8B234FF0FF3006
:10425C002B601DB0BDE8304002B070474FF40273C4
:10426C00ADF814300CBF234604F1FF3304930793CD
:10427C004FF6FF7302900690ADF81630284621AB2E
:10428C00209A02A9019300F095F8431CBCBF8B2324
:10429C002B60002CDDD00022029B1A70D9E700BFE6
:1042AC00680000200EB46FF0004100B59CB01DAB4F
:1042BC0002900690079104910848094953F8042B81
:1042CC000591006802A9019300F074F80022029B8A
:1042DC001A701CB05DF804EB03B070476800002046
:1042EC000802FFFF014800F0FBBA00BFA00200204B
:1042FC00014800F0F6BA00BFA00200202DE9F047FB
:10430C008E6882469E420C4690461F4638D88A8953
:10431C0012F4906F32D0256809690133A5EB0109BD
:10432C0065694B4405EB450505EBD5756D109D4254
:10433C0038BF1D46530531D52946FFF715FF0646F4
:10434C0050B90C234FF0FF30CAF80030A38943F06A
:10435C004003A381BDE8F0874A46216900F0D0FAFA
:10436C00A38923F4906343F08003A38126614E4418
:10437C0026603E466561A5EB0905A560BE4200D9E5
:10438C003E4632464146206800F0C8FAA3682268CF
:10439C009B1B32440020A3602260DBE72A4600F01E
:1043AC00D7FA06460028E1D150462169FFF790FE66
:1043BC00C7E700002DE9F04F98468B8907461B068E
:1043CC000D4614469DB00ED50B6963B94021FFF71D
:1043DC00CBFE2860286120B90C233B604FF0FF30E6
:1043EC00D1E040236B610023099320238DF8293001
:1043FC0030234FF00109CDF80C80DFF8A4818DF843
:10440C002A3023469A4613F8012B0AB1252AF9D1F2
:10441C00BAEB040B0BD05B46224629463846FFF715
:10442C006DFF013000F0AA80099A5A4409929AF85B
:10443C000030002B00F0A28000234FF0FF32CDE9BA
:10444C0005230AF1010A049307938DF853301A934C
:10445C005446052214F8011B514800F043FA049A03
:10446C00D8B9D00644BF20238DF85330110744BF70
:10447C002B238DF853309AF800302A2B15D0544644
:10448C0000204FF00A0C079A214611F8013B303BF3
:10449C00092B4ED9B0B1079214E0A0EB080309FA2E
:1044AC0003F31343A2460493D2E7039B191D1B6825
:1044BC000391002BBBBF5B4242F0020207930793B0
:1044CC00B8BF049223782E2B0CD163782A2B35D1CC
:1044DC00039B02341A1D1B680392002BB8BF4FF0CC
:1044EC00FF330593DFF8C8A003225046217800F073
:1044FC00F9F940B14023A0EB0A0003FA00F0049B49
:10450C0001340343049314F8011B062225488DF84B
:10451C00281000F0E7F9002838D0234B1BBB039B75
:10452C00073323F0070308330393099B33440993A0
:10453C0067E70C4601200CFB0232A5E700234FF085
:10454C000A0C194601340593204610F8012B303A19
:10455C00092A03D9002BC5D00591C3E704460123D2
:10456C000CFB0121F0E703AB00932A4638460F4BB6
:10457C0004A9AFF30080421C0646D6D1AB895B067A
:10458C003FF52CAF09981DB0BDE8F08F03AB00933D
:10459C002A463846054B04A900F07CF8EBE700BF2F
:1045AC00E24A0008EC4A0008000000000943000839
:1045BC00E84A00082DE9F047164699468A680B69C7
:1045CC0007469342B8BF1346336091F843200C461C
:1045DC00DDF820800AB1013333602368990642BFAD
:1045EC00336802333360256815F0060506D104F1F3
:1045FC00190AE36832689B1AAB4228DC94F8432012
:10460C00131E226818BF012392062DD44946384642
:10461C0004F14302C047013020D02368E56803F061
:10462C000603042B18BF002532684FF00006A36860
:10463C0008BFAD1A226908BF25EAE5759342C4BFCD
:10464C009B1AED181A34B5421AD1002008E0012348
:10465C00524649463846C047013003D14FF0FF302F
:10466C00BDE8F0870135C4E73020E11881F843003C
:10467C005A1C94F845102244023382F84310C5E7C3
:10468C000123224649463846C0470130E6D0013660
:10469C00D9E700002DE9FF470C46277E9146782F7D
:1046AC0080469A460C9904F1430207D8622F0AD827
:1046BC00002F00F0D980582F00F0A48004F142069E
:1046CC0084F842703AE0A7F16303152BF6D801A0E9
:1046DC0050F823F0394700084D470008C946000838
:1046EC00C9460008C9460008C94600084D470008DD
:1046FC00C9460008C9460008C9460008C946000852
:10470C005B4800087D4700083D480008C946000882
:10471C00C94600087D480008C94600087D470008C6
:10472C00C9460008C9460008454800080B6804F152
:10473C0042061A1D1B680A6084F842300123A4E06B
:10474C00256808682E0600F104030AD505680B607D
:10475C00002D03DA2D236D4284F843300A235E4882
:10476C0019E015F0400F05680B6018BF2DB2EFE78C
:10477C000B682568181D0860280601D51D6802E025
:10478C006906FBD51D886F2F0CBF08230A235248DE
:10479C00002184F843106668002EA8BF2168A6602B
:1047AC00A4BF21F0040121600DB9002E4DD0164696
:1047BC00B5FBF3F103FB1157C75D06F8017D2F46DE
:1047CC00BB420D46F4D9082B0BD12368DF0708D563
:1047DC00236961689942DEBF302306F8013C06F17B
:1047EC00FF36921B22614B4621464046CDF800A075
:1047FC0003AAFFF7DFFE01304CD14FF0FF3004B0BD
:10480C00BDE8F087344884F845700E68236856F884
:10481C00045B1F060E6014D5D90744BF43F0200378
:10482C0023601DB9236823F0200323601023AFE716
:10483C00236843F0200323607823284884F845300C
:10484C00E3E75E0648BFADB2E6E71646BBE70B688A
:10485C0026681D1D60690D6035061B6801D5186042
:10486C0002E07106FBD51880002316462361BAE7D7
:10487C000B681A1D0A601E6800213046626800F041
:10488C0031F808B1801B606063682361002384F8F1
:10489C004330A8E73246494640462369D0470130A9
:1048AC00ABD023689B0713D4E068039B9842B8BF36
:1048BC001846A4E70123324649464046D04701300A
:1048CC009BD00135E36803995B1AAB42F2DCEBE752
:1048DC00002504F11906F5E7F34A0008044B00081B
:1048EC0070477047034610B5C9B20244934218464C
:1048FC0001D1002003E0047801338C42F6D110BDC5
:10490C000A44914200F1FF3300D1704710B511F801
:10491C00014B914203F8014FF9D110BD884210B5FB
:10492C0001EB020402D98442234607D8431EA1425C
:10493C0008D011F8012B03F8012FF8E701460244C7
:10494C008A4200D110BD13F8014D02F8014DF7E772
:10495C00F8B5074614460E4621B91146BDE8F84095
:10496C00FFF702BC22B9FFF7B3FB25462846F8BD7A
:10497C0000F014F8A0420FD221463846FFF7F4FBA2
:10498C0005460028F2D031462246FFF7B9FF3146E2
:10499C003846FFF79DFBE9E73546E7E751F8043C5D
:1049AC00181F002BBCBF0B58C0187047F8B500BFC0
:1049BC00F8BC08BC9E467047F8B500BFF8BC08BCF4
:0449CC009E4670474C
:1049D0005245443A20256400475245454E3A202529
:1049E00064000000414D4245523A20256400000019
:1049F0002154494D455220524544203A2564230D07
:104A00000A0000002154494D455220414D42455273
:104A1000203A2564230D0A002154494D4552204770
:104A20005245454E203A2564230D0A0054696D65B0
:104A30005245443A2564000054696D654752454526
:104A40004E3A25640000000054696D65414D4245B1
:104A5000523A25640000000021535749544348202E
:104A6000544F2054554E494E47204D4F4445230D39
:104A70000A0000002153574954434820544F204115
:104A800055544F204D4F4445230D0A002154494DA4
:104A90004552204552524F52230D0A004552524F63
:104AA000522C2054494D4520495300004E4F54206C
:104AB000455155414C00000000000000000000007E
:104AC00001020304060708090000000001020304B4
:104AD00002030405060708090A0B0C0D0E0F10103F
:104AE0000102232D302B2000686C4C006566674561
:104AF0004647003031323334353637383941424356
:104B00004445460030313233343536373839616206
:084B100063646566000000000B
:044B1800310100085F
:044B1C000D0100087F
:104B2000050000000200000003000000010000007A
:104B30000000000000000000010000000000000074
:104B40000000000001000000000000000000000064
:104B5000010000000000000000000000E803000069
:104B600000000000000000000A0000000A00000031
:104B700005000000020000000300000000127A009F
:104B800010000000010000006C0000200000000088
:104B90000000000000000000000000000000000015
:104BA0000000000000000000000000000000000005
:104BB00000000000000000000000000000000000F5
:104BC00000000000000000000000000000000000E5
:104BD00000000000000000000000000000000000D5
:0C4BE000000000000000000000000000C9
:0400000508001B993B
:00000001FF
