:020000040800F2
:1000000000500020BD200008D11F0008D71F0008A5
:10001000DD1F0008E31F0008E91F000800000000C2
:10002000000000000000000000000000EF1F0008BA
:10003000FB1F000800000000072000081320000834
:1000400005210008052100080521000805210008F8
:1000500005210008052100080521000805210008E8
:1000600005210008052100080521000805210008D8
:1000700005210008052100080521000805210008C8
:1000800005210008052100080521000805210008B8
:1000900005210008052100080521000805210008A8
:1000A0000521000805210008052100080521000898
:1000B000212000080521000805210008052100086D
:1000C0000521000805210008052100080521000878
:1000D0000521000805210008052100080521000868
:1000E0003520000805210008052100080000000057
:1000F0000000000000000000000000000000000000
:0C01000000000000000000005FF808F1A3
:10010C0010B5054C237833B9044B13B10448AFF345
:10011C0000800123237010BDF000002000000000BF
:10012C00CC4E000808B5034B1BB103490348AFF391
:10013C00008008BD00000000F4000020CC4E000838
:10014C00034613F8012B002AFBD1181A013870470B
:10015C0080B500AF00F002F800BF80BD80B500AFE5
:10016C0000224FF48261054802F0F7FA00224FF4A6
:10017C004071034802F0F1FA00BF80BD000C014051
:10018C000008014080B500AF01224FF482610248A3
:10019C0002F0E3FA00BF80BD000C014080B500AF57
:1001AC0000221021054802F0D8FA01224FF4806198
:1001BC00024802F0D2FA00BF80BD00BF000C014023
:1001CC0080B500AF00224FF48061054802F0C5FAFB
:1001DC0001221021024802F0C0FA00BF80BD00BF0E
:1001EC00000C014080B500AF01224FF44071024871
:1001FC0002F0B3FA00BF80BD0008014080B500AF2B
:10020C0000224FF48071054802F0A7FA01224FF446
:10021C000071024802F0A1FA00BF80BD0008014045
:10022C0080B500AF00224FF40071054802F095FA3A
:10023C0001224FF48071024802F08FFA00BF80BD9A
:10024C000008014080B500AF0C4B5B69012B13D14A
:10025C004FF440710A4802F098FA4FF48261094851
:10026C0002F093FA084B1B68013B074A13604FF4EA
:10027C007A71052001F07AFD00BF80BDC405002015
:10028C0000080140000C01406800002080B500AF60
:10029C00124BDB69012B1ED100221021104802F0F9
:1002AC005CFA4FF480610E4802F06FFA00224FF4B2
:1002BC0080710C4802F051FA4FF40071094802F0B9
:1002CC0064FA094B1B68013B074A13604FF47A71BF
:1002DC00072001F04BFD00BF80BD00BFC40500200E
:1002EC00000C0140000801406C00002080B500AFFC
:1002FC00124B9B69012B1ED100224FF480611048D8
:10030C0002F02BFA10210E4802F03FFA00224FF4B3
:10031C0000710C4802F021FA4FF48071094802F088
:10032C0034FA094B1B68013B074A13604FF47A718E
:10033C00062001F01BFD00BF80BD00BFC4050020DE
:10034C00000C0140000801407000002080B500AF97
:10035C00FFF704FF00BF80BD80B483B000AF7860AE
:10036C000C4A7B6852F82330012B0CD10A4A7B686B
:10037C0052F82330002B06D0064A7B68002142F845
:10038C002310012300E0002318460C37BD4680BC27
:10039C00704700BF2C0100204000002080B483B0C7
:1003AC0000AF7860094A7B6852F82330012B06D1E4
:1003BC00064A7B68002142F82310012300E0002349
:1003CC0018460C37BD4680BC704700BF1C0100208E
:1003DC0080B584B000AF01F000F9FFF7B7FF094B0F
:1003EC001B683846084A102104F0FCF80021012053
:1003FC0001F0FAF83B46184601F0DAF800BF103766
:10040C00BD4680BD5C000020E44E000880B584B081
:10041C0000AF01F0E2F8FFF799FF094B1B68384673
:10042C00084A102104F0DEF80021012001F0DCF86C
:10043C003B46184601F0BCF800BF1037BD4680BDE6
:10044C0054000020F04E000880B584B000AF01F0DD
:10045C00C4F8FFF77BFF094B1B683846084A10218C
:10046C0004F0C0F80021012001F0BEF83B4618460C
:10047C0001F09EF800BF1037BD4680BD580000202B
:10048C00FC4E000880B582B000AF78607B68032B0F
:10049C0000F23B8201A252F823F000BFB90400081D
:1004AC00E9050008D908000881070008A04B1B6863
:1004BC00A04A13609F4B1B68022B27D19E4B0A222C
:1004CC001A609E499E4804F0C1F89D48FFF738FE1B
:1004DC0003469AB24FF4FA7399499A4803F07CFE9A
:1004EC00994B1B681A469949954804F0AFF8944803
:1004FC00FFF726FE03469AB24FF4FA7390499148DF
:10050C0003F06AFEFFF764FFFFF79CFE894B1B6844
:10051C00032B27D18E4B0A221A608E49884804F08F
:10052C0095F88748FFF70CFE03469AB24FF4FA731E
:10053C008349844803F050FE874B1B681A46874951
:10054C007F4804F083F87E48FFF7FAFD03469AB221
:10055C004FF4FA737A497B4803F03EFEFFF774FFC1
:10056C00FFF794FE734B1B68042B27D17C4B0A229C
:10057C001A607C49724804F069F87148FFF7E0FD95
:10058C0003469AB24FF4FA736D496E4803F024FE99
:10059C00754B1B681A467549694804F057F868484A
:1005AC00FFF7CEFD03469AB24FF4FA7364496548DF
:1005BC0003F012FEFFF72AFFFFF798FE5C4B1B6857
:1005CC0001335B4A13605A4B1B68042B02DD584BFA
:1005DC0002221A60664B01221A6096E1554B1B6889
:1005EC00012B00F08D81534B1B68022B30D1524BE9
:1005FC000A221A60544B1B680133534A13605A4B3E
:10060C001B680133584A13604F4B1B68632B02DD88
:10061C004D4B01221A60544B1B68632B02DD524B6D
:10062C0001221A60FFF7D4FE474B1B681A46474954
:10063C00434804F00BF84248FFF782FD03469AB298
:10064C004FF4FA733E493F4803F0C6FDFFF7FAFD3D
:10065C00384B1B68032B33D13D4B0A221A603E4B9F
:10066C001B6801333C4A1360374B1B680133364A15
:10067C0013603F4B02221A60334B1B68632B02DD65
:10068C00314B01221A60344B1B68632B02DD324B59
:10069C0001221A60FFF7D8FE2F4B1B681A462F4910
:1006AC00274803F0D3FF2648FFF74AFD03469AB2CA
:1006BC004FF4FA732249234803F08EFDFFF7E6FD51
:1006CC001C4B1B68042B40F01B81254B0A221A6023
:1006DC001D4B1B6801331C4A1360234B1B680133F1
:1006EC00214A1360184B1B68632B02DD164B012249
:1006FC001A601D4B1B68632B02DD1B4B01221A6019
:10070C00FFF784FE184B1B681A4618490C4803F077
:10071C009DFF0B48FFF714FD03469AB24FF4FA7392
:10072C000749084803F058FDFFF7E0FDE8E000BF7B
:10073C00600000206400002068000020084F0008C2
:10074C004C0100205C0200205C000020204F0008BF
:10075C006C000020344F0008580000204C4F00085B
:10076C0070000020604F000854000020784F0008F3
:10077C0050000020694B1B68012B00F0C380674BB5
:10078C001B68022B3CD1664B0A221A60654B1B6816
:10079C00002B09DD644B1B68013B634A1360614B02
:1007AC001B68013B5F4A13605E4B1B68002B09D131
:1007BC005D4B1B68013B5C4A13605C4B1B68013B47
:1007CC005A4A1360584B1B68002B02DA564B002216
:1007DC001A60FFF7FDFD544B1B681A4654495548E7
:1007EC0003F034FF5348FFF7ABFC03469AB24FF4C7
:1007FC00FA735049504803F0EFFCFFF723FD81E0FA
:10080C00464B1B68032B2ED14C4B0A221A60474BCC
:10081C001B68002B09DD444B1B68013B424A1360EB
:10082C00424B1B68013B414A1360404B1B68002B39
:10083C0002DA3E4B00221A60FFF706FE3B4B1B68A8
:10084C001A463F493B4803F001FF3A48FFF778FC52
:10085C0003469AB24FF4FA733649374803F0BCFC9E
:10086C00FFF714FD4EE02D4B1B68042B4AD1354B82
:10087C000A221A602B4B1B68002B09DD2A4B1B68C4
:10088C00013B294A1360274B1B68013B254A136027
:10089C00244B1B68002B02DA224B00221A60FFF754
:1008AC00B5FD204B1B681A462749224803F0CEFEA3
:1008BC002048FFF745FC03469AB24FF4FA731D49E2
:1008CC001D4803F089FCFFF711FD1BE0134B1B685F
:1008DC00012B19D01D4B01221A60104B01221A60FA
:1008EC00114B1B681A4A13600E4B1B68194A136094
:1008FC000E4B1B68184A1360184B02221A6003E057
:10090C0000BF02E000BF00E000BF154A7B68012178
:10091C0042F8231000BF0837BD4680BD640000209C
:10092C0068000020540000205C00002058000020CB
:10093C00204F00084C0100205C0200206C000020BD
:10094C004C4F000870000020784F00085000002029
:10095C00BC010020B8010020B40100206000002080
:10096C002C01002080B582B000AF5F4B1B685F4A42
:10097C0013605F4B1B685C4A13605B4B5B685B4AA4
:10098C0053605B4B5B68584A5360574B9B68574AA4
:10099C009360574B9B68544A9360534BDB68534AA4
:1009AC00D360534BDB68504AD3604021514801F06F
:1009BC00BDFE03461A464E4B1A6080214E4801F08C
:1009CC00B5FE03461A464A4B5A602021494801F0AD
:1009DC00ADFE03461A46464B9A600821454801F085
:1009EC00A5FE03461A46424BDA6000237B6073E097
:1009FC003D4A7B6852F823203D497B6851F82330EF
:100A0C009A4266D1384A7B6852F8232037497B6872
:100A1C0051F823309A425CD1344A7B6852F8232037
:100A2C0036497B6851F823309A422ED02F4A7B6886
:100A3C0052F8232031497B6841F823202F4A7B68E8
:100A4C0052F82330002B0BD12D4A7B684FF47A716E
:100A5C0042F823102B4A7B68012142F8231038E01E
:100A6C00284A7B6852F82330002B32D0244A7B680A
:100A7C0052F82330002B2CDD7868FFF703FD214A58
:100A8C007B68002142F8231023E01C4A7B6852F853
:100A9C002330002B1DD11A4A7B6852F823305A1E82
:100AAC0017497B6841F82320154A7B6852F823309C
:100ABC00002B0ED1144A7B68012142F82310134AF3
:100ACC007B68002142F823100E4A7B68002142F813
:100ADC0023107B6801337B607B68032B88DD00BFB0
:100AEC0000BF0837BD4680BD10000020200000204C
:100AFC0000000020000C01400010014030000020DC
:100B0C00400000200C0100201C0100202C010020C2
:100B1C0080B5A0B000AF864B1B68012B40F01A8348
:100B2C00844B1B68013B042B00F21D8301A252F87D
:100B3C0023F000BF550B0008850B0008DF0C0008E4
:100B4C00770E0008D30F00087B497C4803F07EFD2C
:100B5C007A48FFF7F5FA03469AB24FF4FA737749DD
:100B6C00774803F039FB734B02221A60FFF7EEFB58
:100B7C00744B01221A60F6E20120FFF7EDFB0346ED
:100B8C00012B2BD16A4B1B68012B27D16E4B1A689A
:100B9C006E4B1B68D31A6E4A13606C4B1B686D4A04
:100BAC0013606D4B1B686D4A1360624B03221A6015
:100BBC006B49624803F04AFD6048FFF7C1FA0346EF
:100BCC009AB24FF4FA735D495D4803F005FB5D4B37
:100BDC0001225A605B4B00221A60C4E2594B1B681D
:100BEC00012B61D15B4B1B68002B58DBFFF7E8FA3C
:100BFC00FFF7F8FA00F0F1FC0A2001F0E1FA554B8E
:100C0C001B6807F17000574A102103F0EBFC002120
:100C1C00012000F0E9FC07F17003184600F0C8FC55
:100C2C004B4B1B6807F160004F4A102103F0DAFCB4
:100C3C000021022000F0D8FC07F16003184600F0F8
:100C4C00B7FC444B1B681A4648493C4803F0FEFC71
:100C5C003A48FFF775FA03469AB24FF4FA733749DC
:100C6C00374803F0B9FA3A4B1B681A4640493348E7
:100C7C0003F0ECFC3148FFF763FA03469AB24FF4E9
:100C8C00FA732E492E4803F0A7FA324B1B68013B2E
:100C9C00304A13602E4B1B68013B2D4A13604FF4F6
:100CAC007A71002001F062F82A4B1B68002B80F24D
:100CBC005382274B1B680133254A13601D4B0322BB
:100CCC001A60224B1B68234A13601E4B01225A6088
:100CDC0049E20120FFF740FB0346012B4AD1144B9C
:100CEC001B68012B46D1184B1B68194A1360174B14
:100CFC001B68184A1360184B1B68184A13600D4B7D
:100D0C0004221A6016490D4803F0A0FC0B48FFF7AB
:100D1C0017FA03469AB24FF4FA730849084803F0DD
:100D2C005BFA084B01229A60064B00225A601AE2C9
:100D3C0064000020500000208C4F0008800100202F
:100D4C005C020020C40500205C0000205400002040
:100D5C00BC010020B801002058000020B401002084
:100D6C00A44F0008B44F0008C04F0008C84F00083B
:100D7C00D84F0008A94B5B68012B62D1A84B1B68AC
:100D8C00002B58DBFFF70AFAFFF72CFA00F025FCD2
:100D9C000A2001F015FAA24B1B6807F15000A14A7A
:100DAC00102103F01FFC0021012000F01DFC07F1B5
:100DBC005003184600F0FCFB9B4B1B6807F14000EE
:100DCC009A4A102103F00EFC0021022000F00CFCCA
:100DDC0007F14003184600F0EBFB914B1B681A46D9
:100DEC009349944803F032FC9248FFF7A9F9034663
:100DFC009AB24FF4FA738F498F4803F0EDF98A4B8E
:100E0C001B681A468D498B4803F020FC8948FFF774
:100E1C0097F903469AB24FF4FA738649864803F061
:100E2C00DBF97F4B1B68013B7D4A13607E4B1B68D3
:100E3C00013B7D4A13604FF47A71012000F096FF5C
:100E4C0091E1774B1B68002B80F288817C4B1B68EF
:100E5C00734A13607B4B1B68734A13607A4B0422F2
:100E6C001A606E4B01229A6078E10120FFF774FA48
:100E7C000346012B2BD1754B1B68012B27D1714BD2
:100E8C001A68734B1B68D31A674A1360704B1B6844
:100E9C00704A13606A4B1B68614A13606A4B0522E7
:100EAC001A606D49634803F0D1FB6248FFF748F9BB
:100EBC0003469AB24FF4FA735E495F4803F08CF91B
:100ECC00564B0122DA60554B00229A604BE1534B92
:100EDC009B68012B62D15F4B1B68002B58DBFFF723
:100EEC0051F9FFF79DF900F078FB0A2001F068F941
:100EFC004D4B1B6807F130004C4A102103F072FB7C
:100F0C000021012000F070FB07F13003184600F0BF
:100F1C004FFB504B1B6807F12000504A102103F087
:100F2C0061FB0021022000F05FFB07F12003184653
:100F3C0000F03EFB3C4B1B681A4640493D4803F011
:100F4C0085FB3C48FFF7FCF803469AB24FF4FA7362
:100F5C003849394803F040F93E4B1B681A46404962
:100F6C00344803F073FB3348FFF7EAF803469AB2B0
:100F7C004FF4FA732F49304803F02EF92A4B1B68B3
:100F8C00013B294A1360334B1B68013B314A136008
:100F9C004FF47A71022000F0E9FEE4E02D4B1B685F
:100FAC00002B80F2DD80204B1B6801331E4A13603E
:100FBC00274B1B68274A1360234B05221A60174BDB
:100FCC000122DA60CCE00120FFF7C6F90346012BC1
:100FDC0048D11E4B1B68012B44D11A4B1B68124A7B
:100FEC0013601B4B1B681B4A1360174B02221A60C1
:100FFC001949104803F02AFB0E48FFF7A1F80346E5
:10100C009AB24FF4FA730B490B4803F0E5F8034B13
:10101C0001221A60014B0022DA60A4E0C405002012
:10102C00B4010020E84F0008BC010020C04F0008AC
:10103C00F44F0008800100205C020020D84F00080B
:10104C00580000205C0000205000002064000020AC
:10105C0054000020B8010020A44F0008B44F000831
:10106C00C84F0008424BDB68012B60D1414B1B6819
:10107C00002B56DBFFF786F8FFF7C0F800F0ADFA4F
:10108C000A2001F09DF83C4B1B6807F110003B4A0D
:10109C00102103F0A7FA0021012000F0A5FA07F1B6
:1010AC001003184600F084FA324B1B683846344A59
:1010BC00102103F097FA0021022000F095FA3B462C
:1010CC00184600F075FA2C4B1B681A462D492E4811
:1010DC0003F0BCFA2C48FFF733F803469AB24FF4EE
:1010EC00FA732949294803F077F8224B1B681A46F2
:1010FC002749254803F0AAFA2348FFF721F80346AD
:10110C009AB24FF4FA732049204803F065F8194B52
:10111C001B68013B174A1360174B1B68013B164AAF
:10112C0013604FF47A71032000F020FE1BE0114B8A
:10113C001B68002B16DA174B1B680E4A1360164BF4
:10114C001B680D4A1360154B02221A60084B0122D2
:10115C001A6007E000BF06E000BF04E000BF02E039
:10116C0000BF00E000BF00BF8037BD4680BD00BFA0
:10117C00C4050020B4010020BC010020C04F0008B1
:10118C00E84F0008D84F0008800100205C020020C6
:10119C00F44F0008580000205C0000205000002094
:1011AC0080B500AF294B1B68294A1360294B1B687B
:1011BC00294A1360294B1B68294A136029492A487C
:1011CC0003F044FA2848FEF7BBFF03469AB24FF4EB
:1011DC00FA732549254802F0FFFF1D4B1B681A4680
:1011EC002349214803F032FA1F48FEF7A9FF0346B2
:1011FC009AB24FF4FA731C491C4802F0EDFF164BDF
:10120C001B681A461B49184803F020FA1648FEF7CB
:10121C0097FF03469AB24FF4FA731349134802F03E
:10122C00DBFF0F4B1B681A4613490F4803F00EFAED
:10123C000D48FEF785FF03469AB24FF4FA730A493C
:10124C000A4802F0C9FF00BF80BD00BF7400002037
:10125C005C00002078000020580000207C0000205A
:10126C005400002008500008800100205C0200207F
:10127C00185000082C5000084050000880B500AFF2
:10128C00734B1B68042B00F09580042B00F3DD805E
:10129C00022B02D0032B47D0D7E00020FFF77EF8BB
:1012AC000346012B07D1FFF77BFF694B02221A6023
:1012BC00FFF78EF8C9E0FEF7C5FF664B1B68002BE5
:1012CC000EDD654B1B68654A1360654B1B68654AF0
:1012DC001360654B1B68654A1360654B01221A60ED
:1012EC005C4B1B68002B40F0AB80614B02221A60F8
:1012FC00604B01221A60574B0A221A605E4B022285
:10130C001A605E495E4803F0A1F95D48FEF718FFCC
:10131C0003469AB24FF4FA7359495A4802F05CFFEB
:10132C004B4B01221A608BE00020FFF737F8034685
:10133C00012B07D1FFF734FF454B03221A60FFF74F
:10134C0083F882E0FEF7A2FF4F4B1B68002B0EDDEB
:10135C00414B1B68414A1360414B1B68414A136067
:10136C00414B1B68414A1360414B01221A60464BAA
:10137C001B68002B66D13E4B02221A60424B0A229C
:10138C001A603D4B02221A603A4B01221A603F4907
:10139C003B4803F05BF93A48FEF7D2FE03469AB29B
:1013AC004FF4FA733649374802F016FF284B0122E6
:1013BC001A6047E00020FEF7F1FF0346012B07D12E
:1013CC00FFF7EEFE224B04221A60FFF71FF83CE0F9
:1013DC00FEF78CFF2E4B1B68002B0EDD1E4B1B6883
:1013EC001E4A13601E4B1B681E4A13601E4B1B6863
:1013FC001E4A13601E4B01221A60254B1B68002BE2
:10140C0022D11B4B02221A601A4B01221A60204B6C
:10141C000A221A60184B02221A601849184803F065
:10142C0015F91748FEF78CFE03469AB24FF4FA737F
:10143C001349144802F0D0FE054B01221A6003E058
:10144C0000BF02E000BF00E000BF00BF80BD00BFD6
:10145C00640000206800002058000020B401002027
:10146C005C000020BC01002054000020B8010020CA
:10147C0050000020C40500206000002054500008DB
:10148C00800100205C0200206C00002070500008DD
:10149C007000002080B586B002AF0346FB71FB796B
:1014AC0023F00F03FB73FB791B01BB73FB7B43F036
:1014BC000C03DBB23B72FB7B43F00803DBB27B72A9
:1014CC00BB7B43F00C03DBB2BB72BB7B43F008036A
:1014DC00DBB2FB7207F10802642300930423422160
:1014EC00034801F0D1FA00BF1037BD4680BD00BFE4
:1014FC00C001002080B586B002AF0346FB71FB79BA
:10150C0023F00F03FB73FB791B01BB73FB7B43F0D5
:10151C000D03DBB23B72FB7B43F00903DBB27B7246
:10152C00BB7B43F00D03DBB2BB72BB7B43F0090307
:10153C00DBB2FB7207F108026423009304234221FF
:10154C00034801F0A1FA00BF1037BD4680BD00BFB3
:10155C00C001002080B500AF3320FFF79BFF322085
:10156C00FFF798FF322000F02BFE2820FFF792FFA8
:10157C00322000F025FE0120FFF78CFF322000F016
:10158C001FFE0620FFF786FF322000F019FE0C200C
:10159C00FFF780FF322000F013FE0220FFF77AFFE6
:1015AC00322000F00DFE8020FFF774FF00BF80BDDD
:1015BC0080B582B000AF786006E07B685A1C7A6018
:1015CC001B781846FFF796FF7B681B78002BF4D12D
:1015DC0000BF00BF0837BD4680BD80B500AF0120FD
:1015EC00FFF758FF00BF80BD80B584B000AF7860B6
:1015FC0039607B68012B08D17B68DAB23B68DBB2BF
:10160C001344DBB27F33FB7308E03B68DBB240333F
:10161C00DBB25BB263F07F035BB2FB73FB7B184600
:10162C00FFF738FF00BF1037BD4680BD80B500AF57
:10163C0000F064FD00F030F800F014F900F0E8F868
:10164C0000F06CF800F098F80F4802F0D3F9FFF7AF
:10165C0081FFFFF7C2FF322000F0B2FD00F0C9F9A4
:10166C0000220021094800F0D9F900220021084885
:10167C0000F0D4F900220021064800F0CFF9FEF763
:10168C0067FD00F0A5FAFCE7140200201D0B000812
:10169C00891200087109000880B590B000AF07F1FD
:1016AC00180328220021184602F094FF3B1D00224B
:1016BC001A605A609A60DA601A610223BB610123D6
:1016CC00BB621023FB6202237B630023BB634FF4DA
:1016DC006013FB6307F11803184601F02DFD034658
:1016EC00002B01D000F080F90F237B600223BB603C
:1016FC000023FB604FF480633B6100237B613B1D47
:10170C000221184601F098FF0346002B01D000F08F
:10171C006BF900BF4037BD4680BD000080B500AFFF
:10172C00124B134A1A60114B124A5A600F4B00228B
:10173C009A600E4B0022DA600C4B4FF480421A6117
:10174C000A4B00225A61094B00229A61074B002276
:10175C00DA61064B00221A62044801F051F8034684
:10176C00002B01D000F040F900BF80BDC00100206B
:10177C0000540040A086010080B586B000AF07F190
:10178C00080300221A605A609A60DA603B46002215
:10179C001A605A601D4B4FF080421A601B4B41F689
:1017AC003F725A60194B00229A60184B0922DA607A
:1017BC00164B00221A61154B00229A61134802F055
:1017CC00C9F80346002B01D000F00EF94FF48053FA
:1017DC00BB6007F1080319460C4802F04DFA0346AA
:1017EC00002B01D000F000F900233B6000237B604C
:1017FC003B461946054802F02FFC0346002B01D04E
:10180C0000F0F2F800BF1837BD4680BD140200206E
:10181C0080B500AF114B124A1A60104B4FF41652A0
:10182C005A600E4B00229A600C4B0022DA600B4B74
:10183C0000221A61094B0C225A61084B00229A6152
:10184C00064B0022DA61054802F076FC0346002BB9
:10185C0001D000F0C9F800BF80BD00BF5C020020C1
:10186C000044004080B588B000AF07F1100300229F
:10187C001A605A609A60DA604F4B9B694E4A43F08B
:10188C00100393614C4B9B6903F01003FB60FB68E6
:10189C00494B9B69484A43F020039361464B9B6933
:1018AC0003F02003BB60BB68434B9B69424A43F087
:1018BC0004039361404B9B6903F004037B607B68DA
:1018CC003D4B9B693C4A43F0080393613A4B9B693F
:1018DC0003F008033B603B68002240F2F2313748CA
:1018EC0000F03BFF00224FF48261354800F035FFD9
:1018FC0000224FF40071334800F02FFF4FF40053D7
:10190C003B61314B7B610023BB6107F1100319462E
:10191C002C4800F087FD40F2F2333B6101237B61E0
:10192C000023BB610223FB6107F110031946234816
:10193C0000F078FD4FF482633B6101237B6100234F
:10194C00BB610223FB6107F1100319461C4800F030
:10195C0069FD80233B6100237B610123BB6107F19F
:10196C0010031946174800F05DFD4FF400733B61FE
:10197C0001237B610023BB610223FB6107F1100390
:10198C001946104800F04EFD68233B6100237B6133
:10199C000123BB6107F110031946094800F042FD11
:1019AC0000220021282000F006FD282000F01FFD59
:1019BC0000BF2037BD4680BD00100240000801402A
:1019CC00000C0140001001400000111080B582B0E5
:1019DC0000AF786000F0E2F9FEF7C4FF00F0A4F865
:1019EC0000BF0837BD4680BD80B400AF72B600BFE3
:1019FC00FEE780B582B000AF00237B6006E07B6819
:101A0C00184600F049F97B6801337B607B68272B13
:101A1C00F5DD00BF00BF0837BD4680BDB0B489B04E
:101A2C0000AFF860B9607A603C4B1B68FB61BB6827
:101A3C003B4AA2FB0323DB08BB60384B1B68272BFC
:101A4C0066DC0023BB6112E03649BA6913469B0081
:101A5C0013449B000B4404331B68BA689A4203D3AB
:101A6C00BB690133BB6102E0BB69FB6104E02B4B3A
:101A7C001B68BA699A42E7DB284B1B687B6117E04D
:101A8C007B695A1E274879690B469B000B449B00C7
:101A9C001844244913469B0013449B000B440446F2
:101AAC001D460FCD0FC42B6823607B69013B7B6106
:101ABC007A69FB699A42E3DC184B1B680133174ABD
:101ACC0013601849FA6913469B0013449B000B449E
:101ADC00FA681A601349FA6913469B0013449B0079
:101AEC000B440433BA681A600E49FA6913469B001A
:101AFC0013449B000B4408337A681A600949FA694D
:101B0C0013469B0013449B000B440C3300221A70A9
:101B1C0000BF2437BD46B0BC704700BF3C0100205D
:101B2C00CDCCCCCCA402002080B483B000AF002379
:101B3C007B6040E024497A6813469B0013449B0069
:101B4C000B4404331B68002B12D01F497A681346D0
:101B5C009B0013449B000B4404331B68591E1A480A
:101B6C007A6813469B0013449B00034404331960AA
:101B7C0015497A6813469B0013449B000B440433AD
:101B8C001B68002B14D110497A6813469B00134430
:101B9C009B000B440C331B780133D8B20A497A688A
:101BAC0013469B0013449B000B440C3302461A70E3
:101BBC007B6801337B60054B1B687A689A42B9DB02
:101BCC000C37BD4680BC7047A40200203C010020AD
:101BDC00B0B586B000AF00237B614FE02C497A6929
:101BEC0013469B0013449B000B440C331B78002BB7
:101BFC0041D027497A6913469B0013449B000B4440
:101C0C000C331B78013BD8B221497A6913469B00EF
:101C1C0013449B000B440C3302461A701C497A691E
:101C2C0013469B0013449B000B441B6898471849B0
:101C3C007A6913469B0013449B000B443C461D469B
:101C4C000FCD0FC42B6823607B69184600F024F875
:101C5C00BB68002B06D03B68B968BA681846FFF71A
:101C6C00DDFE08E0BB68002B05D13B68002200219B
:101C7C001846FFF7D3FE7B6901337B61054B1B686C
:101C8C007A699A42AADB00BF00BF1837BD46B0BDC7
:101C9C00A40200203C010020B0B485B000AF7860F5
:101CAC00304B1B681A467B68934255D27B68FB60AD
:101CBC0017E0FB685A1C2C48F9680B469B000B4438
:101CCC009B001844284913469B0013449B000B446B
:101CDC0004461D460FCD0FC42B682360FB680133EF
:101CEC00FB60204B1B68013BFA689A42E1DB1D4B01
:101CFC001B685A1E1C4913469B0013449B000B4443
:101D0C0000221A60174B1B685A1E174913469B007A
:101D1C0013449B000B44043300221A60114B1B68C4
:101D2C005A1E114913469B0013449B000B44083365
:101D3C0000221A600B4B1B685A1E0B4913469B0062
:101D4C0013449B000B440C3300221A70054B1B6888
:101D5C00013B044A136000E000BF1437BD46B0BC21
:101D6C00704700BF3C010020A402002080B483B067
:101D7C0000AF7860396007497B683A6841F82320E6
:101D8C00054A7B68002142F8231000BF0C37BD4682
:101D9C0080BC7047EC050020C405002080B483B0E3
:101DAC0000AF00237B601CE0124A7B6852F82330A2
:101DBC00002B08DD0F4A7B6852F823305A1E0D4960
:101DCC007B6841F823200B4A7B6852F82330002BA8
:101DDC0004DC094A7B68012142F823107B6801333B
:101DEC007B607B68092BDFDD00BF00BF0C37BD4675
:101DFC0080BC7047EC050020C405002080B485B081
:101E0C0000AF154B9B69144A43F001039361124BCD
:101E1C009B6903F00103BB60BB680F4BDB690E4A87
:101E2C0043F08053D3610C4BDB6903F080537B6030
:101E3C007B680A4B5B68FB60FB6823F0E063FB602C
:101E4C00FB6843F00073FB60044AFB68536000BFFF
:101E5C001437BD4680BC70470010024000000140A2
:101E6C0080B58AB000AF786007F1140300221A60C5
:101E7C005A609A60DA607B681B681D4A934232D1C3
:101E8C001C4B9B691B4A43F008039361194B9B69DC
:101E9C0003F008033B613B694FF440737B611223F1
:101EAC00BB6103233B6207F114031946124800F08F
:101EBC00B9FA124B5B687B627B6A43F0E0637B622E
:101ECC007B6A43F002037B620C4A7B6A5360094BCA
:101EDC00DB69084A43F40013D361064BDB6903F456
:101EEC000013FB60FB6800BF2837BD4680BD00BFF8
:101EFC000054004000100240000C01400000014062
:101F0C0080B584B000AF78607B681B68B3F1804FFC
:101F1C0013D10C4BDB690B4A43F00103D361094B22
:101F2C00DB6903F00103FB60FB68002200211C202D
:101F3C0000F041FA1C2000F05AFA00BF1037BD46E1
:101F4C0080BD00BF0010024080B588B000AF786043
:101F5C0007F1100300221A605A609A60DA607B68FD
:101F6C001B68154A934223D1144BDB69134A43F483
:101F7C000033D361114BDB6903F40033FB60FB6866
:101F8C000E4B9B690D4A43F0040393610B4B9B6909
:101F9C0003F00403BB60BB680C233B6102237B6131
:101FAC000223FB6107F110031946054800F03AFAC9
:101FBC0000BF2037BD4680BD0044004000100240E9
:101FCC000008014080B400AFFEE780B400AFFEE72C
:101FDC0080B400AFFEE780B400AFFEE780B400AF82
:101FEC00FEE780B400AF00BFBD4680BC704780B434
:101FFC0000AF00BFBD4680BC704780B400AF00BFCF
:10200C00BD4680BC704780B500AF00F0BDF800BF86
:10201C0080BD000080B500AF024801F03DFD00BF5F
:10202C0080BD00BF1402002080B500AF4FF40050FB
:10203C0000F0C4FB00BF80BD80B586B000AF7860F7
:10204C00144A154BD31A7B617B693B61134B1B689C
:10205C00002B02D1114B124A1A60104B1A687B6884
:10206C0013443A699A4207D202F08AFA03460C22C8
:10207C001A604FF0FF3309E0084B1B68FB60074BFD
:10208C001A687B681344054A1360FB6818461837B6
:10209C00BD4680BD0050002000040000400100201F
:1020AC002806002080B400AF00BFBD4680BC70473E
:1020BC00FFF7F8FF0B480C490C4A002302E0D458F8
:1020CC00C4500433C4188C42F9D3094A094C002378
:1020DC0001E013600432A242FBD302F057FAFFF77F
:1020EC00A5FA704700000020F0000020F85000080E
:1020FC00F000002028060020FEE7000080B500AFAD
:10210C00084B1B68074A43F010031360032000F0D0
:10211C0047F9002000F008F8FFF770FE002318467E
:10212C0080BD00BF0020024080B582B000AF786057
:10213C00124B1A68124B1B7819464FF47A73B3FB87
:10214C00F1F3B2FBF3F3184600F05FF90346002BF2
:10215C0001D001230EE07B680F2B0AD8002279688E
:10216C004FF0FF3000F027F9064A7B68136000231C
:10217C0000E0012318460837BD4680BD80000020D2
:10218C00880000208400002080B400AF054B1B7831
:10219C001A46054B1B681344034A136000BFBD4627
:1021AC0080BC7047880000201406002080B400AF6B
:1021BC00024B1B681846BD4680BC704714060020B5
:1021CC0080B584B000AF7860FFF7F0FFB8607B6833
:1021DC00FB60FB68B3F1FF3F05D00A4B1B781A4636
:1021EC00FB681344FB6000BFFFF7E0FF0246BB68CF
:1021FC00D31AFA689A42F7D800BF00BF1037BD4611
:10220C0080BD00BF8800002080B485B000AF78602E
:10221C007B6803F00703FB600C4BDB68BB60BA68A0
:10222C004FF6FF031340BB60FB681A02BB681343F5
:10223C0043F0BF6343F40033BB60044ABB68D36014
:10224C0000BF1437BD4680BC704700BF00ED00E0F6
:10225C0080B400AF044BDB681B0A03F0070318467D
:10226C00BD4680BC704700BF00ED00E080B483B079
:10227C0000AF0346FB7197F90730002B0BDBFB79A2
:10228C0003F01F02064997F907305B09012000FA99
:10229C0002F241F8232000BF0C37BD4680BC7047CA
:1022AC0000E100E080B483B000AF03463960FB71FD
:1022BC0097F90730002B0ADB3B68DAB20C4997F927
:1022CC0007301201D2B20B4483F800230AE03B68BA
:1022DC00DAB20849FB7903F00F03043B1201D2B2C6
:1022EC000B441A7600BF0C37BD4680BC704700BF4C
:1022FC0000E100E000ED00E080B489B000AFF860D0
:10230C00B9607A60FB6803F00703FB61FB69C3F1FA
:10231C000703042B28BF0423BB61FB690433062B82
:10232C0002D9FB69033B00E000237B614FF0FF32D5
:10233C00BB6902FA03F3DA43BB681A407B699A4023
:10234C004FF0FF317B6901FA03F3D9437B680B40F3
:10235C00134318462437BD4680BC704780B582B005
:10236C0000AF78607B68013BB3F1807F01D3012320
:10237C000FE00A4A7B68013B53600F214FF0FF309E
:10238C00FFF790FF054B00229A60044B07221A605E
:10239C00002318460837BD4680BD00BF10E000E0A2
:1023AC0080B582B000AF78607868FFF72DFF00BF72
:1023BC000837BD4680BD80B586B000AF0346B96016
:1023CC007A60FB7300237B61FFF742FF78617A68C8
:1023DC00B9687869FFF790FF024697F90F301146FC
:1023EC001846FFF75FFF00BF1837BD4680BD80B5AC
:1023FC0082B000AF0346FB7197F907301846FFF720
:10240C0035FF00BF0837BD4680BD80B582B000AF38
:10241C0078607868FFF7A2FF034618460837BD4678
:10242C0080BD000080B48BB000AF786039600023B1
:10243C007B6200233B6269E101227B6A02FA03F3AF
:10244C00FB613B681B68FA691340BB61BA69FB69A5
:10245C009A4240F058813B685B689A4A93425ED03E
:10246C00984A934275D8984A934258D0964A9342C8
:10247C006FD8964A934252D0944A934269D8944A60
:10248C0093424CD0924A934263D8924A934246D09C
:10249C00904A93425DD8122B2AD8122B59D801A2FC
:1024AC0052F823F02B2500080525000817250008F5
:1024BC00592500085F2500085F2500085F250008E6
:1024CC005F2500085F2500085F2500085F250008D0
:1024DC005F2500085F2500085F2500085F250008C0
:1024EC005F2500085F2500080D2500082125000840
:1024FC00794A934213D02CE03B68DB683B6229E0BD
:10250C003B68DB6804333B6224E03B68DB680833E0
:10251C003B621FE03B68DB680C333B621AE03B68B4
:10252C009B68002B02D104233B6213E03B689B6841
:10253C00012B05D108233B627B68FA691A6109E01B
:10254C0008233B627B68FA695A6103E000233B6213
:10255C0000E000BFBB69FF2B01D87B6801E07B6802
:10256C0004337B61BB69FF2B02D87B6A9B0002E0C2
:10257C007B6A083B9B003B617B691A680F213B69B6
:10258C0001FA03F3DB431A40396A3B6901FA03F39E
:10259C001A437B691A603B685B6803F08053002B1D
:1025AC0000F0B1804D4B9B694C4A43F001039361A1
:1025BC004A4B9B6903F00103BB60BB68484A7B6ACA
:1025CC009B08023352F82330FB607B6A03F0030351
:1025DC009B000F2202FA03F3DB43FA681340FB6003
:1025EC007B68404A934213D07B683F4A93420DD09C
:1025FC007B683E4A934207D07B683D4A934201D1A7
:10260C00032306E0042304E0022302E0012300E09C
:10261C0000237A6A02F0030292009340FA68134393
:10262C00FB602F497B6A9B080233FA6841F8232030
:10263C003B685B6803F48013002B06D02D4B9A6823
:10264C002C49BB6913438B6006E02A4B9A68BB6923
:10265C00DB43284913408B603B685B6803F4001331
:10266C00002B06D0234BDA682249BB691343CB609D
:10267C0006E0204BDA68BB69DB431E491340CB6094
:10268C003B685B6803F40033002B06D0194B5A6887
:10269C001849BB6913434B6006E0164B5A68BB697B
:1026AC00DB43144913404B603B685B6803F4803395
:1026BC00002B21D00F4B1A680E49BB6913430B60DA
:1026CC0021E000BF00003210000031100000221089
:1026DC000000211000001210000011100010024028
:1026EC000000014000080140000C014000100140B6
:1026FC0000140140000401400B4B1A68BB69DB431A
:10270C00094913400B607B6A01337B623B681A6892
:10271C007B6A22FA03F3002B7FF48EAE00BF00BF5E
:10272C002C37BD4680BC70470004014080B485B096
:10273C0000AF78600B467B807B689A687B8813407F
:10274C00002B02D00123FB7301E00023FB73FB7B06
:10275C0018461437BD4680BC704780B483B000AFB8
:10276C0078600B467B8013467B707B78002B03D004
:10277C007A887B681A6103E07B881A047B681A618B
:10278C0000BF0C37BD4680BC704780B485B000AF2D
:10279C0078600B467B807B68DB68FB607A88FB6823
:1027AC0013401A04FB68D9437B880B401A437B689F
:1027BC001A6100BF1437BD4680BC704780B582B02B
:1027CC0000AF0346FB80084B5A69FB881340002B73
:1027DC0006D0054AFB885361FB88184600F006F8C2
:1027EC0000BF0837BD4680BD0004014080B483B0F3
:1027FC0000AF0346FB8000BF0C37BD4680BC704762
:10280C0080B584B000AF78607B68002B01D10123C8
:10281C002BE17B6893F83D30DBB2002B06D17B6853
:10282C00002283F83C207868FFF71AFB7B6824228F
:10283C0083F83D207B681B681A687B681B6822F054
:10284C0001021A607B681B681A687B681B6842F47B
:10285C0000421A607B681B681A687B681B6822F44C
:10286C0000421A6001F030F8F8607B685B68814ABE
:10287C00934207D8FB68804A934294BF01230023FC
:10288C00DBB206E0FB687D4A934294BF0123002330
:10289C00DBB2002B01D00123E7E0FB68784AA2FBF6
:1028AC0003239B0CBB607B681B685B6823F03F01B8
:1028BC007B681B68BA680A435A607B681B681B6A92
:1028CC0023F03F017B685B686A4A934202D8BB687D
:1028DC00013309E0BB684FF4967202FB03F3694ABB
:1028EC00A2FB03239B0901337A6812680B43136222
:1028FC007B681B68DB6923F44F4222F0FF027B6884
:10290C005B685C498B4219D8FB68591E7B685B6815
:10291C005B00B1FBF3F3591C40F6FC730B40002B2E
:10292C000AD0FB68591E7B685B685B00B1FBF3F354
:10293C000133C3F30B0351E004234FE07B689B6826
:10294C00002B11D1FB68581E7B6859680B465B0045
:10295C000B44B0FBF3F30133C3F30B03002B0CBF9D
:10296C0001230023DBB212E0FB68581E7B68596818
:10297C000B469B000B4499000B44B0FBF3F3013363
:10298C00C3F30B03002B0CBF01230023DBB2002B82
:10299C0001D0012322E07B689B68002B0ED1FB68E1
:1029AC00581E7B6859680B465B000B44B0FBF3F375
:1029BC000133C3F30B0343F400430FE0FB68581ED1
:1029CC007B6859680B469B000B4499000B44B0FB89
:1029DC00F3F30133C3F30B0343F440437968096801
:1029EC001343CB617B681B681B6823F0C0017B68B9
:1029FC00DA697B681B6A1A437B681B680A431A6096
:102A0C007B681B689B6823F4034323F0FF037A68FD
:102A1C0011697A68D26811437A6812680B43936023
:102A2C007B681B68DB6823F0FF017B685A697B6855
:102A3C009B691A437B681B680A43DA607B681B68D6
:102A4C001A687B681B6842F001021A607B680022DE
:102A5C001A647B68202283F83D207B6800221A636D
:102A6C007B68002283F83E20002318461037BD46B1
:102A7C0080BD00BFA08601007F841E00FF083D00C2
:102A8C0083DE1B43D34D621080B588B002AFF86073
:102A9C007A601A460B467B8113463B81FFF786FB17
:102AAC007861FB6893F83D30DBB2202B40F0E0807E
:102ABC007B690093192301227049F86800F064F9CE
:102ACC000346002B01D00223D3E0FB6893F83C3083
:102ADC00012B01D10223CCE0FB68012283F83C20BE
:102AEC00FB681B681B6803F00103012B07D0FB6814
:102AFC001B681A68FB681B6842F001021A60FB68CD
:102B0C001B681A68FB681B6822F400621A60FB6879
:102B1C00212283F83D20FB68102283F83E20FB68BD
:102B2C0000221A64FB687A685A62FB683A895A85F3
:102B3C00FB685B8D9AB2FB681A85FB68504ADA62B7
:102B4C0079897B693A6AF86800F09CF80346002B97
:102B5C0001D001238DE000233B61FB681B685B699E
:102B6C003B61FB681B689B693B613B6966E07A696A
:102B7C00396AF86800F022FA0346002B0DD0FB6886
:102B8C001B6C042B07D1FB681B681A68FB681B685D
:102B9C0042F400721A6001236BE0FB685B6A1A78DE
:102BAC00FB681B681A61FB685B6A5A1CFB685A62FB
:102BBC00FB685B8D9BB2013B9AB2FB685A85FB6844
:102BCC001B8D013B9AB2FB681A85FB681B685B691D
:102BDC0003F00403042B1BD1FB681B8D002B17D0B7
:102BEC00FB685B6A1A78FB681B681A61FB685B6A96
:102BFC005A1CFB685A62FB685B8D9BB2013B9AB214
:102C0C00FB685A85FB681B8D013B9AB2FB681A85E1
:102C1C007A69396AF86800F019FA0346002B0DD06E
:102C2C00FB681B6C042B07D1FB681B681A68FB68DC
:102C3C001B6842F400721A6001231AE0FB681B8DBA
:102C4C00002B94D1FB681B681A68FB681B6842F464
:102C5C0000721A60FB68202283F83D20FB6800227A
:102C6C0083F83E20FB68002283F83C20002300E020
:102C7C00022318461837BD4680BD00BF0200100065
:102C8C000000FFFF80B588B002AFF8607A603B604F
:102C9C000B467B81FB68DB6A7B617B69082B06D06A
:102CAC007B69012B03D07B6913F5803F08D1FB684E
:102CBC001B681A68FB681B6842F480721A600BE090
:102CCC00FB681B6B122B07D1FB681B681A68FB682F
:102CDC001B6842F480721A603B6800937B68002288
:102CEC004FF00111F86800F04FF80346002B0DD09F
:102CFC00FB681B681B6803F48073B3F5807F03D1FA
:102D0C00FB684FF400721A64032335E0FB681B69FF
:102D1C00B3F5804F08D17B89DBB21A46FB681B6880
:102D2C0002F0FE021A611BE07B89DB11DBB203F0BF
:102D3C000603DBB263F00F03DAB2FB681B681A619F
:102D4C003B687A680E49F86800F098F80346002B47
:102D5C0001D0012310E07B89DAB2FB681B681A6191
:102D6C003B687A680749F86800F088F80346002B3E
:102D7C0001D0012300E0002318461837BD4680BD62
:102D8C00080001000200010080B584B000AFF860BB
:102D9C00B9603B601346FB7148E03B68B3F1FF3F01
:102DAC0044D0FFF703FA0246BB69D31A3A689A4239
:102DBC0002D33B68002B39D1BB681B0CDBB2012B57
:102DCC000DD1FB681B685B69DA43BB6813409BB28F
:102DDC00002B0CBF01230023DBB21A460CE0FB686E
:102DEC001B689B69DA43BB6813409BB2002B0CBF7A
:102DFC0001230023DBB21A46FB799A4216D1FB68F9
:102E0C0000221A63FB68202283F83D20FB68002215
:102E1C0083F83E20FB681B6C43F02002FB681A64AD
:102E2C00FB68002283F83C20012323E0BB681B0CC9
:102E3C00DBB2012B0DD1FB681B685B69DA43BB6805
:102E4C0013409BB2002B0CBF01230023DBB21A46AC
:102E5C000CE0FB681B689B69DA43BB6813409BB2B0
:102E6C00002B0CBF01230023DBB21A46FB799A42DC
:102E7C0093D0002318461037BD4680BD80B584B072
:102E8C0000AFF860B9607A603B6071E0FB681B686A
:102E9C005B6903F48063B3F5806F23D1FB681B6817
:102EAC001A68FB681B6842F400721A60FB681B68A6
:102EBC006FF480625A61FB6800221A63FB6820225F
:102ECC0083F83D20FB68002283F83E20FB681B6CD6
:102EDC0043F00402FB681A64FB68002283F83C2070
:102EEC00012367E07B68B3F1FF3F41D0FFF75EF948
:102EFC0002463B68D31A7A689A4202D37B68002B4D
:102F0C0036D1BB681B0CDBB2012B0CD1FB681B68E8
:102F1C005B69DA43BB6813409BB2002B14BF0123DF
:102F2C000023DBB20BE0FB681B689B69DA43BB68D0
:102F3C0013409BB2002B14BF01230023DBB2002BE8
:102F4C0016D0FB6800221A63FB68202283F83D2010
:102F5C00FB68002283F83E20FB681B6C43F02002C8
:102F6C00FB681A64FB68002283F83C20012321E0F3
:102F7C00BB681B0CDBB2012B0CD1FB681B685B69BB
:102F8C00DA43BB6813409BB2002B14BF0123002310
:102F9C00DBB20BE0FB681B689B69DA43BB68134030
:102FAC009BB2002B14BF01230023DBB2002B7FF458
:102FBC006DAF002318461037BD4680BD80B584B078
:102FCC0000AFF860B9607A6034E0F86800F086F819
:102FDC000346002B01D0012334E0BB68B3F1FF3F63
:102FEC0028D0FFF7E3F802467B68D31ABA689A42F6
:102FFC0002D3BB68002B1DD1FB681B685B6903F017
:10300C008003802B16D0FB6800221A63FB682022F9
:10301C0083F83D20FB68002283F83E20FB681B6C84
:10302C0043F02002FB681A64FB68002283F83C2002
:10303C00012307E0FB681B685B6903F08003802BAE
:10304C00C3D1002318461037BD4680BD80B584B06F
:10305C0000AFF860B9607A6034E0F86800F03EF8D0
:10306C000346002B01D0012334E0BB68B3F1FF3FD2
:10307C0028D0FFF79BF802467B68D31ABA689A42AD
:10308C0002D3BB68002B1DD1FB681B685B6903F086
:10309C000403042B16D0FB6800221A63FB68202261
:1030AC0083F83D20FB68002283F83E20FB681B6CF4
:1030BC0043F02002FB681A64FB68002283F83C2072
:1030CC00012307E0FB681B685B6903F00403042B16
:1030DC00C3D1002318461037BD4680BD80B483B0E1
:1030EC0000AF78607B681B685B6903F48063B3F5A1
:1030FC00806F1BD17B681B686FF480625A617B68A0
:10310C0000221A637B68202283F83D207B68002212
:10311C0083F83E207B681B6C43F004027B681A64C6
:10312C007B68002283F83C20012300E00023184632
:10313C000C37BD4680BC704780B586B000AF786058
:10314C007B68002B01D101236CE27B681B6803F0C8
:10315C000103002B00F08780924B5B6803F00C039B
:10316C00042B0CD08F4B5B6803F00C03082B12D193
:10317C008C4B5B6803F48033B3F5803F0BD1894BE8
:10318C001B6803F40033002B6CD07B685B68002B4E
:10319C0068D1012346E27B685B68B3F5803F06D1BA
:1031AC00804B1B687F4A43F4803313602EE07B68AE
:1031BC005B68002B0CD17B4B1B687A4A23F4803361
:1031CC001360784B1B68774A23F4802313601DE04F
:1031DC007B685B68B3F5A02F0CD1724B1B68714AEE
:1031EC0043F4802313606F4B1B686E4A43F48033A7
:1031FC0013600BE06B4B1B686A4A23F4803313603B
:10320C00684B1B68674A23F4802313607B685B68F8
:10321C00002B13D0FEF7CAFF386108E0FEF7C6FF9B
:10322C0002463B69D31A642B01D90323FAE15D4BA7
:10323C001B6803F40033002BF0D014E0FEF7B6FF4C
:10324C00386108E0FEF7B2FF02463B69D31A642BE3
:10325C0001D90323E6E1534B1B6803F40033002B25
:10326C00F0D100E000BF7B681B6803F00203002B69
:10327C0063D04C4B5B6803F00C03002B0BD0494B19
:10328C005B6803F00C03082B1CD1464B5B6803F402
:10329C008033002B16D1434B1B6803F00203002B29
:1032AC0005D07B681B69012B01D00123BAE13D4B92
:1032BC001B6823F0F8027B685B69DB003949134318
:1032CC000B603AE07B681B69002B20D0364B012247
:1032DC001A60FEF76BFF386108E0FEF767FF0246E5
:1032EC003B69D31A022B01D903239BE12D4B1B689D
:1032FC0003F00203002BF0D02A4B1B6823F0F802DA
:10330C007B685B69DB00274913430B6015E0264B98
:10331C0000221A60FEF74AFF386108E0FEF746FF0C
:10332C0002463B69D31A022B01D903237AE11D4BC8
:10333C001B6803F00203002BF0D17B681B6803F0C1
:10334C000803002B3AD07B689B69002B19D0174BD4
:10335C0001221A60FEF72AFF386108E0FEF726FF0B
:10336C0002463B69D31A022B01D903235AE10D4BB8
:10337C005B6A03F00203002BF0D0012000F0CCFAC2
:10338C001CE00A4B00221A60FEF710FF38610FE0B8
:10339C00FEF70CFF02463B69D31A022B08D9032314
:1033AC0040E100BF00100240000042428004424253
:1033BC009E4B5B6A03F00203002BE9D17B681B6810
:1033CC0003F00403002B00F0A6800023FB75974B41
:1033DC00DB6903F08053002B0DD1944BDB69934ACE
:1033EC0043F08053D361914BDB6903F08053BB6096
:1033FC00BB680123FB758E4B1B6803F48073002B99
:10340C0018D18B4B1B688A4A43F480731360FEF708
:10341C00CDFE386108E0FEF7C9FE02463B69D31ABF
:10342C00642B01D90323FDE0814B1B6803F48073EB
:10343C00002BF0D07B68DB68012B06D17B4B1B6A21
:10344C007A4A43F0010313622DE07B68DB68002BA2
:10345C000CD1764B1B6A754A23F001031362734B34
:10346C001B6A724A23F0040313621CE07B68DB685E
:10347C00052B0CD16D4B1B6A6C4A43F00403136291
:10348C006A4B1B6A694A43F0010313620BE0674BFA
:10349C001B6A664A23F001031362644B1B6A634A7E
:1034AC0023F0040313627B68DB68002B15D0FEF756
:1034BC007DFE38610AE0FEF779FE02463B69D31ABD
:1034CC0041F28832934201D90323ABE0574B1B6A7C
:1034DC0003F00203002BEED014E0FEF767FE386118
:1034EC000AE0FEF763FE02463B69D31A41F28832CA
:1034FC00934201D9032395E04C4B1B6A03F0020362
:10350C00002BEED1FB7D012B05D1484BDB69474AE3
:10351C0023F08053D3617B68DB69002B00F0818042
:10352C00424B5B6803F00C03082B61D07B68DB69B2
:10353C00022B46D13F4B00221A60FEF737FE386152
:10354C0008E0FEF733FE02463B69D31A022B01D981
:10355C00032367E0354B1B6803F00073002BF0D19D
:10356C007B681B6AB3F5803F08D1304B5B6823F452
:10357C0000327B689B682D4913434B602B4B5B6877
:10358C0023F474127B68196A7B685B6A0B432749C6
:10359C0013434B60274B01221A60FEF707FE38617C
:1035AC0008E0FEF703FE02463B69D31A022B01D951
:1035BC00032337E01D4B1B6803F00073002BF0D086
:1035CC002FE01C4B00221A60FEF7F0FD386108E07A
:1035DC00FEF7ECFD02463B69D31A022B01D90323FB
:1035EC0020E0124B1B6803F00073002BF0D118E0A5
:1035FC007B68DB69012B01D1012313E00B4B5B686A
:10360C00FB60FB6803F480327B681B6A9A4206D12C
:10361C00FB6803F470127B685B6A9A4201D0012349
:10362C0000E0002318461837BD4680BD001002404C
:10363C00007000406000424280B584B000AF7860FA
:10364C0039607B68002B01D10123D0E06A4B1B68E9
:10365C0003F007033A689A4210D9674B1B6823F0B2
:10366C00070265493B6813430B60634B1B6803F00F
:10367C0007033A689A4201D00123B8E07B681B68C3
:10368C0003F00203002B20D07B681B6803F00403BB
:10369C00002B05D0594B5B68584A43F4E0635360E8
:1036AC007B681B6803F00803002B05D0534B5B6849
:1036BC00524A43F460535360504B5B6823F0F00262
:1036CC007B689B684D4913434B607B681B6803F018
:1036DC000103002B40D07B685B68012B07D1474B63
:1036EC001B6803F40033002B15D101237FE07B68AA
:1036FC005B68022B07D1414B1B6803F00073002B56
:10370C0009D1012373E03D4B1B6803F00203002B2E
:10371C0001D101236BE0394B5B6823F003027B681A
:10372C005B68364913434B60FEF740FDF8600AE0D6
:10373C00FEF73CFD0246FB68D31A41F288329342F5
:10374C0001D9032353E02D4B5B6803F00C027B681B
:10375C005B689B009A42EBD1274B1B6803F0070375
:10376C003A689A4210D2244B1B6823F00702224974
:10377C003B6813430B60204B1B6803F007033A684C
:10378C009A4201D0012332E07B681B6803F00403EA
:10379C00002B08D0194B5B6823F4E0627B68DB6874
:1037AC00164913434B607B681B6803F00803002B1E
:1037BC0009D0124B5B6823F460527B681B69DB00F9
:1037CC000E4913434B6000F021F802460B4B5B682B
:1037DC001B0903F00F030A49CB5C22FA03F3094AD5
:1037EC001360094B1B681846FEF79EFC0023184615
:1037FC001037BD4680BD00BF0020024000100240C3
:10380C0090500008800000208400002080B487B015
:10381C0000AF0023FB600023BB6000237B6100230F
:10382C007B6000233B611E4B5B68FB60FB6803F015
:10383C000C03042B02D0082B03D027E0194B3B615F
:10384C0027E0FB689B0C03F00F03174AD35C7B60EB
:10385C00FB6803F48033002B10D0114B5B685B0CBE
:10386C0003F00103114AD35CBB607B680D4A02FB79
:10387C0003F2BB68B2FBF3F37B6104E07B680C4A98
:10388C0002FB03F37B617B693B6102E0054B3B610F
:10389C0000BF3B6918461C37BD4680BC704700BF53
:1038AC000010024000127A00A8500008B85000081E
:1038BC0000093D0080B400AF024B1B681846BD46A2
:1038CC0080BC70478000002080B500AFFFF7F2FF8E
:1038DC000246054B5B681B0A03F007030349CB5CEC
:1038EC0022FA03F3184680BD00100240A0500008D5
:1038FC0080B500AFFFF7DEFF0246054B5B68DB0AC5
:10390C0003F007030349CB5C22FA03F3184680BD8E
:10391C0000100240A050000880B485B000AF786061
:10392C000A4B1B680A4AA2FB03235B0A7A6802FB58
:10393C0003F3FB6000BFFB685A1EFA60002BF9D141
:10394C0000BF00BF1437BD4680BC7047800000200C
:10395C00D34D621080B582B000AF78607B68002BCD
:10396C0001D1012341E07B6893F83D30DBB2002BA1
:10397C0006D17B68002283F83C207868FEF7C0FAF9
:10398C007B68022283F83D207B681A687B680433CD
:10399C001946104600F05CFA7B68012283F8462039
:1039AC007B68012283F83E207B68012283F83F204C
:1039BC007B68012283F840207B68012283F8412038
:1039CC007B68012283F842207B68012283F8432024
:1039DC007B68012283F844207B68012283F8452010
:1039EC007B68012283F83D20002318460837BD462A
:1039FC0080BD000080B485B000AF78607B6893F820
:103A0C003D30DBB2012B01D001233AE07B6802226E
:103A1C0083F83D207B681B68DA687B681B6842F082
:103A2C000102DA607B681B68184A93420ED07B68EF
:103A3C001B68B3F1804F09D07B681B68144A934212
:103A4C0004D07B681B68134A934211D17B681B68B6
:103A5C009B6803F00703FB60FB68062B10D07B68A8
:103A6C001B681A687B681B6842F001021A6007E049
:103A7C007B681B681A687B681B6842F001021A603D
:103A8C00002318461437BD4680BC7047002C0140FB
:103A9C00000400400008004080B584B000AF78609E
:103AAC007B681B68DB68FB607B681B681B69BB6001
:103ABC00BB6803F00203002B20D0FB6803F0020369
:103ACC00002B1BD07B681B686FF002021A617B68AD
:103ADC0001221A777B681B689B6903F00303002B98
:103AEC0003D0786800F098F905E0786800F08BF95D
:103AFC00786800F09AF97B6800221A77BB6803F0AB
:103B0C000403002B20D0FB6803F00403002B1BD014
:103B1C007B681B686FF004021A617B6802221A77BB
:103B2C007B681B689B6903F44073002B03D0786897
:103B3C0000F072F905E0786800F065F9786800F03B
:103B4C0074F97B6800221A77BB6803F00803002B1A
:103B5C0020D0FB6803F00803002B1BD07B681B688C
:103B6C006FF008021A617B6804221A777B681B6865
:103B7C00DB6903F00303002B03D0786800F04CF9E9
:103B8C0005E0786800F03FF9786800F04EF97B6842
:103B9C0000221A77BB6803F01003002B20D0FB68BF
:103BAC0003F01003002B1BD07B681B686FF0100216
:103BBC001A617B6808221A777B681B68DB6903F43F
:103BCC004073002B03D0786800F026F905E0786884
:103BDC0000F019F9786800F028F97B6800221A7750
:103BEC00BB6803F00103002B0CD0FB6803F001034E
:103BFC00002B07D07B681B686FF001021A61786894
:103C0C00FDF7E4FEBB6803F08003002B0CD0FB68CF
:103C1C0003F08003002B07D07B681B686FF08002D9
:103C2C001A61786800F07FFABB6803F04003002B40
:103C3C000CD0FB6803F04003002B07D07B681B689B
:103C4C006FF040021A61786800F0F8F8BB6803F076
:103C5C002003002B0CD0FB6803F02003002B07D0B3
:103C6C007B681B686FF020021A61786800F052FACA
:103C7C0000BF1037BD4680BD80B584B000AF786002
:103C8C0039600023FB737B6893F83C30012B01D126
:103C9C000223B4E07B68012283F83C207B6802227B
:103CAC0083F83D207B681B689B68BB60BB6823F076
:103CBC007703BB60BB6823F47F43BB607B681B68E6
:103CCC00BA689A603B681B68B3F5005F3ED0B3F5E9
:103CDC00005F00F28780B3F5805F00F08680B3F55B
:103CEC00805F7FD8702B1AD0702B7BD8602B50D074
:103CFC00602B77D8502B3CD0502B73D8402B58D0FE
:103D0C00402B6FD8302B64D0302B6BD8202B60D04D
:103D1C00202B67D8002B5CD0102B5AD062E07B682C
:103D2C0018683B6899683B685A683B68DB6800F028
:103D3C0074F97B681B689B68BB60BB6843F07703B6
:103D4C00BB607B681B68BA689A604FE07B68186838
:103D5C003B6899683B685A683B68DB6800F05DF922
:103D6C007B681B689A687B681B6842F480429A6087
:103D7C003CE07B6818683B6859683B68DB681A460E
:103D8C0000F0D4F87B681B685021184600F02BF922
:103D9C002CE07B6818683B6859683B68DB681A46FE
:103DAC0000F0F2F87B681B686021184600F01BF9E4
:103DBC001CE07B6818683B6859683B68DB681A46EE
:103DCC0000F0B4F87B681B684021184600F00BF932
:103DDC000CE07B681A683B681B681946104600F0BB
:103DEC0002F903E00123FB7300E000BF7B680122B2
:103DFC0083F83D207B68002283F83C20FB7B18462F
:103E0C001037BD4680BD80B483B000AF786000BF72
:103E1C000C37BD4680BC704780B483B000AF78606F
:103E2C0000BF0C37BD4680BC704780B483B000AF78
:103E3C00786000BF0C37BD4680BC704780B483B03F
:103E4C0000AF786000BF0C37BD4680BC70470000E7
:103E5C0080B485B000AF786039607B681B68FB600C
:103E6C007B682F4A93420BD07B68B3F1804F07D00D
:103E7C007B682C4A934203D07B682B4A934208D12F
:103E8C00FB6823F07003FB603B685B68FA681343C4
:103E9C00FB607B68224A93420BD07B68B3F1804F66
:103EAC0007D07B681F4A934203D07B681E4A93421B
:103EBC0008D1FB6823F44073FB603B68DB68FA684D
:103ECC001343FB60FB6823F080023B685B69134380
:103EDC00FB607B68FA681A603B689A687B68DA62F8
:103EEC003B681A687B689A627B680D4A934203D1DF
:103EFC003B681A697B681A637B6801225A617B688C
:103F0C001B6903F00103002B05D07B681B6923F0B0
:103F1C0001027B681A6100BF1437BD4680BC704734
:103F2C00002C0140000400400008004080B487B021
:103F3C0000AFF860B9607A60FB681B6A7B61FB6854
:103F4C001B6A23F00102FB681A62FB689B693B61E8
:103F5C003B6923F0F0033B617B681B013A69134317
:103F6C003B617B6923F00A037B617A69BB6813436D
:103F7C007B61FB683A699A61FB687A691A6200BFD7
:103F8C001C37BD4680BC704780B487B000AFF8606A
:103F9C00B9607A60FB681B6A7B61FB681B6A23F063
:103FAC001002FB681A62FB689B693B613B6923F456
:103FBC0070433B617B681B033A6913433B617B692C
:103FCC0023F0A0037B61BB681B017A6913437B61FF
:103FDC00FB683A699A61FB687A691A6200BF1C3700
:103FEC00BD4680BC704780B485B000AF7860396046
:103FFC007B689B68FB60FB6823F07003FB603A688E
:10400C00FB68134343F00703FB607B68FA689A6014
:10401C0000BF1437BD4680BC704780B487B000AF7A
:10402C00F860B9607A603B60FB689B687B617B6978
:10403C0023F47F437B613B681A027B681A43BB689D
:10404C0013437A6913437B61FB687A699A6000BFFA
:10405C001C37BD4680BC704780B485B000AF78601B
:10406C0039607B6893F83C30012B01D1022346E088
:10407C007B68012283F83C207B68022283F83D2078
:10408C007B681B685B68FB607B681B689B68BB601C
:10409C00FB6823F07003FB603B681B68FA681343F2
:1040AC00FB607B681B68FA685A607B681B68164A61
:1040BC0093420ED07B681B68B3F1804F09D07B68AC
:1040CC001B68124A934204D07B681B68104A9342C7
:1040DC000CD1BB6823F08003BB603B685B68BA689B
:1040EC001343BB607B681B68BA689A607B680122CB
:1040FC0083F83D207B68002283F83C20002318467F
:10410C001437BD4680BC7047002C014000040040B1
:10411C000008004080B483B000AF786000BF0C375B
:10412C00BD4680BC704780B483B000AF786000BFE0
:10413C000C37BD4680BC704780B582B000AF78604C
:10414C007B68002B01D1012342E07B6893F841305E
:10415C00DBB2002B06D17B68002283F84020786804
:10416C00FDF7F2FE7B68242283F841207B681B68F4
:10417C00DA687B681B6822F40052DA60786800F019
:10418C0071F97B681B681A697B681B6822F4904282
:10419C001A617B681B685A697B681B6822F02A02CB
:1041AC005A617B681B68DA687B681B6842F40052B2
:1041BC00DA607B6800225A647B68202283F84120F5
:1041CC007B68202283F842207B6800225A630023FC
:1041DC0018460837BD4680BD80B58AB002AFF8607E
:1041EC00B9603B601346FB8000237B61FB6893F84E
:1041FC004130DBB2202B75D1BB68002B02D0FB8881
:10420C00002B01D101236EE0FB6800225A64FB688D
:10421C00212283F84120FDF7C9FF7861FB68FA88F9
:10422C009A84FB68FA88DA84FB689B68B3F5805F34
:10423C0008D1FB681B69002B04D10023FB61BB6810
:10424C00BB6103E0BB68FB610023BB612EE03B68F4
:10425C0000937B6900228021F86800F048F803463F
:10426C00002B05D0FB68202283F8412003233AE081
:10427C00FB69002B0BD1BB691B881A46FB681B68BA
:10428C00C2F308025A60BB690233BB6107E0FB69E9
:10429C001A78FB681B685A60FB690133FB61FB6889
:1042AC00DB8C9BB2013B9AB2FB68DA84FB68DB8C3B
:1042BC009BB2002BCBD13B6800937B690022402141
:1042CC00F86800F014F80346002B05D0FB68202298
:1042DC0083F84120032306E0FB68202283F8412069
:1042EC00002300E0022318462037BD4680BD80B570
:1042FC0086B000AFF860B9603B601346FB713BE0E1
:10430C003B6AB3F1FF3F37D0FDF750FF02463B68E5
:10431C00D31A3A6A9A4202D33B6A002B01D1032387
:10432C003AE0FB681B68DB6803F00403002B23D026
:10433C00BB68802B20D0BB68402B1DD0FB681B6852
:10434C001B6803F00803082B16D100237B61FB6864
:10435C001B681B687B61FB681B685B687B617B6906
:10436C00F86800F01DF8FB6808225A64FB6800220C
:10437C0083F8402001230FE0FB681B681A68BB68B8
:10438C001340BA689A420CBF01230023DBB21A46D1
:10439C00FB799A42B4D0002318461837BD4680BD2D
:1043AC0080B495B000AF78607B681B680C337B637E
:1043BC007B6B53E8003F3B633B6B23F49073FB64D4
:1043CC007B681B680C33FA6C3A64FB63F96B3A6CD0
:1043DC0041E80023BB63BB6B002BE5D17B681B68FA
:1043EC0014333B623B6A53E8003FFB61FB6923F0EB
:1043FC000103BB647B681B681433BA6CFA62BB6242
:10440C00B96AFA6A41E800237B627B6A002BE5D12A
:10441C007B681B6B012B19D17B681B680C33FB6011
:10442C00FB6853E8003FBB60BB6823F010037B6460
:10443C007B681B680C337A6CBA617B617969BA69E9
:10444C0041E800233B613B69002BE5D17B682022CE
:10445C0083F842207B6800221A6300BF5437BD46A4
:10446C0080BC704780B584B000AF78607B681B68F7
:10447C001B6923F440517B68DA687B681B680A432C
:10448C001A617B689A687B681B691A437B685B6955
:10449C001343BB607B681B68DB6823F4B05323F0C9
:1044AC000C037A681268B9680B43D3607B681B688D
:1044BC005B6923F440717B689A697B681B680A43CB
:1044CC005A617B681B682C4A934203D1FFF710FAA0
:1044DC00F86002E0FFF7F8F9F860FA6813469B0001
:1044EC0013449A001A447B685B689B00B2FBF3F39D
:1044FC00224AA2FB03235B091901FA6813469B00AD
:10450C0013449A001A447B685B689B00B2FBF3F27D
:10451C001A4BA3FB02035B09642000FB03F3D31AC1
:10452C001B013233154AA2FB03235B0903F0F00392
:10453C001944FA6813469B0013449A001A447B688A
:10454C005B689B00B2FBF3F20C4BA3FB02035B0911
:10455C00642000FB03F3D31A1B013233074AA2FB7E
:10456C0003235B0903F00F027B681B680A449A6003
:10457C0000BF1037BD4680BD003801401F85EB5190
:10458C00014B1868704700BF8C00002070B50026E6
:10459C000C4D0D4C641BA410A64209D100F090FCEC
:1045AC0000260A4D0A4C641BA410A64205D170BD0E
:1045BC0055F8043B98470136EEE755F8043B98470D
:1045CC000136F2E7F0500008F0500008F0500008F7
:1045DC00F450000803460244934200D1704703F89C
:1045EC00011BF9E70CB430B5174B0C1E1D689DB0C0
:1045FC0008DA8B234FF0FF302B601DB0BDE8304044
:10460C0002B070474FF40273ADF814300CBF234660
:10461C0004F1FF33049307934FF6FF730290069057
:10462C00ADF81630284621AB209A02A9019300F070
:10463C0089F8431CBCBF8B232B60002CDDD00022DF
:10464C00029B1A70D9E700BF8C0000200EB46FF0EB
:10465C00004100B59CB01DAB0290069007910491EF
:10466C000848094953F8042B0591006802A90193E5
:10467C0000F068F80022029B1A701CB05DF804EB85
:10468C0003B070478C0000200802FFFF2DE9F047B3
:10469C008E6882469E420C4690461F4638D88A89C0
:1046AC0012F4906F32D0256809690133A5EB01092A
:1046BC0065694B4405EB450505EBD5756D109D42C1
:1046CC0038BF1D46530531D5294600F053FB06462D
:1046DC0050B90C234FF0FF30CAF80030A38943F0D7
:1046EC004003A381BDE8F0874A46216900F0CEFA69
:1046FC00A38923F4906343F08003A38126614E4485
:10470C0026603E466561A5EB0905A560BE4200D951
:10471C003E4632464146206800F0C6FAA36822683D
:10472C009B1B32440020A3602260DBE72A4600F08A
:10473C007BFB06460028E1D15046216900F0CEFAF9
:10474C00C7E700002DE9F04F98468B8907461B06FA
:10475C000D4614469DB00ED50B6963B9402100F08F
:10476C0009FB2860286120B90C233B604FF0FF3017
:10477C00D1E040236B610023099320238DF829306D
:10478C0030234FF00109CDF80C80DFF8A4818DF8AF
:10479C002A3023469A4613F8012B0AB1252AF9D15F
:1047AC00BAEB040B0BD05B46224629463846FFF782
:1047BC006DFF013000F0AA80099A5A4409929AF8C8
:1047CC000030002B00F0A28000234FF0FF32CDE927
:1047DC0005230AF1010A049307938DF853301A93B9
:1047EC005446052214F8011B514800F041FA049A72
:1047FC00D8B9D00644BF20238DF85330110744BFDD
:10480C002B238DF853309AF800302A2B15D05446B0
:10481C0000204FF00A0C079A214611F8013B303B5F
:10482C00092B4ED9B0B1079214E0A0EB080309FA9A
:10483C0003F31343A2460493D2E7039B191D1B6891
:10484C000391002BBBBF5B4242F00202079307931C
:10485C00B8BF049223782E2B0CD163782A2B35D138
:10486C00039B02341A1D1B680392002BB8BF4FF038
:10487C00FF330593DFF8C8A003225046217800F0DF
:10488C00F7F940B14023A0EB0A0003FA00F0049BB7
:10489C0001340343049314F8011B062225488DF8B8
:1048AC00281000F0E5F9002838D0234B1BBB039BE4
:1048BC00073323F0070308330393099B334409930D
:1048CC0067E70C4601200CFB0232A5E700234FF0F2
:1048DC000A0C194601340593204610F8012B303A86
:1048EC00092A03D9002BC5D00591C3E7044601233F
:1048FC000CFB0121F0E703AB00932A4638460F4B23
:10490C0004A9AFF30080421C0646D6D1AB895B06E6
:10491C003FF52CAF09981DB0BDE8F08F03AB0093A9
:10492C002A463846054B04A900F07CF8EBE700BF9B
:10493C00BA500008C4500008000000009946000856
:10494C00C05000082DE9F047164699468A680B6955
:10495C0007469342B8BF1346336091F843200C4688
:10496C00DDF820800AB1013333602368990642BF19
:10497C00336802333360256815F0060506D104F15F
:10498C00190AE36832689B1AAB4228DC94F843207E
:10499C00131E226818BF012392062DD449463846AF
:1049AC0004F14302C047013020D02368E56803F0CE
:1049BC000603042B18BF002532684FF00006A368CD
:1049CC0008BFAD1A226908BF25EAE5759342C4BF3A
:1049DC009B1AED181A34B5421AD1002008E00123B5
:1049EC00524649463846C047013003D14FF0FF309C
:1049FC00BDE8F0870135C4E73020E11881F84300A9
:104A0C005A1C94F845102244023382F84310C5E72F
:104A1C000123224649463846C0470130E6D00136CC
:104A2C00D9E700002DE9FF470C46277E9146782FE9
:104A3C0080469A460C9904F1430207D8622F0AD893
:104A4C00002F00F0D980582F00F0A48004F142060A
:104A5C0084F842703AE0A7F16303152BF6D801A055
:104A6C0050F823F0C94A0008DD4A0008594A0008EA
:104A7C00594A0008594A0008594A0008DD4A0008FA
:104A8C00594A0008594A0008594A0008594A00086E
:104A9C00EB4B00080D4B0008CD4B0008594A0008A1
:104AAC00594A00080D4C0008594A00080D4B0008E3
:104ABC00594A0008594A0008D54B00080B6804F104
:104ACC0042061A1D1B680A6084F842300123A4E0D8
:104ADC00256808682E0600F104030AD505680B60EA
:104AEC00002D03DA2D236D4284F843300A235E48EF
:104AFC0019E015F0400F05680B6018BF2DB2EFE7F9
:104B0C000B682568181D0860280601D51D6802E091
:104B1C006906FBD51D886F2F0CBF08230A2352484A
:104B2C00002184F843106668002EA8BF2168A66097
:104B3C00A4BF21F0040121600DB9002E4DD0164602
:104B4C00B5FBF3F103FB1157C75D06F8017D2F464A
:104B5C00BB420D46F4D9082B0BD12368DF0708D5CF
:104B6C00236961689942DEBF302306F8013C06F1E7
:104B7C00FF36921B22614B4621464046CDF800A0E1
:104B8C0003AAFFF7DFFE01304CD14FF0FF3004B029
:104B9C00BDE8F087344884F845700E68236856F8F1
:104BAC00045B1F060E6014D5D90744BF43F02003E5
:104BBC0023601DB9236823F0200323601023AFE783
:104BCC00236843F0200323607823284884F8453079
:104BDC00E3E75E0648BFADB2E6E71646BBE70B68F7
:104BEC0026681D1D60690D6035061B6801D51860AF
:104BFC0002E07106FBD51880002316462361BAE744
:104C0C000B681A1D0A601E6800213046626800F0AD
:104C1C002FF808B1801B606063682361002384F85F
:104C2C004330A8E73246494640462369D047013015
:104C3C00ABD023689B0713D4E068039B9842B8BFA2
:104C4C001846A4E70123324649464046D047013076
:104C5C009BD00135E36803995B1AAB42F2DCEBE7BE
:104C6C00002504F11906F5E7CB500008DC500008CC
:104C7C00034610B5C9B202449342184601D1002034
:104C8C0003E0047801338C42F6D110BD0A44914202
:104C9C0000F1FF3300D1704710B511F8014B914270
:104CAC0003F8014FF9D110BD884210B501EB020495
:104CBC0002D98442234607D8431EA14208D011F8DA
:104CCC00012B03F8012FF8E7014602448A4200D178
:104CDC0010BD13F8014D02F8014DF7E738B5054644
:104CEC00002943D051F8043C0C1F002BB8BFE4182A
:104CFC0000F0D0F81E4A1368104633B96360146094
:104D0C002846BDE8384000F0CBB8A3420AD9216848
:104D1C006218934201BF1A685B6852182260636084
:104D2C000460EDE71A465B680BB1A342FAD911682F
:104D3C005018A0420BD120680144501883421160D6
:104D4C00DED118685B68014411605360D8E702D962
:104D5C000C232B60D4E7206821188B4201BF196803
:104D6C005B680918216063605460C9E738BD00BFF7
:104D7C0044010020F8B5CD1C25F0030508350C2D99
:104D8C0038BF0C25002D064601DBA94203D90C23A4
:104D9C0033600020F8BD00F07DF821490A68144604
:104DAC009CB9204F3B6823B92146304600F062F88D
:104DBC0038602946304600F05DF8431C23D10C23A3
:104DCC003046336000F06CF8E3E723685B1B17D4C4
:104DDC000B2B03D923601C44256004E06368A242BA
:104DEC000CBF0B605360304600F05AF804F10B0016
:104DFC00231D20F00700C21ACCD01B1AA350C9E700
:104E0C0022466468CCE7C41C24F00304A042E3D01F
:104E1C00211A304600F02EF80130DDD1CFE700BF6B
:104E2C004401002048010020F8B5074614460E4600
:104E3C0021B91146BDE8F840FFF79CBF22B9FFF736
:104E4C004DFF25462846F8BD00F030F8A0420FD2A1
:104E5C0021463846FFF78EFF05460028F2D0314632
:104E6C002246FFF713FF31463846FFF737FFE9E7D5
:104E7C003546E7E738B50023054D044608462B6058
:104E8C00FDF7DAF8431C02D12B6803B1236038BD5F
:104E9C0018060020014800F011B800BF20060020C1
:104EAC00014800F00CB800BF2006002051F8043C6B
:104EBC00181F002BBCBF0B58C018704770477047A9
:104ECC00F8B500BFF8BC08BC9E467047F8B500BFEB
:084EDC00F8BC08BC9E467047BB
:104EE4006D655245443A2564000000006D654752E3
:104EF40045454E3A256400006D6559454C4C4F5765
:104F04003A256400214D4F44452032203A2054492B
:104F14004D45524544230D0A000000002154494DDB
:104F24004552454423203A2025640D0A0000000020
:104F3400214D4F44452033203A2054494D4559458D
:104F44004C4C4F57230D0A002154494D4559454CAB
:104F54004C4F5723203A2025640D0A00214D4F441D
:104F6400452034203A2054494D45475245454E2367
:104F74000D0A00002154494D45475245454E232012
:104F84003A2025640D0A00000D214D4F444520317F
:104F9400203A204155544F2052554E230D0A00000B
:104FA4000D21535749544348204C4544230D0A00CE
:104FB400475245454E3A2025640000005245443A84
:104FC400202564000D21475245454E23203A2025D3
:104FD400640D0A000D2152454423203A2025640D16
:104FE4000A00000059454C4C4F573A2025640000F4
:104FF4000D2159454C4C4F5723203A2025640D0A66
:10500400000000002152455345542054494D452386
:105014000D0A00002154494D4552454423203A20AD
:1050240025640D0A000000002154494D4559454CA2
:105034004C4F5723203A2025640D0A002154494D32
:1050440045475245454E23203A2025640D0A000069
:105054002154494D454F5554204241434B20544F10
:10506400204D4F4445203121230D0A002154494D40
:10507400454F5554204241434B20544F204D4F44FB
:105084004520312021230D0A00000000000000000B
:1050940000000000010203040607080900000000E4
:1050A4000102030402030405060708090A0B0C0D98
:1050B4000E0F10100102232D302B2000686C4C00C1
:1050C4006566674546470030313233343536373804
:1050D4003941424344454600303132333435363762
:0C50E400383961626364656600000000FA
:0450F0003101000882
:0450F4000D010008A2
:1050F80001000000000000000000000000000000A7
:105108000100000000000000000000000000000096
:105118000100000000000000000000000000000086
:105128000100000000000000000000000000000076
:10513800E80300000000000000000000000000007C
:10514800010000000300000002000000050000004C
:1051580002000000010000000A0000000A00000030
:105168000A00000005000000020000000300000023
:1051780000127A00100000000100000090000020DA
:105188000000000000000000000000000000000017
:105198000000000000000000000000000000000007
:1051A80000000000000000000000000000000000F7
:1051B80000000000000000000000000000000000E7
:1051C80000000000000000000000000000000000D7
:1051D80000000000000000000000000000000000C7
:04000005080020BD12
:00000001FF
