:020000040800F2
:100000000050002035160008491500084F1500085B
:10001000551500085B150008611500080000000078
:10002000000000000000000000000000671500084C
:1000300073150008000000007F1500088B150008EC
:100040007D1600087D1600087D1600087D16000844
:100050007D1600087D1600087D1600087D16000834
:100060007D1600087D1600087D1600087D16000824
:100070007D1600087D1600087D1600087D16000814
:100080007D1600087D1600087D1600087D16000804
:100090007D1600087D1600087D1600087D160008F4
:1000A0007D1600087D1600087D1600087D160008E4
:1000B000991500087D1600087D1600087D160008B9
:1000C0007D1600087D1600087D1600087D160008C4
:1000D0007D1600087D1600087D1600087D160008B4
:1000E000AD1500087D1600087D1600080000000010
:1000F0000000000000000000000000000000000000
:0C01000000000000000000005FF808F1A3
:10010C0010B5054C237833B9044B13B10448AFF345
:10011C0000800123237010BDCC00002000000000E3
:10012C004444000808B5034B1BB103490348AFF323
:10013C00008008BD00000000D000002044440008EE
:10014C0080B584B000AFF860B9607A60074AFB688C
:10015C001360074ABB681360064A7B68136000F0A3
:10016C002DFD00BF1037BD4680BD00BF58000020DC
:10017C00F0000020F400002080B584B000AF094BE3
:10018C001B683846084A102103F09EFD002101200F
:10019C0000F0C6FE3B46184600F0A6FE00BF103726
:1001AC00BD4680BDF00000205C44000880B584B0E2
:1001BC0000AF094B1B683846084A102103F084FD38
:1001CC000021022000F0ACFE3B46184600F08CFEED
:1001DC0000BF1037BD4680BDF40000205C44000811
:1001EC0080B500AF774B1B680A2B00F2E48001A2AC
:1001FC0052F823F0C303000845020008A7020008C8
:10020C000503000865030008C3030008C3030008C6
:10021C00C3030008C3030008C30300082D02000831
:10022C00694B1B68694A126819460120FFF788FF61
:10023C00674B01225A60C3E000F0F2FB00F03EFC79
:10024C00634B5B68012B16D1624B1B68002B0DDBDB
:10025C00FFF792FFFFF7AAFF5E4B1B68013B5D4A5D
:10026C0013605D4B1B68013B5B4A13604FF47A7162
:10027C00012001F037F8574B1B68002B80F29D8052
:10028C00554B1B680133554A126819460220FFF77B
:10029C0057FF4F4B01229A608FE000F0C1FB00F03A
:1002AC00FBFB4B4B9B68012B16D14A4B1B68002B5D
:1002BC0012DBFFF761FFFFF779FF464B1B68013B31
:1002CC00444A1360444B1B68013B434A13604FF490
:1002DC007A71022001F006F83E4B1B68002B6EDA97
:1002EC003A4B1B68384A126819460320FFF728FF5F
:1002FC00374B0122DA6062E000F0B0FB00F0C0FB8B
:10030C00334BDB68012B16D1324B1B68002B12DBF5
:10031C00FFF732FFFFF74AFF2E4B1B68013B2D4ABC
:10032C0013602D4B1B68013B2B4A13604FF47A7101
:10033C00032000F0D7FF284B1B68002B08DA274B53
:10034C001968244B1B6801331A460420FFF7F8FE8A
:10035C001F4B01221A6133E000F06EFB00F090FBA2
:10036C001B4B1B69012B16D11A4B1B68002B12DB84
:10037C00FFF702FFFFF71AFF164B1B68013B154AEC
:10038C001360154B1B68013B134A13604FF47A71D1
:10039C00042000F0A7FF104B1B68002B07DA0A4B58
:1003AC001B680A4A126819460120FFF7C9FE084B60
:1003BC0001225A6004E000BF02E000BF00E000BF71
:1003CC0000BF80BD58000020040000200C0000205D
:1003DC0034020020F4000020F0000020080000206F
:1003EC0080B500AF1D4B1B68012B0ED11C4B1B683D
:1003FC001A461C491C4803F09BFC03469AB24FF466
:10040C00FA731949194803F0A3F9144B1B68022B12
:10041C000ED1174B1B681A461649134803F088FC7B
:10042C0003469AB24FF4FA730F49104803F090F94F
:10043C000A4B1B68032B0ED10F4B1B681A460F4936
:10044C00094803F075FC03469AB24FF4FA73064957
:10045C00064803F07DF900BF80BD00BFEC00002012
:10046C000400002060440008640100201C010020EE
:10047C0008000020744400080C0000208844000888
:10048C0080B5A0B000AFB84B1B680A2B00F2EC8112
:10049C0001A252F823F000BFD1040008E7040008C1
:1004AC001B070008110600087508000875080008ED
:1004BC00750800087508000875080008750800081C
:1004CC00D1040008A84B01221A6000F077FBFFF75B
:1004DC0087FFA64B01225A61CDE100F001FB0220FF
:1004EC0000F072FB0346002B24D0A14B1B685A1C56
:1004FC00A04B83FB02135911D317CB1A642101FBB8
:10050C0003F3D31A9A4A1360FFF76AFF00F001FD58
:10051C00974B1B6807F17000974A102103F0D4FB2E
:10052C000021012000F0FCFC07F17003184600F0DC
:10053C00DBFC9BE1022000F061FB0346002B25D085
:10054C008B4B1B6803F163028A4B83FB021359111B
:10055C00D317CB1A642101FB03F3D31A844A13601B
:10056C00FFF73EFF00F0D5FC814B1B6807F16000E4
:10057C00814A102103F0A8FB0021012000F0D0FCDF
:10058C0007F16003184600F0AFFC6FE1012000F0AA
:10059C001BFB0346002B1AD0734B03221A6000F08E
:1005AC000DFBFFF71DFF00F0B4FC744B1B6807F14B
:1005BC005000734A102103F087FB0021012000F04A
:1005CC00AFFC07F15003184600F08EFC4EE1002002
:1005DC0000F0FAFA0346002B00F04881694B1B68C7
:1005EC00634A1360684B1B68684A1360684B1B684E
:1005FC00624A1360FFF7F4FE5B4B03221A6000F0B3
:10060C00DDFA33E100F0B2FA022000F0DDFA034625
:10061C00002B24D0594B1B685A1C564B83FB0213DE
:10062C005911D317CB1A642101FB03F3D31A534A84
:10063C001360FFF7D5FE00F06CFC504B1B6807F104
:10064C0040004F4A102103F03FFB0021012000F035
:10065C0067FC07F14003184600F046FC08E1022055
:10066C0000F0CCFA0346002B25D0444B1B6803F159
:10067C006302404B83FB02135911D317CB1A64212D
:10068C0001FB03F3D31A3D4A1360FFF7A9FE00F0F8
:10069C0040FC3A4B1B6807F13000394A102103F03B
:1006AC0013FB0021012000F03BFC07F1300318463E
:1006BC0000F01AFCDCE0012000F086FA0346002B67
:1006CC000AD0294B02221A6000F078FAFFF788FE54
:1006DC00264B0122DA61CBE0002000F075FA0346CC
:1006EC00002B00F0C580274B1B68214A1360264B5A
:1006FC001B68264A1360264B1B68204A1360FFF7C1
:10070C006FFE194B03221A6000F058FAB0E000F0AB
:10071C0005FA022000F058FA0346002B3CD01B4B84
:10072C001B685A1C134B83FB02135911D317CB1A9A
:10073C00642101FB03F3D31A144A1360FFF750FE34
:10074C0000F0E7FB0D4B1B6807F12000114A10214C
:10075C0003F0BAFA0021012000F0E2FB07F12003BC
:10076C00184600F0C1FB85E0EC00002034020020AC
:10077C00040000201F85EB519C4400080C00002055
:10078C00A8440008100000201400002008000020DD
:10079C0018000020B8440008022000F02FFA03468D
:1007AC00002B25D0364B1B6803F16302354B83FBC2
:1007BC0002135911D317CB1A642101FB03F3D31A7B
:1007CC002F4A1360FFF70CFE00F0A3FB2E4B1B68A7
:1007DC0007F110002D4A102103F076FA00210120B8
:1007EC0000F09EFB07F11003184600F07DFB41E082
:1007FC00012000F0E9F90346002B1BD0244B012209
:10080C001A6000F0DBF9FFF7EBFD224B01225A6175
:10081C0000F07FFB1C4B1B6838461F4A102103F06D
:10082C0053FA0021012000F07BFB3B46184600F0F8
:10083C005BFB1FE0002000F0C7F90346002B19D02A
:10084C00164B1B68164A1360164B1B680C4A136038
:10085C00154B1B680C4A1360FFF7C2FD0C4B0322AF
:10086C001A6000F0ABF905E000BF04E000BF02E045
:10087C0000BF00E000BF00BF8037BD4680BD00BF99
:10088C00080000201F85EB510C000020B844000824
:10089C00EC000020340200209C44000810000020D2
:1008AC0004000020140000201800002080B500AFC8
:1008BC00012000F0A3F90346002B2BD0164B1B682C
:1008CC00032B18D0144B03221A601449144803F05C
:1008DC002FFA03469AB24FF4FA731149114802F0F9
:1008EC0037FF114B0A221A60104B00221A60104B72
:1008FC0000221A600EE0084B0A221A600D490848C3
:10090C0003F016FA03469AB24FF4FA7304490548F9
:10091C0002F01EFF00BF80BD00000020C84400088C
:10092C00640100201C010020EC0000205800002075
:10093C00E8000020E444000880B500AF244B1B689D
:10094C000A2B06D00A2B40DC012B38D0032B39D0D4
:10095C003BE0204B1A68204B1B681A441F4B1B684A
:10096C009A4218D01A4B04221A601D491D4803F0F4
:10097C00DFF903469AB24FF4FA731A491A4802F097
:10098C00E7FE1A4B00221A60194B00221A60194B11
:10099C0000221A6010E00E4B01221A60134B0A223F
:1009AC001A60134B00221A60124B00221A604FF48B
:1009BC007A71002000F096FC00F01EF806E0FFF7BC
:1009CC000FFC03E0FFF75CFD00E000BF00BF80BD43
:1009DC0000000020080000200C0000200400002073
:1009EC00FC440008640100201C0100205800002079
:1009FC00E8000020EC00002080B500AF00224FF48E
:100A0C008261054801F065F900224FF440710348FA
:100A1C0001F05FF900BF80BD000C014000080140EF
:100A2C0080B500AF01224FF48261024801F051F908
:100A3C0000BF80BD000C014080B500AF002210212A
:100A4C00054801F046F901224FF48061024801F09B
:100A5C0040F900BF80BD00BF000C014080B500AF65
:100A6C0000224FF48061054801F033F90122102176
:100A7C00024801F02EF900BF80BD00BF000C014000
:100A8C0080B500AF01224FF44071024801F021F90A
:100A9C0000BF80BD0008014080B500AF00224FF4BC
:100AAC008071054801F015F901224FF400710248DC
:100ABC0001F00FF900BF80BD0008014080B500AF08
:100ACC0000224FF40071054801F003F901224FF4A4
:100ADC008071024801F0FDF800BF80BD00080140A4
:100AEC0080B500AF0A4B5B69012B0ED14FF44071FE
:100AFC00084801F006F94FF48261074801F001F94A
:100B0C004FF4FA71052000F0EDFB00BF80BD00BF73
:100B1C003402002000080140000C014080B500AFF9
:100B2C000F4B9B69012B19D1002210210D4801F0AC
:100B3C00D0F84FF480610B4801F0E3F800224FF439
:100B4C008071094801F0C5F84FF40071064801F0B6
:100B5C00D8F84FF4FA71072000F0C4FB00BF80BD39
:100B6C0034020020000C01400008014080B500AFA9
:100B7C000F4B9B69012B19D100224FF480610D485A
:100B8C0001F0A7F810210B4801F0BBF800224FF43C
:100B9C000071094801F09DF84FF48071064801F08E
:100BAC00B0F84FF4FA71062000F09CFB00BF80BD3A
:100BBC0034020020000C01400008014080B500AF59
:100BCC00FFF71AFF00BF80BD80B483B000AF786020
:100BDC00094A7B6852F82330012B06D1064A7B6800
:100BEC00002142F82310012300E0002318460C37A3
:100BFC00BD4680BC704700BF0401002080B483B0A8
:100C0C0000AF7860094A7B6852F82330012B06D17B
:100C1C00064A7B68002142F82310012300E00023E0
:100C2C0018460C37BD4680BC704700BFF80000204A
:100C3C0080B483B000AF78607B68022B08D07B68EF
:100C4C00022B08DC7B68002B04D07B68012B02E0B4
:100C5C0000BF00E000BF054A7B68012142F8231069
:100C6C0000BF0C37BD4680BC704700BF040100209C
:100C7C0080B582B000AF4C4B1B684C4A13604C4B98
:100C8C001B68494A1360484B5B68484A5360484BA1
:100C9C005B68454A5360444B9B68444A9360444BA1
:100CAC009B68414A93604021424800F0FBFF034699
:100CBC001A463F4B1A6080213F4800F0F3FF034671
:100CCC001A463B4B5A6020213A4800F0EBFF034692
:100CDC001A46374B9A6000237B605DE0324A7B6892
:100CEC0052F8232032497B6851F823309A4250D174
:100CFC002D4A7B6852F823202C497B6851F823300D
:100D0C009A4246D1294A7B6852F823202B497B68AA
:100D1C0051F823309A421CD0244A7B6852F8232085
:100D2C0026497B6841F82320244A7B6852F82330FB
:100D3C00002B2ED1224A7B684FF47A7142F8231093
:100D4C007868FFF775FF1F4A7B68012142F8231072
:100D5C001FE01B4A7B6852F823305A1E18497B68E7
:100D6C0041F82320164A7B6852F82330002B10D10F
:100D7C00134A7B684FF47A7142F823100F4A7B6850
:100D8C0052F82330002B04D10F4A7B68012142F822
:100D9C0023107B6801337B607B68022B9EDD00BFD8
:100DAC0000BF0837BD4680BD28000020340000205D
:100DBC001C000020000C01400010014040000020ED
:100DCC004C00002004010020F800002080B586B003
:100DDC0002AF0346FB71FB7923F00F03FB73FB7926
:100DEC001B01BB73FB7B43F00C03DBB23B72FB7B45
:100DFC0043F00803DBB27B72BB7B43F00C03DBB22A
:100E0C00BB72BB7B43F00803DBB2FB7207F1080239
:100E1C006423009304234221034801F0F1F800BF3E
:100E2C001037BD4680BD00BF9801002080B586B04C
:100E3C0002AF0346FB71FB7923F00F03FB73FB79C5
:100E4C001B01BB73FB7B43F00D03DBB23B72FB7BE3
:100E5C0043F00903DBB27B72BB7B43F00D03DBB2C7
:100E6C00BB72BB7B43F00903DBB2FB7207F10802D8
:100E7C006423009304234221034801F0C1F800BF0E
:100E8C001037BD4680BD00BF9801002080B500AF73
:100E9C003320FFF79BFF3220FFF798FF322000F042
:100EAC004BFC2820FFF792FF322000F045FC01207C
:100EBC00FFF78CFF322000F03FFC0620FFF786FF87
:100ECC00322000F039FC0C20FFF780FF322000F0BC
:100EDC0033FC0220FFF77AFF322000F02DFC80203B
:100EEC00FFF774FF00BF80BD80B582B000AF7860A3
:100EFC0006E07B685A1C7A601B781846FFF796FF51
:100F0C007B681B78002BF4D100BF00BF0837BD46AF
:100F1C0080BD80B500AF0120FFF758FF00BF80BD3A
:100F2C0080B584B000AF786039607B68012B08D144
:100F3C007B68DAB23B68DBB21344DBB27F33FB7302
:100F4C0008E03B68DBB24033DBB25BB263F07F039B
:100F5C005BB2FB73FB7B1846FFF738FF00BF103703
:100F6C00BD4680BD80B500AF00F084FB00F01EF8DC
:100F7C0000F002F900F0D6F800F05AF800F086F80C
:100F8C00094801F0F3FFFFF781FFFFF7C2FF3220A2
:100F9C0000F0D2FBFFF724F9FFF7CEFCFFF786FC3D
:100FAC00FFF76EFAF6E700BFEC01002080B590B0B9
:100FBC0000AF07F1180328220021184602F0C6FDE5
:100FCC003B1D00221A605A609A60DA601A61022393
:100FDC00BB610123BB621023FB6202237B630023F2
:100FEC00BB634FF46013FB6307F11803184601F061
:100FFC005FFB0346002B01D000F06FF90F237B60E1
:10100C000223BB600023FB604FF480633B61002331
:10101C007B613B1D0221184601F0CAFD0346002BE3
:10102C0001D000F05AF900BF4037BD4680BD00002A
:10103C0080B500AF124B134A1A60114B124A5A601A
:10104C000F4B00229A600E4B0022DA600C4B4FF4CF
:10105C0080421A610A4B00225A61094B00229A61A4
:10106C00074B0022DA61064B00221A62044800F09A
:10107C0083FE0346002B01D000F02FF900BF80BD8A
:10108C009801002000540040A086010080B586B075
:10109C0000AF07F1080300221A605A609A60DA6008
:1010AC003B4600221A605A601D4B4FF080421A607A
:1010BC001B4B41F63F725A60194B00229A60184B39
:1010CC000922DA60164B00221A61154B00229A6134
:1010DC00134801F0FBFE0346002B01D000F0FDF895
:1010EC004FF48053BB6007F1080319460C4802F01B
:1010FC007FF80346002B01D000F0EFF800233B6093
:10110C0000237B603B461946054802F061FA034612
:10111C00002B01D000F0E1F800BF1837BD4680BDB0
:10112C00EC01002080B500AF114B124A1A60104B35
:10113C004FF416525A600E4B00229A600C4B002250
:10114C00DA600B4B00221A61094B0C225A61084BD6
:10115C0000229A61064B0022DA61054802F0A8FAD7
:10116C000346002B01D000F0B8F800BF80BD00BFD3
:10117C001C0100200044004080B588B000AF07F18E
:10118C00100300221A605A609A60DA60454B9B6922
:10119C00444A43F010039361424B9B6903F01003E4
:1011AC00FB60FB683F4B9B693E4A43F02003936115
:1011BC003C4B9B6903F02003BB60BB68394B9B69BC
:1011CC00384A43F004039361364B9B6903F00403E4
:1011DC007B607B68334B9B69324A43F00803936115
:1011EC00304B9B6903F008033B603B68002240F2E4
:1011FC00F2312D4800F06DFD00224FF482612B4836
:10120C0000F067FD4FF400533B61294B7B610023D9
:10121C00BB6107F110031946264800F0BFFB40F2F2
:10122C00F2333B6101237B610023BB610223FB6131
:10123C0007F1100319461C4800F0B0FB4FF4826311
:10124C003B6101237B610023BB610223FB6107F13E
:10125C0010031946154800F0A1FB80233B610023C5
:10126C007B610123BB6107F110031946114800F0A3
:10127C0095FB60233B6100237B610123BB6107F17C
:10128C0010031946094800F089FB00220021282090
:10129C0000F04DFB282000F066FB00BF2037BD4658
:1012AC0080BD00BF0010024000080140000C01404E
:1012BC00000011100010014080B582B000AF7860C2
:1012CC007B681B68B3F1804F01D100F023F8FFF766
:1012DC00CFFC00BF0837BD4680BD80B400AF72B6EE
:1012EC0000BFFEE780B483B000AF78603960074977
:1012FC007B683A6841F82320054A7B68002142F854
:10130C00231000BF0C37BD4680BC70475C02002028
:10131C003402002080B483B000AF00237B601CE05B
:10132C00124A7B6852F82330002B08DD0F4A7B6889
:10133C0052F823305A1E0D497B6841F823200B4A82
:10134C007B6852F82330002B04DC094A7B680121AE
:10135C0042F823107B6801337B607B68092BDFDD4F
:10136C0000BF00BF0C37BD4680BC70475C0200203C
:10137C003402002080B485B000AF154B9B69144A31
:10138C0043F001039361124B9B6903F00103BB60B3
:10139C00BB680F4BDB690E4A43F08053D3610C4B97
:1013AC00DB6903F080537B607B680A4B5B68FB60F6
:1013BC00FB6823F0E063FB60FB6843F00073FB60A9
:1013CC00044AFB68536000BF1437BD4680BC7047AD
:1013DC00001002400000014080B58AB000AF786078
:1013EC0007F1140300221A605A609A60DA607B6875
:1013FC001B681D4A934232D11C4B9B691B4A43F01C
:10140C0008039361194B9B6903F008033B613B692B
:10141C004FF440737B611223BB6103233B6207F1E2
:10142C0014031946124800F0B9FA124B5B687B6240
:10143C007B6A43F0E0637B627B6A43F002037B626E
:10144C000C4A7B6A5360094BDB69084A43F400136E
:10145C00D361064BDB6903F40013FB60FB6800BF30
:10146C002837BD4680BD00BF00540040001002402C
:10147C00000C01400000014080B584B000AF7860E2
:10148C007B681B68B3F1804F13D10C4BDB690B4AA3
:10149C0043F00103D361094BDB6903F00103FB60EB
:1014AC00FB68002200211C2000F041FA1C2000F0F7
:1014BC005AFA00BF1037BD4680BD00BF0010024075
:1014CC0080B588B000AF786007F1100300221A6075
:1014DC005A609A60DA607B681B68154A934223D184
:1014EC00144BDB69134A43F40033D361114BDB69B2
:1014FC0003F40033FB60FB680E4B9B690D4A43F011
:10150C00040393610B4B9B6903F00403BB60BB6842
:10151C000C233B6102237B610223FB6107F1100367
:10152C001946054800F03AFA00BF2037BD4680BD89
:10153C0000440040001002400008014080B400AF9D
:10154C00FEE780B400AFFEE780B400AFFEE780B4E6
:10155C0000AFFEE780B400AFFEE780B400AF00BF81
:10156C00BD4680BC704780B400AF00BFBD4680BC98
:10157C00704780B400AF00BFBD4680BC704780B5DB
:10158C0000AF00F0BDF800BF80BD000080B500AF1B
:10159C00024801F03DFD00BF80BD00BFEC01002002
:1015AC0080B500AF4FF4005000F0C4FB00BF80BD0D
:1015BC0080B586B000AF7860144A154BD31A7B61A6
:1015CC007B693B61134B1B68002B02D1114B124AF8
:1015DC001A60104B1A687B6813443A699A4207D216
:1015EC0002F08AFA03460C221A604FF0FF3309E02E
:1015FC00084B1B68FB60074B1A687B681344054A51
:10160C001360FB6818461837BD4680BD005000209B
:10161C0000040000100100209802002080B400AFEC
:10162C0000BFBD4680BC7047FFF7F8FF0B480C4964
:10163C000C4A002302E0D458C4500433C4188C4222
:10164C00F9D3094A094C002301E013600432A24289
:10165C00FBD302F057FAFFF785FC7047000000201F
:10166C00CC00002074450008CC000020980200201B
:10167C00FEE7000080B500AF084B1B68074A43F03B
:10168C0010031360032000F047F9002000F008F865
:10169C00FFF770FE0023184680BD00BF00200240FB
:1016AC0080B582B000AF7860124B1A68124B1B7871
:1016BC0019464FF47A73B3FBF1F3B2FBF3F318460C
:1016CC0000F05FF90346002B01D001230EE07B688C
:1016DC000F2B0AD8002279684FF0FF3000F027F961
:1016EC00064A7B681360002300E001231846083784
:1016FC00BD4680BD5C00002064000020600000201E
:10170C0080B400AF054B1B781A46054B1B6813447D
:10171C00034A136000BFBD4680BC704764000020C4
:10172C008402002080B400AF024B1B681846BD46F3
:10173C0080BC70478402002080B584B000AF786014
:10174C00FFF7F0FFB8607B68FB60FB68B3F1FF3F0D
:10175C0005D00A4B1B781A46FB681344FB6000BF8C
:10176C00FFF7E0FF0246BB68D31AFA689A42F7D833
:10177C0000BF00BF1037BD4680BD00BF6400002015
:10178C0080B485B000AF78607B6803F00703FB6022
:10179C000C4BDB68BB60BA684FF6FF031340BB60B1
:1017AC00FB681A02BB68134343F0BF6343F4003376
:1017BC00BB60044ABB68D36000BF1437BD4680BC15
:1017CC00704700BF00ED00E080B400AF044BDB6855
:1017DC001B0A03F007031846BD4680BC704700BFC8
:1017EC0000ED00E080B483B000AF0346FB7197F9C5
:1017FC000730002B0BDBFB7903F01F02064997F92E
:10180C0007305B09012000FA02F241F8232000BFE7
:10181C000C37BD4680BC704700E100E080B483B05B
:10182C0000AF03463960FB7197F90730002B0ADBD8
:10183C003B68DAB20C4997F907301201D2B20B446B
:10184C0083F800230AE03B68DAB20849FB7903F01D
:10185C000F03043B1201D2B20B441A7600BF0C37B3
:10186C00BD4680BC704700BF00E100E000ED00E029
:10187C0080B489B000AFF860B9607A60FB6803F09F
:10188C000703FB61FB69C3F10703042B28BF042387
:10189C00BB61FB690433062B02D9FB69033B00E0F7
:1018AC0000237B614FF0FF32BB6902FA03F3DA438A
:1018BC00BB681A407B699A404FF0FF317B6901FA93
:1018CC0003F3D9437B680B40134318462437BD46BA
:1018DC0080BC704780B582B000AF78607B68013BFC
:1018EC00B3F1807F01D301230FE00A4A7B68013BEF
:1018FC0053600F214FF0FF30FFF790FF054B002294
:10190C009A60044B07221A60002318460837BD461C
:10191C0080BD00BF10E000E080B582B000AF786001
:10192C007868FFF72DFF00BF0837BD4680BD80B536
:10193C0086B000AF0346B9607A60FB7300237B610D
:10194C00FFF742FF78617A68B9687869FFF790FF12
:10195C00024697F90F3011461846FFF75FFF00BF9C
:10196C001837BD4680BD80B582B000AF0346FB7111
:10197C0097F907301846FFF735FF00BF0837BD460B
:10198C0080BD80B582B000AF78607868FFF7A2FFA9
:10199C00034618460837BD4680BD000080B48BB0A6
:1019AC0000AF7860396000237B6200233B6269E101
:1019BC0001227B6A02FA03F3FB613B681B68FA693C
:1019CC001340BB61BA69FB699A4240F058813B688D
:1019DC005B689A4A93425ED0984A934275D8984A6B
:1019EC00934258D0964A93426FD8964A934252D01B
:1019FC00944A934269D8944A93424CD0924A934267
:101A0C0063D8924A934246D0904A93425DD8122BA7
:101A1C002AD8122B59D801A252F823F0A31A000885
:101A2C007D1A00088F1A0008D11A0008D71A00086E
:101A3C00D71A0008D71A0008D71A0008D71A0008B6
:101A4C00D71A0008D71A0008D71A0008D71A0008A6
:101A5C00D71A0008D71A0008D71A0008D71A000896
:101A6C00851A0008991A0008794A934213D02CE081
:101A7C003B68DB683B6229E03B68DB6804333B6214
:101A8C0024E03B68DB6808333B621FE03B68DB68A3
:101A9C000C333B621AE03B689B68002B02D1042399
:101AAC003B6213E03B689B68012B05D108233B622A
:101ABC007B68FA691A6109E008233B627B68FA6962
:101ACC005A6103E000233B6200E000BFBB69FF2BBF
:101ADC0001D87B6801E07B6804337B61BB69FF2B19
:101AEC0002D87B6A9B0002E07B6A083B9B003B614F
:101AFC007B691A680F213B6901FA03F3DB431A4037
:101B0C00396A3B6901FA03F31A437B691A603B6833
:101B1C005B6803F08053002B00F0B1804D4B9B6948
:101B2C004C4A43F0010393614A4B9B6903F0010358
:101B3C00BB60BB68484A7B6A9B08023352F823306F
:101B4C00FB607B6A03F003039B000F2202FA03F392
:101B5C00DB43FA681340FB607B68404A934213D026
:101B6C007B683F4A93420DD07B683E4A934207D034
:101B7C007B683D4A934201D1032306E0042304E031
:101B8C00022302E0012300E000237A6A02F0030240
:101B9C0092009340FA681343FB602F497B6A9B08C1
:101BAC000233FA6841F823203B685B6803F4801326
:101BBC00002B06D02D4B9A682C49BB6913438B60C4
:101BCC0006E02A4B9A68BB69DB43284913408B60BB
:101BDC003B685B6803F40013002B06D0234BDA68D8
:101BEC002249BB691343CB6006E0204BDA68BB6922
:101BFC00DB431E491340CB603B685B6803F4003346
:101C0C00002B06D0194B5A681849BB6913434B601B
:101C1C0006E0164B5A68BB69DB43144913404B6012
:101C2C003B685B6803F48033002B21D00F4B1A68A0
:101C3C000E49BB6913430B6021E000BF000032105A
:101C4C0000003110000022100000211000001210C2
:101C5C00000011100010024000000140000801407B
:101C6C00000C014000100140001401400004014030
:101C7C000B4B1A68BB69DB43094913400B607B6A49
:101C8C0001337B623B681A687B6A22FA03F3002BF0
:101C9C007FF48EAE00BF00BF2C37BD4680BC7047B2
:101CAC000004014080B485B000AF78600B467B80A7
:101CBC007B689A687B881340002B02D00123FB734E
:101CCC0001E00023FB73FB7B18461437BD4680BC38
:101CDC00704780B483B000AF78600B467B801346AE
:101CEC007B707B78002B03D07A887B681A6103E0C9
:101CFC007B881A047B681A6100BF0C37BD4680BC18
:101D0C00704780B485B000AF78600B467B807B68F1
:101D1C00DB68FB607A88FB6813401A04FB68D943C4
:101D2C007B880B401A437B681A6100BF1437BD4691
:101D3C0080BC704780B582B000AF0346FB80084B77
:101D4C005A69FB881340002B06D0054AFB88536167
:101D5C00FB88184600F006F800BF0837BD4680BD6A
:101D6C000004014080B483B000AF0346FB8000BF89
:101D7C000C37BD4680BC704780B584B000AF78602E
:101D8C007B68002B01D101232BE17B6893F83D305C
:101D9C00DBB2002B06D17B68002283F83C207868EC
:101DAC00FFF71AFB7B68242283F83D207B681B68B5
:101DBC001A687B681B6822F001021A607B681B683A
:101DCC001A687B681B6842F400421A607B681B68C7
:101DDC001A687B681B6822F400421A6001F030F824
:101DEC00F8607B685B68814A934207D8FB68804A3D
:101DFC00934294BF01230023DBB206E0FB687D4ACB
:101E0C00934294BF01230023DBB2002B01D00123AA
:101E1C00E7E0FB68784AA2FB03239B0CBB607B6862
:101E2C001B685B6823F03F017B681B68BA680A4338
:101E3C005A607B681B681B6A23F03F017B685B68F8
:101E4C006A4A934202D8BB68013309E0BB684FF47D
:101E5C00967202FB03F3694AA2FB03239B0901332D
:101E6C007A6812680B4313627B681B68DB6923F486
:101E7C004F4222F0FF027B685B685C498B4219D8A9
:101E8C00FB68591E7B685B685B00B1FBF3F3591C64
:101E9C0040F6FC730B40002B0AD0FB68591E7B6884
:101EAC005B685B00B1FBF3F30133C3F30B0351E04D
:101EBC0004234FE07B689B68002B11D1FB68581EF4
:101ECC007B6859680B465B000B44B0FBF3F30133A2
:101EDC00C3F30B03002B0CBF01230023DBB212E076
:101EEC00FB68581E7B6859680B469B000B44990095
:101EFC000B44B0FBF3F30133C3F30B03002B0CBF08
:101F0C0001230023DBB2002B01D0012322E07B68EC
:101F1C009B68002B0ED1FB68581E7B6859680B46DA
:101F2C005B000B44B0FBF3F30133C3F30B0343F43B
:101F3C0000430FE0FB68581E7B6859680B469B00FA
:101F4C000B4499000B44B0FBF3F30133C3F30B03C5
:101F5C0043F44043796809681343CB617B681B6881
:101F6C001B6823F0C0017B68DA697B681B6A1A4323
:101F7C007B681B680A431A607B681B689B6823F4A8
:101F8C00034323F0FF037A6811697A68D26811431E
:101F9C007A6812680B4393607B681B68DB6823F0DC
:101FAC00FF017B685A697B689B691A437B681B68D5
:101FBC000A43DA607B681B681A687B681B6842F00E
:101FCC0001021A607B6800221A647B68202283F865
:101FDC003D207B6800221A637B68002283F83E2038
:101FEC00002318461037BD4680BD00BFA0860100F7
:101FFC007F841E00FF083D0083DE1B43D34D62101F
:10200C0080B588B002AFF8607A601A460B467B81C7
:10201C0013463B81FFF786FB7861FB6893F83D30F4
:10202C00DBB2202B40F0E0807B6900931923012266
:10203C007049F86800F064F90346002B01D00223C4
:10204C00D3E0FB6893F83C30012B01D10223CCE0A8
:10205C00FB68012283F83C20FB681B681B6803F0BB
:10206C000103012B07D0FB681B681A68FB681B680F
:10207C0042F001021A60FB681B681A68FB681B6857
:10208C0022F400621A60FB68212283F83D20FB6871
:10209C00102283F83E20FB6800221A64FB687A68E1
:1020AC005A62FB683A895A85FB685B8D9AB2FB6869
:1020BC001A85FB68504ADA6279897B693A6AF86852
:1020CC0000F09CF80346002B01D001238DE0002387
:1020DC003B61FB681B685B693B61FB681B689B6928
:1020EC003B613B6966E07A69396AF86800F022FA6C
:1020FC000346002B0DD0FB681B6C042B07D1FB682F
:10210C001B681A68FB681B6842F400721A60012392
:10211C006BE0FB685B6A1A78FB681B681A61FB68EA
:10212C005B6A5A1CFB685A62FB685B8D9BB2013B75
:10213C009AB2FB685A85FB681B8D013B9AB2FB680F
:10214C001A85FB681B685B6903F00403042B1BD125
:10215C00FB681B8D002B17D0FB685B6A1A78FB6839
:10216C001B681A61FB685B6A5A1CFB685A62FB6845
:10217C005B8D9BB2013B9AB2FB685A85FB681B8D49
:10218C00013B9AB2FB681A857A69396AF86800F0E3
:10219C0019FA0346002B0DD0FB681B6C042B07D1DE
:1021AC00FB681B681A68FB681B6842F400721A60B3
:1021BC0001231AE0FB681B8D002B94D1FB681B6874
:1021CC001A68FB681B6842F400721A60FB682022D4
:1021DC0083F83D20FB68002283F83E20FB68002238
:1021EC0083F83C20002300E0022318461837BD4634
:1021FC0080BD00BF020010000000FFFF80B588B05A
:10220C0002AFF8607A603B600B467B81FB68DB6A4F
:10221C007B617B69082B06D07B69012B03D07B6922
:10222C0013F5803F08D1FB681B681A68FB681B68B4
:10223C0042F480721A600BE0FB681B6B122B07D107
:10224C00FB681B681A68FB681B6842F480721A6092
:10225C003B6800937B6800224FF00111F86800F096
:10226C004FF80346002B0DD0FB681B681B6803F46A
:10227C008073B3F5807F03D1FB684FF400721A644E
:10228C00032335E0FB681B69B3F5804F08D17B89CC
:10229C00DBB21A46FB681B6802F0FE021A611BE0F7
:1022AC007B89DB11DBB203F00603DBB263F00F03B7
:1022BC00DAB2FB681B681A613B687A680E49F868E9
:1022CC0000F098F80346002B01D0012310E07B8925
:1022DC00DAB2FB681B681A613B687A680749F868D0
:1022EC0000F088F80346002B01D0012300E0002306
:1022FC0018461837BD4680BD0800010002000100D9
:10230C0080B584B000AFF860B9603B601346FB71D8
:10231C0048E03B68B3F1FF3F44D0FFF703FA0246B5
:10232C00BB69D31A3A689A4202D33B68002B39D165
:10233C00BB681B0CDBB2012B0DD1FB681B685B6906
:10234C00DA43BB6813409BB2002B0CBF0123002364
:10235C00DBB21A460CE0FB681B689B69DA43BB686E
:10236C0013409BB2002B0CBF01230023DBB21A4697
:10237C00FB799A4216D1FB6800221A63FB68202273
:10238C0083F83D20FB68002283F83E20FB681B6C21
:10239C0043F02002FB681A64FB68002283F83C209F
:1023AC00012323E0BB681B0CDBB2012B0DD1FB68B6
:1023BC001B685B69DA43BB6813409BB2002B0CBFF4
:1023CC0001230023DBB21A460CE0FB681B689B69F7
:1023DC00DA43BB6813409BB2002B0CBF01230023D4
:1023EC00DBB21A46FB799A4293D000231846103779
:1023FC00BD4680BD80B584B000AFF860B9607A602E
:10240C003B6071E0FB681B685B6903F48063B3F5A8
:10241C00806F23D1FB681B681A68FB681B6842F449
:10242C0000721A60FB681B686FF480625A61FB686B
:10243C0000221A63FB68202283F83D20FB680022EF
:10244C0083F83E20FB681B6C43F00402FB681A64A3
:10245C00FB68002283F83C20012367E07B68B3F122
:10246C00FF3F41D0FFF75EF902463B68D31A7A680A
:10247C009A4202D37B68002B36D1BB681B0CDBB2B3
:10248C00012B0CD1FB681B685B69DA43BB681340FA
:10249C009BB2002B14BF01230023DBB20BE0FB68C3
:1024AC001B689B69DA43BB6813409BB2002B14BFBB
:1024BC0001230023DBB2002B16D0FB6800221A6329
:1024CC00FB68202283F83D20FB68002283F83E2025
:1024DC00FB681B6C43F02002FB681A64FB6800224B
:1024EC0083F83C20012321E0BB681B0CDBB2012BE1
:1024FC000CD1FB681B685B69DA43BB6813409BB269
:10250C00002B14BF01230023DBB20BE0FB681B681C
:10251C009B69DA43BB6813409BB2002B14BF0123A9
:10252C000023DBB2002B7FF46DAF0023184610376D
:10253C00BD4680BD80B584B000AFF860B9607A60EC
:10254C0034E0F86800F086F80346002B01D0012334
:10255C0034E0BB68B3F1FF3F28D0FFF7E3F8024645
:10256C007B68D31ABA689A4202D3BB68002B1DD180
:10257C00FB681B685B6903F08003802B16D0FB683B
:10258C0000221A63FB68202283F83D20FB6800229E
:10259C0083F83E20FB681B6C43F02002FB681A6436
:1025AC00FB68002283F83C20012307E0FB681B68D2
:1025BC005B6903F08003802BC3D1002318461037CE
:1025CC00BD4680BD80B584B000AFF860B9607A605C
:1025DC0034E0F86800F03EF80346002B01D00123EC
:1025EC0034E0BB68B3F1FF3F28D0FFF79BF80246FD
:1025FC007B68D31ABA689A4202D3BB68002B1DD1F0
:10260C00FB681B685B6903F00403042B16D0FB68A2
:10261C0000221A63FB68202283F83D20FB6800220D
:10262C0083F83E20FB681B6C43F02002FB681A64A5
:10263C00FB68002283F83C20012307E0FB681B6841
:10264C005B6903F00403042BC3D100231846103735
:10265C00BD4680BD80B483B000AF78607B681B68DA
:10266C005B6903F48063B3F5806F1BD17B681B68D7
:10267C006FF480625A617B6800221A637B682022A7
:10268C0083F83D207B68002283F83E207B681B6C1E
:10269C0043F004027B681A647B68002283F83C20B8
:1026AC00012300E0002318460C37BD4680BC704760
:1026BC0080B586B000AF78607B68002B01D1012318
:1026CC006CE27B681B6803F00103002B00F0878031
:1026DC00924B5B6803F00C03042B0CD08F4B5B68A4
:1026EC0003F00C03082B12D18C4B5B6803F4803382
:1026FC00B3F5803F0BD1894B1B6803F40033002BDF
:10270C006CD07B685B68002B68D1012346E27B6848
:10271C005B68B3F5803F06D1804B1B687F4A43F45E
:10272C00803313602EE07B685B68002B0CD17B4BF5
:10273C001B687A4A23F480331360784B1B68774A02
:10274C0023F4802313601DE07B685B68B3F5A02F36
:10275C000CD1724B1B68714A43F4802313606F4B8E
:10276C001B686E4A43F4803313600BE06B4B1B68A1
:10277C006A4A23F480331360684B1B68674A23F45E
:10278C00802313607B685B68002B13D0FEF7CAFFB5
:10279C00386108E0FEF7C6FF02463B69D31A642B8A
:1027AC0001D90323FAE15D4B1B6803F40033002BC2
:1027BC00F0D014E0FEF7B6FF386108E0FEF7B2FF88
:1027CC0002463B69D31A642B01D90323E6E1534B30
:1027DC001B6803F40033002BF0D100E000BF7B68D2
:1027EC001B6803F00203002B63D04C4B5B6803F0B7
:1027FC000C03002B0BD0494B5B6803F00C03082B2C
:10280C001CD1464B5B6803F48033002B16D1434B31
:10281C001B6803F00203002B05D07B681B69012B9E
:10282C0001D00123BAE13D4B1B6823F0F8027B6811
:10283C005B69DB00394913430B603AE07B681B6929
:10284C00002B20D0364B01221A60FEF76BFF38614B
:10285C0008E0FEF767FF02463B69D31A022B01D949
:10286C0003239BE12D4B1B6803F00203002BF0D0DC
:10287C002A4B1B6823F0F8027B685B69DB00274955
:10288C0013430B6015E0264B00221A60FEF74AFF3B
:10289C00386108E0FEF746FF02463B69D31A022B6B
:1028AC0001D903237AE11D4B1B6803F00203002BB3
:1028BC00F0D17B681B6803F00803002B3AD07B68CF
:1028CC009B69002B19D0174B01221A60FEF72AFFC7
:1028DC00386108E0FEF726FF02463B69D31A022B4B
:1028EC0001D903235AE10D4B5B6A03F00203002B61
:1028FC00F0D0012000F0CCFA1CE00A4B00221A6048
:10290C00FEF710FF38610FE0FEF70CFF02463B6943
:10291C00D31A022B08D9032340E100BF0010024058
:10292C0000004242800442429E4B5B6A03F0020369
:10293C00002BE9D17B681B6803F00403002B00F02B
:10294C00A6800023FB75974BDB6903F08053002BAB
:10295C000DD1944BDB69934A43F08053D361914B77
:10296C00DB6903F08053BB60BB680123FB758E4BA6
:10297C001B6803F48073002B18D18B4B1B688A4A9D
:10298C0043F480731360FEF7CDFE386108E0FEF768
:10299C00C9FE02463B69D31A642B01D90323FDE01F
:1029AC00814B1B6803F48073002BF0D07B68DB68D1
:1029BC00012B06D17B4B1B6A7A4A43F0010313624D
:1029CC002DE07B68DB68002B0CD1764B1B6A754ABB
:1029DC0023F001031362734B1B6A724A23F0040346
:1029EC0013621CE07B68DB68052B0CD16D4B1B6AFA
:1029FC006C4A43F0040313626A4B1B6A694A43F046
:102A0C00010313620BE0674B1B6A664A23F0010358
:102A1C001362644B1B6A634A23F0040313627B68E2
:102A2C00DB68002B15D0FEF77DFE38610AE0FEF75F
:102A3C0079FE02463B69D31A41F28832934201D99E
:102A4C000323ABE0574B1B6A03F00203002BEED0C1
:102A5C0014E0FEF767FE38610AE0FEF763FE0246FB
:102A6C003B69D31A41F28832934201D9032395E092
:102A7C004C4B1B6A03F00203002BEED1FB7D012BA8
:102A8C0005D1484BDB69474A23F08053D3617B68FF
:102A9C00DB69002B00F08180424B5B6803F00C0378
:102AAC00082B61D07B68DB69022B46D13F4B00229F
:102ABC001A60FEF737FE386108E0FEF733FE024677
:102ACC003B69D31A022B01D9032367E0354B1B68F2
:102ADC0003F00073002BF0D17B681B6AB3F5803FC9
:102AEC0008D1304B5B6823F400327B689B682D491E
:102AFC0013434B602B4B5B6823F474127B68196A8D
:102B0C007B685B6A0B43274913434B60274B0122BD
:102B1C001A60FEF707FE386108E0FEF703FE024676
:102B2C003B69D31A022B01D9032337E01D4B1B68D9
:102B3C0003F00073002BF0D02FE01C4B00221A6026
:102B4C00FEF7F0FD386108E0FEF7ECFD02463B694C
:102B5C00D31A022B01D9032320E0124B1B6803F07C
:102B6C000073002BF0D118E07B68DB69012B01D1DD
:102B7C00012313E00B4B5B68FB60FB6803F48032B2
:102B8C007B681B6A9A4206D1FB6803F470127B685F
:102B9C005B6A9A4201D0012300E0002318461837E3
:102BAC00BD4680BD001002400070004060004242F3
:102BBC0080B584B000AF786039607B68002B01D1A0
:102BCC000123D0E06A4B1B6803F007033A689A4272
:102BDC0010D9674B1B6823F0070265493B68134308
:102BEC000B60634B1B6803F007033A689A4201D0F1
:102BFC000123B8E07B681B6803F00203002B20D094
:102C0C007B681B6803F00403002B05D0594B5B68F1
:102C1C00584A43F4E06353607B681B6803F0080375
:102C2C00002B05D0534B5B68524A43F460535360FE
:102C3C00504B5B6823F0F0027B689B684D49134353
:102C4C004B607B681B6803F00103002B40D07B6852
:102C5C005B68012B07D1474B1B6803F40033002B37
:102C6C0015D101237FE07B685B68022B07D1414BB8
:102C7C001B6803F00073002B09D1012373E03D4B5B
:102C8C001B6803F00203002B01D101236BE0394BCD
:102C9C005B6823F003027B685B68364913434B6027
:102CAC00FEF740FDF8600AE0FEF73CFD0246FB68CB
:102CBC00D31A41F28832934201D9032353E02D4BAE
:102CCC005B6803F00C027B685B689B009A42EBD15B
:102CDC00274B1B6803F007033A689A4210D2244B27
:102CEC001B6823F0070222493B6813430B60204BFF
:102CFC001B6803F007033A689A4201D0012332E0C3
:102D0C007B681B6803F00403002B08D0194B5B682D
:102D1C0023F4E0627B68DB68164913434B607B68E5
:102D2C001B6803F00803002B09D0124B5B6823F4DB
:102D3C0060527B681B69DB000E4913434B6000F04B
:102D4C0021F802460B4B5B681B0903F00F030A4981
:102D5C00CB5C22FA03F3094A1360094B1B68184633
:102D6C00FEF79EFC002318461037BD4680BD00BF01
:102D7C0000200240001002400C4500085C000020BE
:102D8C006000002080B487B000AF0023FB600023FC
:102D9C00BB6000237B6100237B6000233B611E4BE7
:102DAC005B68FB60FB6803F00C03042B02D0082B60
:102DBC0003D027E0194B3B6127E0FB689B0C03F029
:102DCC000F03174AD35C7B60FB6803F48033002B42
:102DDC0010D0114B5B685B0C03F00103114AD35C00
:102DEC00BB607B680D4A02FB03F2BB68B2FBF3F3DA
:102DFC007B6104E07B680C4A02FB03F37B617B691B
:102E0C003B6102E0054B3B6100BF3B6918461C3738
:102E1C00BD4680BC704700BF0010024000127A0013
:102E2C00244500083445000800093D0080B400AF7B
:102E3C00024B1B681846BD4680BC70475C000020E6
:102E4C0080B500AFFFF7F2FF0246054B5B681B0A2B
:102E5C0003F007030349CB5C22FA03F3184680BD49
:102E6C00001002401C45000880B500AFFFF7DEFFE4
:102E7C000246054B5B68DB0A03F007030349CB5C96
:102E8C0022FA03F3184680BD001002401C450008CE
:102E9C0080B485B000AF78600A4B1B680A4AA2FB6D
:102EAC0003235B0A7A6802FB03F3FB6000BFFB6839
:102EBC005A1EFA60002BF9D100BF00BF1437BD4673
:102ECC0080BC70475C000020D34D621080B582B08E
:102EDC0000AF78607B68002B01D1012341E07B6857
:102EEC0093F83D30DBB2002B06D17B68002283F8CF
:102EFC003C207868FEF7C0FA7B68022283F83D20FC
:102F0C007B681A687B6804331946104600F05CFA3B
:102F1C007B68012283F846207B68012283F83E20DF
:102F2C007B68012283F83F207B68012283F84020D4
:102F3C007B68012283F841207B68012283F84220C0
:102F4C007B68012283F843207B68012283F84420AC
:102F5C007B68012283F845207B68012283F83D20A1
:102F6C00002318460837BD4680BD000080B485B0EC
:102F7C0000AF78607B6893F83D30DBB2012B01D059
:102F8C0001233AE07B68022283F83D207B681B68B2
:102F9C00DA687B681B6842F00102DA607B681B68A8
:102FAC00184A93420ED07B681B68B3F1804F09D04E
:102FBC007B681B68144A934204D07B681B68134AD5
:102FCC00934211D17B681B689B6803F00703FB607D
:102FDC00FB68062B10D07B681B681A687B681B6823
:102FEC0042F001021A6007E07B681B681A687B6874
:102FFC001B6842F001021A60002318461437BD46C4
:10300C0080BC7047002C01400004004000080040C8
:10301C0080B584B000AF78607B681B68DB68FB60B0
:10302C007B681B681B69BB60BB6803F00203002B49
:10303C0020D0FB6803F00203002B1BD07B681B68BD
:10304C006FF002021A617B6801221A777B681B6899
:10305C009B6903F00303002B03D0786800F098F908
:10306C0005E0786800F08BF9786800F09AF97B68D5
:10307C0000221A77BB6803F00403002B20D0FB68F6
:10308C0003F00403002B1BD07B681B686FF0040259
:10309C001A617B6802221A777B681B689B6903F4B0
:1030AC004073002B03D0786800F072F905E0786863
:1030BC0000F065F9786800F074F97B6800221A77E3
:1030CC00BB6803F00803002B20D0FB6803F0080357
:1030DC00002B1BD07B681B686FF008021A617B68A1
:1030EC0004221A777B681B68DB6903F00303002B4F
:1030FC0003D0786800F04CF905E0786800F03FF9EF
:10310C00786800F04EF97B6800221A77BB6803F0F0
:10311C001003002B20D0FB6803F01003002B1BD0F6
:10312C007B681B686FF010021A617B6808221A77A3
:10313C007B681B68DB6903F44073002B03D0786851
:10314C0000F026F905E0786800F019F9786800F0CD
:10315C0028F97B6800221A77BB6803F00103002B67
:10316C000CD0FB6803F00103002B07D07B681B68B5
:10317C006FF001021A617868FEF79EF8BB6803F0E5
:10318C008003002B0CD0FB6803F08003002B07D0CE
:10319C007B681B686FF080021A61786800F07FFA18
:1031AC00BB6803F04003002B0CD0FB6803F040031A
:1031BC00002B07D07B681B686FF040021A6178689F
:1031CC0000F0F8F8BB6803F02003002B0CD0FB6870
:1031DC0003F02003002B07D07B681B686FF02002E4
:1031EC001A61786800F052FA00BF1037BD4680BDF6
:1031FC0080B584B000AF786039600023FB737B68C6
:10320C0093F83C30012B01D10223B4E07B680122FE
:10321C0083F83C207B68022283F83D207B681B6886
:10322C009B68BB60BB6823F07703BB60BB6823F46F
:10323C007F43BB607B681B68BA689A603B681B68FD
:10324C00B3F5005F3ED0B3F5005F00F28780B3F5B5
:10325C00805F00F08680B3F5805F7FD8702B1AD02A
:10326C00702B7BD8602B50D0602B77D8502B3CD058
:10327C00502B73D8402B58D0402B6FD8302B64D0A8
:10328C00302B6BD8202B60D0202B67D8002B5CD038
:10329C00102B5AD062E07B6818683B6899683B68D1
:1032AC005A683B68DB6800F074F97B681B689B68A4
:1032BC00BB60BB6843F07703BB607B681B68BA6874
:1032CC009A604FE07B6818683B6899683B685A685D
:1032DC003B68DB6800F05DF97B681B689A687B686B
:1032EC001B6842F480429A603CE07B6818683B683B
:1032FC0059683B68DB681A4600F0D4F87B681B6899
:10330C005021184600F02BF92CE07B6818683B68BC
:10331C0059683B68DB681A4600F0F2F87B681B685A
:10332C006021184600F01BF91CE07B6818683B68AC
:10333C0059683B68DB681A4600F0B4F87B681B6878
:10334C004021184600F00BF90CE07B681A683B68CA
:10335C001B681946104600F002F903E00123FB73C9
:10336C0000E000BF7B68012283F83D207B680022CF
:10337C0083F83C20FB7B18461037BD4680BD80B4DB
:10338C0083B000AF786000BF0C37BD4680BC70477F
:10339C0080B483B000AF786000BF0C37BD4680BCF2
:1033AC00704780B483B000AF786000BF0C37BD4667
:1033BC0080BC704780B483B000AF786000BF0C371E
:1033CC00BD4680BC7047000080B485B000AF78600B
:1033DC0039607B681B68FB607B682F4A93420BD07B
:1033EC007B68B3F1804F07D07B682C4A934203D0A3
:1033FC007B682B4A934208D1FB6823F07003FB6077
:10340C003B685B68FA681343FB607B68224A934213
:10341C000BD07B68B3F1804F07D07B681F4A934277
:10342C0003D07B681E4A934208D1FB6823F4407397
:10343C00FB603B68DB68FA681343FB60FB6823F0B6
:10344C0080023B685B691343FB607B68FA681A6017
:10345C003B689A687B68DA623B681A687B689A6298
:10346C007B680D4A934203D13B681A697B681A63E7
:10347C007B6801225A617B681B6903F00103002BF6
:10348C0005D07B681B6923F001027B681A6100BFC1
:10349C001437BD4680BC7047002C0140000400402E
:1034AC000008004080B487B000AFF860B9607A6063
:1034BC00FB681B6A7B61FB681B6A23F00102FB68DB
:1034CC001A62FB689B693B613B6923F0F0033B612B
:1034DC007B681B013A6913433B617B6923F00A0348
:1034EC007B617A69BB6813437B61FB683A699A61BB
:1034FC00FB687A691A6200BF1C37BD4680BC7047F6
:10350C0080B487B000AFF860B9607A60FB681B6A62
:10351C007B61FB681B6A23F01002FB681A62FB6874
:10352C009B693B613B6923F470433B617B681B03E4
:10353C003A6913433B617B6923F0A0037B61BB6851
:10354C001B017A6913437B61FB683A699A61FB68DA
:10355C007A691A6200BF1C37BD4680BC704780B4C4
:10356C0085B000AF786039607B689B68FB60FB6856
:10357C0023F07003FB603A68FB68134343F00703C6
:10358C00FB607B68FA689A6000BF1437BD4680BC4C
:10359C00704780B487B000AFF860B9607A603B6068
:1035AC00FB689B687B617B6923F47F437B613B6891
:1035BC001A027B681A43BB6813437A6913437B6115
:1035CC00FB687A699A6000BF1C37BD4680BC7047A7
:1035DC0080B485B000AF786039607B6893F83C307C
:1035EC00012B01D1022346E07B68012283F83C20A9
:1035FC007B68022283F83D207B681B685B68FB605C
:10360C007B681B689B68BB60FB6823F07003FB60E6
:10361C003B681B68FA681343FB607B681B68FA689D
:10362C005A607B681B68164A93420ED07B681B68F5
:10363C00B3F1804F09D07B681B68124A934204D0C7
:10364C007B681B68104A93420CD1BB6823F0800343
:10365C00BB603B685B68BA681343BB607B681B68E4
:10366C00BA689A607B68012283F83D207B6800224F
:10367C0083F83C20002318461437BD4680BC7047A5
:10368C00002C0140000400400008004080B483B0CE
:10369C0000AF786000BF0C37BD4680BC704780B46B
:1036AC0083B000AF786000BF0C37BD4680BC70475C
:1036BC0080B582B000AF78607B68002B01D101230C
:1036CC0042E07B6893F84130DBB2002B06D17B687B
:1036DC00002283F840207868FDF7F2FE7B682422F4
:1036EC0083F841207B681B68DA687B681B6822F4CE
:1036FC000052DA60786800F071F97B681B681A690F
:10370C007B681B6822F490421A617B681B685A69BB
:10371C007B681B6822F02A025A617B681B68DA6896
:10372C007B681B6842F40052DA607B6800225A64A2
:10373C007B68202283F841207B68202283F842207A
:10374C007B6800225A63002318460837BD4680BDAB
:10375C0080B58AB002AFF860B9603B601346FB805D
:10376C0000237B61FB6893F84130DBB2202B75D1D1
:10377C00BB68002B02D0FB88002B01D101236EE02B
:10378C00FB6800225A64FB68212283F84120FDF774
:10379C00C9FF7861FB68FA889A84FB68FA88DA8436
:1037AC00FB689B68B3F5805F08D1FB681B69002B35
:1037BC0004D10023FB61BB68BB6103E0BB68FB6108
:1037CC000023BB612EE03B6800937B6900228021C3
:1037DC00F86800F048F80346002B05D0FB6820225F
:1037EC0083F8412003233AE0FB69002B0BD1BB6922
:1037FC001B881A46FB681B68C2F308025A60BB6937
:10380C000233BB6107E0FB691A78FB681B685A60DE
:10381C00FB690133FB61FB68DB8C9BB2013B9AB209
:10382C00FB68DA84FB68DB8C9BB2002BCBD13B684A
:10383C0000937B6900224021F86800F014F80346DD
:10384C00002B05D0FB68202283F84120032306E0DF
:10385C00FB68202283F84120002300E00223184655
:10386C002037BD4680BD80B586B000AFF860B9602A
:10387C003B601346FB713BE03B6AB3F1FF3F37D033
:10388C00FDF750FF02463B68D31A3A6A9A4202D3BC
:10389C003B6A002B01D103233AE0FB681B68DB6811
:1038AC0003F00403002B23D0BB68802B20D0BB6813
:1038BC00402B1DD0FB681B681B6803F00803082B0A
:1038CC0016D100237B61FB681B681B687B61FB685E
:1038DC001B685B687B617B69F86800F01DF8FB680E
:1038EC0008225A64FB68002283F8402001230FE071
:1038FC00FB681B681A68BB681340BA689A420CBF15
:10390C0001230023DBB21A46FB799A42B4D0002380
:10391C0018461837BD4680BD80B495B000AF7860AE
:10392C007B681B680C337B637B6B53E8003F3B630A
:10393C003B6B23F49073FB647B681B680C33FA6C51
:10394C003A64FB63F96B3A6C41E80023BB63BB6BD5
:10395C00002BE5D17B681B6814333B623B6A53E850
:10396C00003FFB61FB6923F00103BB647B681B68B0
:10397C001433BA6CFA62BB62B96AFA6A41E8002382
:10398C007B627B6A002BE5D17B681B6B012B19D109
:10399C007B681B680C33FB60FB6853E8003FBB6023
:1039AC00BB6823F010037B647B681B680C337A6C58
:1039BC00BA617B617969BA6941E800233B613B6973
:1039CC00002BE5D17B68202283F842207B68002203
:1039DC001A6300BF5437BD4680BC704780B584B0B5
:1039EC0000AF78607B681B681B6923F440517B68CF
:1039FC00DA687B681B680A431A617B689A687B6883
:103A0C001B691A437B685B691343BB607B681B684B
:103A1C00DB6823F4B05323F00C037A681268B9689E
:103A2C000B43D3607B681B685B6923F440717B6834
:103A3C009A697B681B680A435A617B681B682C4A2D
:103A4C00934203D1FFF710FAF86002E0FFF7F8F9A0
:103A5C00F860FA6813469B0013449A001A447B687A
:103A6C005B689B00B2FBF3F3224AA2FB03235B09C6
:103A7C001901FA6813469B0013449A001A447B6898
:103A8C005B689B00B2FBF3F21A4BA3FB02035B09CE
:103A9C00642000FB03F3D31A1B013233154AA2FB3B
:103AAC0003235B0903F0F0031944FA6813469B00E7
:103ABC0013449A001A447B685B689B00B2FBF3F2D8
:103ACC000C4BA3FB02035B09642000FB03F3D31A2A
:103ADC001B013233074AA2FB03235B0903F00F02DD
:103AEC007B681B680A449A6000BF1037BD4680BDD6
:103AFC00003801401F85EB51014B1868704700BF1F
:103B0C006800002070B500260C4D0D4C641BA410F1
:103B1C00A64209D100F090FC00260A4D0A4C641B09
:103B2C00A410A64205D170BD55F8043B9847013648
:103B3C00EEE755F8043B98470136F2E76C45000870
:103B4C006C4500086C4500087045000803460244AB
:103B5C00934200D1704703F8011BF9E738B50546CD
:103B6C00002943D051F8043C0C1F002BB8BFE418BB
:103B7C0000F0FEF81E4A1368104633B963601460F7
:103B8C002846BDE8384000F0F9B8A3420AD92168AC
:103B9C006218934201BF1A685B6852182260636016
:103BAC000460EDE71A465B680BB1A342FAD91168C1
:103BBC005018A0420BD12068014450188342116068
:103BCC00DED118685B68014411605360D8E702D9F4
:103BDC000C232B60D4E7206821188B4201BF196895
:103BEC005B680918216063605460C9E738BD00BF89
:103BFC0014010020F8B5CD1C25F0030508350C2D5B
:103C0C0038BF0C25002D064601DBA94203D90C2335
:103C1C0033600020F8BD00F0ABF821490A68144667
:103C2C009CB9204F3B6823B92146304600F03CF844
:103C3C0038602946304600F037F8431C23D10C235A
:103C4C003046336000F09AF8E3E723685B1B17D427
:103C5C000B2B03D923601C44256004E06368A2424B
:103C6C000CBF0B605360304600F088F804F10B0079
:103C7C00231D20F00700C21ACCD01B1AA350C9E791
:103C8C0022466468CCE7C41C24F00304A042E3D0B1
:103C9C00211A304600F008F80130DDD1CFE700BF23
:103CAC00140100201801002038B50023054D0446EE
:103CBC0008462B60FDF77CFC431C02D12B6803B13A
:103CCC00236038BD880200200CB430B5174B0C1E95
:103CDC001D689DB008DA8B234FF0FF302B601DB0B0
:103CEC00BDE8304002B070474FF40273ADF81430A9
:103CFC000CBF234604F1FF33049307934FF6FF7375
:103D0C0002900690ADF81630284621AB209A02A9F5
:103D1C00019300F095F8431CBCBF8B232B60002C47
:103D2C00DDD00022029B1A70D9E700BF680000208A
:103D3C000EB46FF0004100B59CB01DAB0290069024
:103D4C00079104910848094953F8042B0591006820
:103D5C0002A9019300F074F80022029B1A701CB0A7
:103D6C005DF804EB03B07047680000200802FFFF09
:103D7C00014800F0FBBA00BF90020020014800F09F
:103D8C00F6BA00BF900200202DE9F0478E688246FB
:103D9C009E420C4690461F4638D88A8912F4906F82
:103DAC0032D0256809690133A5EB010965694B44DB
:103DBC0005EB450505EBD5756D109D4238BF1D46CD
:103DCC00530531D52946FFF715FF064650B90C238C
:103DDC004FF0FF30CAF80030A38943F04003A381B1
:103DEC00BDE8F0874A46216900F0D0FAA38923F494
:103DFC00906343F08003A38126614E4426603E46C7
:103E0C006561A5EB0905A560BE4200D93E46324668
:103E1C004146206800F0C8FAA36822689B1B324414
:103E2C000020A3602260DBE72A4600F0D7FA0646A2
:103E3C000028E1D150462169FFF790FEC7E700004A
:103E4C002DE9F04F98468B8907461B060D46144604
:103E5C009DB00ED50B6963B94021FFF7CBFE2860EE
:103E6C00286120B90C233B604FF0FF30D1E0402398
:103E7C006B610023099320238DF8293030234FF0F8
:103E8C000109CDF80C80DFF8A4818DF82A30234687
:103E9C009A4613F8012B0AB1252AF9D1BAEB040B77
:103EAC000BD05B46224629463846FFF76DFF0130A2
:103EBC0000F0AA80099A5A4409929AF80030002B13
:103ECC0000F0A28000234FF0FF32CDE905230AF168
:103EDC00010A049307938DF853301A935446052224
:103EEC0014F8011B514800F043FA049AD8B9D006D3
:103EFC0044BF20238DF85330110744BF2B238DF87A
:103F0C0053309AF800302A2B15D0544600204FF02D
:103F1C000A0C079A214611F8013B303B092B4ED96C
:103F2C00B0B1079214E0A0EB080309FA03F31343B2
:103F3C00A2460493D2E7039B191D1B680391002B27
:103F4C00BBBF5B4242F0020207930793B8BF0492D7
:103F5C0023782E2B0CD163782A2B35D1039B02347A
:103F6C001A1D1B680392002BB8BF4FF0FF3305934B
:103F7C00DFF8C8A003225046217800F0F9F940B1CF
:103F8C004023A0EB0A0003FA00F0049B0134034326
:103F9C00049314F8011B062225488DF8281000F014
:103FAC00E7F9002838D0234B1BBB039B073323F0C6
:103FBC00070308330393099B3344099367E70C46C3
:103FCC0001200CFB0232A5E700234FF00A0C194626
:103FDC0001340593204610F8012B303A092A03D9F5
:103FEC00002BC5D00591C3E7044601230CFB01212E
:103FFC00F0E703AB00932A4638460F4B04A9AFF306
:10400C000080421C0646D6D1AB895B063FF52CAF2F
:10401C0009981DB0BDE8F08F03AB00932A463846D3
:10402C00054B04A900F07CF8EBE700BF364500080F
:10403C004045000800000000953D00083C45000884
:10404C002DE9F047164699468A680B690746934254
:10405C00B8BF1346336091F843200C46DDF820803E
:10406C000AB1013333602368990642BF33680233C7
:10407C003360256815F0060506D104F1190AE368CA
:10408C0032689B1AAB4228DC94F84320131E22683A
:10409C0018BF012392062DD44946384604F1430239
:1040AC00C047013020D02368E56803F00603042BD9
:1040BC0018BF002532684FF00006A36808BFAD1A80
:1040CC00226908BF25EAE5759342C4BF9B1AED1817
:1040DC001A34B5421AD1002008E001235246494651
:1040EC003846C047013003D14FF0FF30BDE8F087B0
:1040FC000135C4E73020E11881F843005A1C94F8CC
:10410C0045102244023382F84310C5E701232246AE
:10411C0049463846C0470130E6D00136D9E70000A1
:10412C002DE9FF470C46277E9146782F80469A460C
:10413C000C9904F1430207D8622F0AD8002F00F023
:10414C00D980582F00F0A48004F1420684F8427004
:10415C003AE0A7F16303152BF6D801A050F823F031
:10416C00C5410008D94100085541000855410008D7
:10417C005541000855410008D94100085541000837
:10418C00554100085541000855410008E742000818
:10419C0009420008C9420008554100085541000871
:1041AC000943000855410008094200085541000820
:1041BC0055410008D14200080B6804F142061A1D53
:1041CC001B680A6084F842300123A4E02568086863
:1041DC002E0600F104030AD505680B60002D03DAE6
:1041EC002D236D4284F843300A235E4819E015F004
:1041FC00400F05680B6018BF2DB2EFE70B68256800
:10420C00181D0860280601D51D6802E06906FBD55B
:10421C001D886F2F0CBF08230A235248002184F8F5
:10422C0043106668002EA8BF2168A660A4BF21F0C9
:10423C00040121600DB9002E4DD01646B5FBF3F1EB
:10424C0003FB1157C75D06F8017D2F46BB420D4697
:10425C00F4D9082B0BD12368DF0708D523696168D3
:10426C009942DEBF302306F8013C06F1FF36921B63
:10427C0022614B4621464046CDF800A003AAFFF729
:10428C00DFFE01304CD14FF0FF3004B0BDE8F087B9
:10429C00344884F845700E68236856F8045B1F0692
:1042AC000E6014D5D90744BF43F0200323601DB919
:1042BC00236823F0200323601023AFE7236843F027
:1042CC00200323607823284884F84530E3E75E0612
:1042DC0048BFADB2E6E71646BBE70B6826681D1D66
:1042EC0060690D6035061B6801D5186002E0710627
:1042FC00FBD51880002316462361BAE70B681A1DFC
:10430C000A601E6800213046626800F031F808B17E
:10431C00801B606063682361002384F84330A8E746
:10432C003246494640462369D0470130ABD023681A
:10433C009B0713D4E068039B9842B8BF1846A4E7C8
:10434C000123324649464046D04701309BD00135C7
:10435C00E36803995B1AAB42F2DCEBE7002504F14E
:10436C001906F5E74745000858450008704770479F
:10437C00034610B5C9B202449342184601D100203D
:10438C0003E0047801338C42F6D110BD0A4491420B
:10439C0000F1FF3300D1704710B511F8014B914279
:1043AC0003F8014FF9D110BD884210B501EB02049E
:1043BC0002D98442234607D8431EA14208D011F8E3
:1043CC00012B03F8012FF8E7014602448A4200D181
:1043DC0010BD13F8014D02F8014DF7E7F8B507468B
:1043EC0014460E4621B91146BDE8F840FFF702BC51
:1043FC0022B9FFF7B3FB25462846F8BD00F014F8A8
:10440C00A0420FD221463846FFF7F4FB05460028A0
:10441C00F2D031462246FFF7B9FF31463846FFF756
:10442C009DFBE9E73546E7E751F8043C181F002BE4
:10443C00BCBF0B58C0187047F8B500BFF8BC08BC1F
:10444C009E467047F8B500BFF8BC08BC9E46704746
:10445C00256400002154494D455220524544203AD0
:10446C002564230D0A0000002154494D455220417A
:10447C004D424552203A2564230D0A002154494DE2
:10448C00455220475245454E203A2564230D0A00DB
:10449C0054696D655245443A2564000054696D6554
:1044AC00475245454E3A25640000000054696D653D
:1044BC00616D6265723A2564000000002153574912
:1044CC0054434820544F2054554E494E47204D4F8D
:1044DC004445230D0A0000002153574954434820FA
:1044EC00544F204155544F204D4F4445230D0A0045
:1044FC002154494D4552204552524F52230D0A002A
:10450C000000000000000000010203040607080977
:10451C000000000001020304020304050607080959
:10452C000A0B0C0D0E0F10100102232D302B200046
:10453C00686C4C0065666745464700303132333451
:10454C0035363738394142434445460030313233F1
:10455C0034353637383961626364656600000000B3
:04456C003101000811
:044570000D01000831
:10457400010000000500000002000000030000002C
:10458400050000000200000003000000010000001C
:104594000000000000000000010000000000000016
:1045A4000000000001000000000000000000000006
:1045B400010000000000000000000000881300005B
:1045C40000000000000000000A00000000127A0051
:1045D40010000000010000006C000020000000003A
:1045E40000000000000000000000000000000000C7
:1045F40000000000000000000000000000000000B7
:1046040000000000000000000000000000000000A6
:104614000000000000000000000000000000000096
:104624000000000000000000000000000000000086
:0C4634000000000000000000000000007A
:0400000508001635A4
:00000001FF
